:1000000029C000002FC000002DC000002BC0000040
:1000100029C0000027C0000025C0000023C0000048
:1000200021C000001FC000001DC000001BC0000058
:1000300019C0000017C0000015C0000013C0000068
:1000400011C000000FC000000DC000000BC0000078
:1000500009C0000011241FBECFE5D8E0DEBFCDBF30
:1000600066D386C6CDCFCF93DF9300D01F92CDB796
:10007000DEB789836A834B838B81882309F06CC048
:100080008981882F90E08130910519F182309105A6
:100090001CF4892B41F0CBC08230910581F103978C
:1000A00009F443C0C4C08AE390E02AE330E0F901D8
:1000B0002081622F2A81422F50E021E030E002C0EF
:1000C000220F331F4A95E2F720952623FC01208357
:1000D000AEC087E390E027E330E0F9012081622F92
:1000E0002A81422F50E021E030E002C0220F331F6E
:1000F0004A95E2F720952623FC01208398C084E3EB
:1001000090E024E330E0F9012081622F2A81422F20
:1001100050E021E030E002C0220F331F4A95E2F7A1
:1001200020952623FC01208382C081E390E021E317
:1001300030E0F9012081622F2A81422F50E021E036
:1001400030E002C0220F331F4A95E2F720952623A4
:10015000FC01208300006BC08B81813009F067C0F7
:100160008981882F90E08130910511F182309105CD
:100170001CF4892B41F05BC08230910571F103972B
:1001800009F440C054C08AE390E02AE330E0F9016A
:100190002081622F2A81422F50E021E030E002C00E
:1001A000220F331F4A95E2F7262BFC0120833FC024
:1001B00087E390E027E330E0F9012081622F2A8174
:1001C000422F50E021E030E002C0220F331F4A9559
:1001D000E2F7262BFC0120832AC084E390E024E38D
:1001E00030E0F9012081622F2A81422F50E021E086
:1001F00030E002C0220F331F4A95E2F7262BFC01A4
:10020000208315C081E390E021E330E0F9012081F3
:10021000622F2A81422F50E021E030E002C0220FFD
:10022000331F4A95E2F7262BFC01208300000000D3
:100230000F900F900F90DF91CF910895CF93DF93A0
:1002400000D01F92CDB7DEB789836A834B838B8141
:10025000813009F068C08981882F90E08130910554
:1002600011F1823091051CF4892B41F0CBC0823012
:10027000910571F1039709F440C0C4C08BE390E08D
:100280002BE330E0F9012081622F2A81422F50E0D8
:1002900021E030E002C0220F331F4A95E2F7262BFF
:1002A000FC012083AFC088E390E028E330E0F9014F
:1002B0002081622F2A81422F50E021E030E002C0ED
:1002C000220F331F4A95E2F7262BFC0120839AC0A8
:1002D00085E390E025E330E0F9012081622F2A8157
:1002E000422F50E021E030E002C0220F331F4A9538
:1002F000E2F7262BFC01208385C082E390E022E315
:1003000030E0F9012081622F2A81422F50E021E064
:1003100030E002C0220F331F4A95E2F7262BFC0182
:10032000208300006FC08B81882309F06BC0898116
:10033000882F90E08130910519F1823091051CF4ED
:10034000892B41F05FC08230910581F1039709F458
:1003500043C058C08BE390E02BE330E0F9012081EB
:10036000622F2A81422F50E021E030E002C0220FAC
:10037000331F4A95E2F720952623FC01208342C0D3
:1003800088E390E028E330E0F9012081622F2A81A0
:10039000422F50E021E030E002C0220F331F4A9587
:1003A000E2F720952623FC0120832CC085E390E012
:1003B00025E330E0F9012081622F2A81422F50E0AD
:1003C00021E030E002C0220F331F4A95E2F720956A
:1003D0002623FC01208316C082E390E022E330E074
:1003E000F9012081622F2A81422F50E021E030E084
:1003F00002C0220F331F4A95E2F720952623FC0105
:100400002083000000000F900F900F90DF91CF919C
:100410000895CF93DF9300D01F92CDB7DEB78983C5
:100420006A834B8389E290E023E3FC0120838BE223
:1004300090E02BE230E0F90120812D7FFC01208348
:100440008981882F90E081309105C1F0823091053B
:1004500041F1892BC9F58AE290E02AE230E0F90106
:1004600020812061FC0120838AE290E02AE230E0D2
:10047000F90120812860FC01208339C08AE290E0E4
:100480002AE230E0F90120812F7EFC0120838AE2FC
:1004900090E02AE230E0F90120812860FC0120830D
:1004A00026C08AE290E02AE230E0F9012081206152
:1004B000FC0120838AE290E02AE230E0F901208109
:1004C000277FFC01208313C08AE290E02AE230E01B
:1004D000F90120812F7EFC0120838AE290E02AE24C
:1004E00030E0F9012081277FFC01208300008A8110
:1004F000882F90E08630910519F0079759F014C0C5
:100500008AE290E02AE230E0F90120812068FC01D3
:10051000208314C08AE290E02AE230E0F9012081D1
:100520002F77FC0120830AC08AE290E02AE230E0C3
:10053000F90120812F77FC01208300008B81882F17
:1005400090E08430910519F0059759F014C08AE2C3
:1005500090E02AE230E0F90120812064FC01208350
:1005600014C08AE290E02AE230E0F90120812F7B7A
:10057000FC0120830AC08AE290E02AE230E0F9011F
:1005800020812F7BFC012083000080E490E020E4A8
:1005900030E0F90120812068FC01208380E490E0B4
:1005A00020E430E0F90120812F7DFC01208380E4EC
:1005B00090E020E430E0F90120812F7EFC012083CF
:1005C0008AE290E02AE230E0F90120812B7FFC01F1
:1005D000208380E490E020E430E0F9012081246071
:1005E000FC01208380E490E020E430E0F9012081E8
:1005F0002260FC01208380E490E020E430E0F901F7
:1006000020812860FC01208380E490E020E430E039
:10061000F90120812E7FFC01208300000F900F90B4
:100620000F90DF91CF910895CF93DF9300D01F9269
:10063000CDB7DEB789837B836A8389818330B9F440
:1006400000008BE290E0FC018081881F8827881FD2
:10065000882F90E081709927892B99F38CE290E0A4
:10066000FC0120818A819B81FC01208319C0898142
:100670008230B1F400008BE290E0FC018081829531
:1006800086958770882F90E081709927892B99F340
:100690008CE290E02A813B81F9012081FC012083DA
:1006A00000000F900F900F90DF91CF910895CF939E
:1006B000DF9300D0CDB7DEB79A83898389819A8191
:1006C0009C012F5F3F4F3A832983BC0182E0ACDF5E
:1006D00089819A81FC018081882381F700000F9035
:1006E0000F90DF91CF910895CF93DF9300D0CDB7D6
:1006F000DEB79A83898389819A819C012F5F3F4F5E
:100700003A832983BC0183E08FDF89819A81019735
:10071000FC018081843279F789819A810197FC01FB
:10072000108200000F900F90DF91CF910895CF932A
:10073000DF93CDB7DEB762970FB6F894DEBF0FBE7A
:10074000CDBF45E067E080E064DE3CD0CE01099695
:10075000CBDFCE010996ABDFCE010996DDD219823F
:100760001A821B821C8224C01D821E821F82188650
:100770000BC08D819E81AF81B8850196A11DB11DF1
:100780008D839E83AF83B8878D819E81AF81B8852D
:100790008F3F9105A105B10560F389819A81AB81F5
:1007A000BC810196A11DB11D89839A83AB83BC8353
:1007B00089819A81AB81BC818A3F9105A105B105F0
:1007C00098F2C4CFCF93DF93CDB7DEB728970FB69B
:1007D000F894DEBF0FBECDBF41E061E081E043DCB5
:1007E00041E062E081E03FDC41E063E081E03BDC4E
:1007F00040E063E081E022DD41E064E080E033DC62
:1008000041E065E080E02FDC41E066E080E02BDC49
:1008100041E067E080E027DC19821A821B821C829B
:1008200024C01D821E821F8218860BC08D819E816E
:10083000AF81B8850196A11DB11D8D839E83AF83C5
:10084000B8878D819E81AF81B8858F3F9105A105C5
:10085000B10560F389819A81AB81BC810196A11DAC
:10086000B11D89839A83AB83BC8389819A81AB81D3
:10087000BC810A97A105B105A0F282E010D088E200
:100880000ED08CE00CD086E00AD0000028960FB67F
:10089000F894DEBF0FBECDBFDF91CF910895CF9307
:1008A000DF93CDB7DEB76D970FB6F894DEBF0FBEFE
:1008B000CDBF8D8F40E061E081E0C0DC40E062E0D0
:1008C00081E0BCDC8D8D82958F708170482F64E053
:1008D00080E0B4DC8D8D8295869587708170482F7D
:1008E00065E080E0ABDC8D8D829586958695837082
:1008F0008170482F66E080E0A1DC8D8D881F8827FD
:10090000881F482F67E080E099DC41E063E081E0E8
:1009100095DC19821A821B821C8224C01D821E82D1
:100920001F8218860BC08D819E81AF81B88501968C
:10093000A11DB11D8D839E83AF83B8878D819E815C
:10094000AF81B8858F3F9105A105B10560F389811D
:100950009A81AB81BC810196A11DB11D89839A83C7
:10096000AB83BC8389819A81AB81BC81892B8A2B23
:100970008B2BA1F240E063E081E060DC19861A86EF
:100980001B861C8624C01D861E861F86188A0BC0E7
:100990008D859E85AF85B8890196A11DB11D8D8776
:1009A0009E87AF87B88B8D859E85AF85B8898F3F31
:1009B0009105A105B10560F389859A85AB85BC8554
:1009C0000196A11DB11D89879A87AB87BC87898550
:1009D0009A85AB85BC850C97A105B105A0F28D8DDC
:1009E0008170482F64E080E029DC8D8D86958170D0
:1009F000482F65E080E022DC8D8D8695869581709C
:100A0000482F66E080E01ADC8D8D86958695869568
:100A10008170482F67E080E011DC41E063E081E015
:100A20000DDC198A1A8A1B8A1C8A24C01D8A1E8A18
:100A30001F8A188E0BC08D899E89AF89B88D01964B
:100A4000A11DB11D8D8B9E8BAF8BB88F8D899E891B
:100A5000AF89B88D8F3F9105A105B10560F38989F4
:100A60009A89AB89BC890196A11DB11D898B9A8B8E
:100A7000AB8BBC8B89899A89AB89BC89892B8A2BE2
:100A80008B2BA1F240E063E081E0D8DB198E1A8E57
:100A90001B8E1C8E000000006D960FB6F894DEBF12
:100AA0000FBECDBFDF91CF910895CF93DF93CDB728
:100AB000DEB7A5970FB6F894DEBF0FBECDBF8DA3EE
:100AC00019821A821B821C8224C01D821E821F82F0
:100AD00018860BC08D819E81AF81B8850196A11DBE
:100AE000B11D8D839E83AF83B8878D819E81AF8139
:100AF000B8858F3F9105A105B10560F389819A8181
:100B0000AB81BC810196A11DB11D89839A83AB8302
:100B1000BC8389819A81AB81BC810C97A105B10509
:100B2000A0F241E061E081E089DB40E062E081E049
:100B300085DB8DA182958F708170482F64E080E005
:100B40007DDB8DA18295869587708170482F65E049
:100B500080E074DB8DA18295869586958370817087
:100B6000482F66E080E06ADB8DA1881F8827881FF8
:100B7000482F67E080E062DB41E063E081E05EDB1C
:100B800019861A861B861C8624C01D861E861F8613
:100B9000188A0BC08D859E85AF85B8890196A11DE9
:100BA000B11D8D879E87AF87B88B8D859E85AF855C
:100BB000B8898F3F9105A105B10560F389859A85B4
:100BC000AB85BC850196A11DB11D89879A87AB872E
:100BD000BC8789859A85AB85BC85892B8A2B8B2B15
:100BE000A1F240E063E081E029DB198A1A8A1B8ABE
:100BF0001C8A24C01D8A1E8A1F8A188E0BC08D89EC
:100C00009E89AF89B88D0196A11DB11D8D8B9E8BDC
:100C1000AF8BB88F8D899E89AF89B88D8F3F910535
:100C2000A105B10560F389899A89AB89BC890196D0
:100C3000A11DB11D898B9A8BAB8BBC8B89899A893D
:100C4000AB89BC890C97A105B105A0F28DA181707B
:100C5000482F64E080E0F2DA8DA186958170482FFC
:100C600065E080E0EBDA8DA1869586958170482F4E
:100C700066E080E0E3DA8DA18695869586958170A1
:100C8000482F67E080E0DADA41E063E081E0D6DA1D
:100C9000198E1A8E1B8E1C8E24C01D8E1E8E1F8ECA
:100CA00018A20BC08D8D9E8DAF8DB8A10196A11D90
:100CB000B11D8D8F9E8FAF8FB8A38D8D9E8DAF8D03
:100CC000B8A18F3F9105A105B10560F3898D9A8D7B
:100CD000AB8DBC8D0196A11DB11D898F9A8FAB8FF5
:100CE000BC8F898D9A8DAB8DBC8D892B8A2B8B2BDC
:100CF000A1F240E063E081E0A1DA19A21AA21BA2EE
:100D00001CA200000000A5960FB6F894DEBF0FBE2F
:100D1000CDBFDF91CF910895CF93DF9300D01F9285
:100D2000CDB7DEB79B838A8319820DC08981882F56
:100D300090E02A813B81820F931FFC018081B5DE08
:100D400089818F5F89838981882F90E02A813B8107
:100D5000820F931FFC018081882319F089818031E3
:100D600028F300000F900F900F90DF91CF9108951E
:040D7000F894FFCF25
:00000001FF
