:1000000029C0000037C0000035C0000033C0000028
:10001000F0C4000096C400002DC000002BC00000FA
:1000200029C0000027C000004DC40000EDC300003F
:1000300022C000001DC500001DC000001BC0000044
:1000400019C0000017C0000015C0000013C0000058
:1000500011C0000011241FBECFE5D8E0DEBFCDBF28
:1000600020E0A0E6B0E001C01D92A437B207E1F79E
:1000700015D7FCC7C5CF1F920F9200905F000F925B
:1000800011242F933F934F935F936F937F938F939D
:100090009F93AF93BF93EF93FF93CF93DF93CDB72E
:1000A000DEB78091600090916100892B31F08091E2
:1000B000600090916100FC0109950000DF91CF91F3
:1000C000FF91EF91BF91AF919F918F917F916F9130
:1000D0005F914F913F912F910F9000925F000F9091
:1000E0001F9018950F93CF93DF9300D000D01F92ED
:1000F000CDB7DEB789836A834B832C830D838981D7
:10010000882F90E082309105E9F1833091051CF44D
:10011000019741F065C083309105E1F0049709F43F
:1001200048C05EC083E590E023E530E0F90120811E
:100130002F7BFC01208383E590E023E530E0F9018B
:100140002081277FFC0120838CE590E02A81FC013F
:10015000208358C083E590E023E530E0F901208159
:100160002F7BFC01208383E590E023E530E0F9015B
:1001700020812860FC0120838CE590E02A81FC012D
:10018000208340C041E063E081E0B2D483E590E0A9
:1001900023E530E0F90120812064FC01208383E520
:1001A00090E023E530E0F9012081277FFC012083E6
:1001B00029C041E063E081E09BD483E590E023E542
:1001C00030E0F90120812064FC01208383E590E088
:1001D00023E530E0F90120812860FC01208312C072
:1001E00083E590E023E530E0F90120812F7BFC01DD
:1001F000208383E590E023E530E0F9012081277F2B
:10020000FC0120838B81882F90E08230910519F0CA
:10021000039759F014C089E590E029E530E0F90131
:1002200020812260FC01208313C089E590E029E54C
:1002300030E0F90120812D7FFC01208309C089E590
:1002400090E029E530E0F90120812260FC01208363
:100250008C81882F90E0009719F0019759F014C015
:1002600089E590E029E530E0F90120812160FC0179
:10027000208313C089E590E029E530E0F901208171
:100280002E7FFC01208309C089E590E029E530E05C
:10029000F90120812160FC0120838981823019F0DD
:1002A0008981843091F483E590E023E530E0F90121
:1002B00020812F7EFC01208383E590E023E530E060
:1002C000F90120812062FC0120838D81882F90E03C
:1002D0008330910509F448C0843091052CF40097CF
:1002E00059F0019729F194C08530910509F458C05F
:1002F000069709F471C08CC083E590E023E530E0F7
:10030000F90120812160FC01208383E590E023E551
:1003100030E0F90120812D7FFC01208383E590E00E
:1003200023E530E0F90120812B7FFC0120838BC085
:1003300083E590E023E530E0F90120812E7FFC0188
:10034000208383E590E023E530E0F90120812260FD
:10035000FC01208383E590E023E530E0F901208172
:100360002B7FFC0120836FC083E590E023E530E024
:10037000F90120812160FC01208383E590E023E5E1
:1003800030E0F90120812260FC01208383E590E0C8
:1003900023E530E0F90120812B7FFC01208353C04D
:1003A00083E590E023E530E0F90120812E7FFC0118
:1003B000208383E590E023E530E0F90120812D7F63
:1003C000FC01208383E590E023E530E0F901208102
:1003D0002460FC01208337C083E590E023E530E012
:1003E000F90120812160FC01208383E590E023E571
:1003F00030E0F90120812D7FFC01208383E590E02E
:1004000023E530E0F90120812460FC0120831BC03A
:1004100083E590E023E530E0F90120812E7FFC01A7
:10042000208383E590E023E530E0F90120812D7FF2
:10043000FC01208383E590E023E530E0F901208191
:100440002B7FFC01208382E590E0FC0110820000FC
:100450000F900F900F900F900F90DF91CF910F9111
:1004600008950F93CF93DF9300D000D01F92CDB7A4
:10047000DEB789836A834B832C830D838981882F20
:1004800090E082309105E9F1833091051CF40197E9
:1004900041F05DC083309105E1F0049709F444C058
:1004A00056C085E490E025E430E0F9012081277F03
:1004B000FC01208385E490E025E430E0F90120810F
:1004C0002F7BFC01208383E490E02A81FC012083C0
:1004D00050C085E490E025E430E0F9012081277FD9
:1004E000FC01208385E490E025E430E0F9012081DF
:1004F0002064FC01208383E490E02A81FC012083B6
:1005000038C085E490E025E430E0F90120812860DE
:10051000FC01208385E490E025E430E0F9012081AE
:100520002F7BFC01208325C085E490E025E430E0AA
:10053000F90120812860FC01208385E490E025E416
:1005400030E0F90120812064FC01208312C085E4A1
:1005500090E025E430E0F9012081277FFC01208331
:1005600085E490E025E430E0F90120812F7BFC0157
:1005700020838B81882F90E08230910519F00397BA
:1005800059F014C089E590E029E530E0F9012081B7
:100590002068FC01208313C089E590E029E530E064
:1005A000F90120812F77FC01208309C089E590E0C3
:1005B00029E530E0F90120812F77FC0120838C812F
:1005C000882F90E0009719F0019759F014C089E541
:1005D00090E029E530E0F90120812064FC012083CE
:1005E00013C089E590E029E530E0F90120812F7BF7
:1005F000FC01208309C089E590E029E530E0F9019C
:1006000020812F7BFC0120838981823019F0898130
:10061000843091F483E590E023E530E0F901208116
:100620002F7EFC01208383E590E023E530E0F90193
:1006300020812062FC0120838D81882F90E0823010
:10064000910509F44CC0833091052CF4009779F0A2
:10065000019749F1B4C08530910509F478C086301E
:10066000910509F490C0039709F455C0A8C085E42A
:1006700090E025E430E0F90120812B7FFC0120830C
:1006800085E490E025E430E0F90120812D7FFC0134
:10069000208385E490E025E430E0F90120812160A9
:1006A000FC012083A7C085E490E025E430E0F90157
:1006B00020812B7FFC01208385E490E025E430E05D
:1006C000F90120812260FC01208385E490E025E48B
:1006D00030E0F90120812E7FFC0120838BC085E46E
:1006E00090E025E430E0F90120812B7FFC0120839C
:1006F00085E490E025E430E0F90120812260FC01EE
:10070000208385E490E025E430E0F9012081216038
:10071000FC0120836FC085E490E025E430E0F9011E
:1007200020812460FC01208385E490E025E430E012
:10073000F90120812D7FFC01208385E490E025E4F0
:1007400030E0F90120812E7FFC01208353C085E435
:1007500090E025E430E0F90120812460FC01208351
:1007600085E490E025E430E0F90120812260FC017D
:10077000208385E490E025E430E0F90120812E7F9C
:10078000FC01208337C085E490E025E430E0F901E6
:1007900020812460FC01208385E490E025E430E0A2
:1007A000F90120812260FC01208385E490E025E4AA
:1007B00030E0F90120812160FC0120831BC085E429
:1007C00090E025E430E0F90120812B7FFC012083BB
:1007D00085E490E025E430E0F90120812D7FFC01E3
:1007E000208385E490E025E430E0F90120812E7F2C
:1007F000FC01208300000F900F900F900F900F903E
:10080000DF91CF910F9108951F920F9200905F009A
:100810000F9211240F932F933F934F935F936F93F6
:100820007F938F939F93AF93BF93EF93FF93CF9358
:10083000DF93CDB7DEB78091620090916300A09105
:100840006400B09165000197A109B109809362002D
:1008500090936300A0936400B093650080916E0054
:1008600090916F00892BC1F080916200909163009C
:10087000A0916400B0916500892B8A2B8B2B61F4C9
:1008800000E021E043E060E081E02CDC80916E003C
:1008900090916F00FC0109950000DF91CF91FF91CD
:1008A000EF91BF91AF919F918F917F916F915F91E8
:1008B0004F913F912F910F910F9000925F000F90F9
:1008C0001F9018951F920F9200905F000F921124B5
:1008D0000F932F933F934F935F936F937F938F93D8
:1008E0009F93AF93BF93EF93FF93CF93DF93CDB7D6
:1008F000DEB780916A0090916B00892B61F000E077
:1009000021E043E060E081E0EDDB80916A009091BE
:100910006B00FC0109950000DF91CF91FF91EF91F1
:10092000BF91AF919F918F917F916F915F914F9107
:100930003F912F910F910F9000925F000F901F90A9
:1009400018951F920F9200905F000F9211240F9341
:100950002F933F934F935F936F937F938F939F93C7
:10096000AF93BF93EF93FF93CF93DF93CDB7DEB7F2
:100970008091660090916700A0916800B091690035
:100980000197A109B1098093660090936700A09335
:100990006800B09369008091700090917100892B7C
:1009A00091F08091660090916700A0916800B091ED
:1009B0006900892B8A2B8B2B31F400E021E043E086
:1009C00060E081E04EDD0000DF91CF91FF91EF917B
:1009D000BF91AF919F918F917F916F915F914F9157
:1009E0003F912F910F910F9000925F000F901F90F9
:1009F00018951F920F9200905F000F9211240F9391
:100A00002F933F934F935F936F937F938F939F9316
:100A1000AF93BF93EF93FF93CF93DF93CDB7DEB741
:100A200080916C0090916D00892B61F080916C0039
:100A300090916D00FC01099500E021E043E060E049
:100A400081E00FDD0000DF91CF91FF91EF91BF9129
:100A5000AF919F918F917F916F915F914F913F9156
:100A60002F910F910F9000925F000F901F9018959B
:100A70001F920F9200905F000F9211242F933F93CB
:100A80004F935F936F937F938F939F93AF93BF9396
:100A9000EF93FF93CF93DF931F92CDB7DEB78CE236
:100AA00090E0FC01808189838091720090917300B5
:100AB000892B41F02091720030917300CE01019694
:100AC000F901099500000F90DF91CF91FF91EF910F
:100AD000BF91AF919F918F917F916F915F914F9156
:100AE0003F912F910F9000925F000F901F901895EB
:100AF000CF93DF9300D01F92CDB7DEB789836A838F
:100B00004B838B81882309F06CC08981882F90E00A
:100B10008130910519F1823091051CF4892B41F047
:100B2000CBC08230910581F1039709F443C0C4C062
:100B30008AE390E02AE330E0F9012081622F2A81E4
:100B4000422F50E021E030E002C0220F331F4A95CF
:100B5000E2F720952623FC012083AEC087E390E0D6
:100B600027E330E0F9012081622F2A81422F50E0F3
:100B700021E030E002C0220F331F4A95E2F72095B2
:100B80002623FC01208398C084E390E024E330E036
:100B9000F9012081622F2A81422F50E021E030E0CC
:100BA00002C0220F331F4A95E2F720952623FC014D
:100BB000208382C081E390E021E330E0F9012081CD
:100BC000622F2A81422F50E021E030E002C0220F44
:100BD000331F4A95E2F720952623FC01208300006D
:100BE0006BC08B81813009F067C08981882F90E0CC
:100BF0008130910511F1823091051CF4892B41F06F
:100C00005BC08230910571F1039709F440C054C074
:100C10008AE390E02AE330E0F9012081622F2A8103
:100C2000422F50E021E030E002C0220F331F4A95EE
:100C3000E2F7262BFC0120833FC087E390E027E307
:100C400030E0F9012081622F2A81422F50E021E01B
:100C500030E002C0220F331F4A95E2F7262BFC0139
:100C600020832AC084E390E024E330E0F90120816E
:100C7000622F2A81422F50E021E030E002C0220F93
:100C8000331F4A95E2F7262BFC01208315C081E330
:100C900090E021E330E0F9012081622F2A81422F88
:100CA00050E021E030E002C0220F331F4A95E2F706
:100CB000262BFC012083000000000F900F900F9066
:100CC000DF91CF910895CF93DF9300D01F92CDB7DE
:100CD000DEB789836A834B838B81813009F068C0DA
:100CE0008981882F90E08130910511F18230910542
:100CF0001CF4892B41F0CBC08230910571F1039730
:100D000009F440C0C4C08BE390E02BE330E0F9016C
:100D10002081622F2A81422F50E021E030E002C082
:100D2000220F331F4A95E2F7262BFC012083AFC028
:100D300088E390E028E330E0F9012081622F2A81E6
:100D4000422F50E021E030E002C0220F331F4A95CD
:100D5000E2F7262BFC0120839AC085E390E025E38F
:100D600030E0F9012081622F2A81422F50E021E0FA
:100D700030E002C0220F331F4A95E2F7262BFC0118
:100D8000208385C082E390E022E330E0F9012081F6
:100D9000622F2A81422F50E021E030E002C0220F72
:100DA000331F4A95E2F7262BFC01208300006FC019
:100DB0008B81882309F06BC08981882F90E0813076
:100DC000910519F1823091051CF4892B41F05FC027
:100DD0008230910581F1039709F443C058C08BE339
:100DE00090E02BE330E0F9012081622F2A81422F2D
:100DF00050E021E030E002C0220F331F4A95E2F7B5
:100E000020952623FC01208342C088E390E028E35C
:100E100030E0F9012081622F2A81422F50E021E049
:100E200030E002C0220F331F4A95E2F720952623B7
:100E3000FC0120832CC085E390E025E330E0F9013C
:100E40002081622F2A81422F50E021E030E002C051
:100E5000220F331F4A95E2F720952623FC012083B9
:100E600016C082E390E022E330E0F9012081622F96
:100E70002A81422F50E021E030E002C0220F331FD0
:100E80004A95E2F720952623FC012083000000000C
:100E90000F900F900F90DF91CF910895CF93DF9334
:100EA000CDB7DEB760970FB6F894DEBF0FBECDBFEB
:100EB00069D081E080D019821A821B821C8224C0F2
:100EC0001D821E821F8218860BC08D819E81AF817C
:100ED000B8850196A11DB11D8D839E83AF83B88710
:100EE0008D819E81AF81B8858F3F9105A105B105A8
:100EF00060F389819A81AB81BC810196A11DB11DEE
:100F000089839A83AB83BC8389819A81AB81BC81BD
:100F10008A3F9105A105B10598F280E04CD0198671
:100F20001A861B861C8624C01D861E861F86188A6C
:100F30000BC08D859E85AF85B8890196A11DB11D19
:100F40008D879E87AF87B88B8D859E85AF85B88945
:100F50008F3F9105A105B10560F389859A85AB8521
:100F6000BC850196A11DB11D89879A87AB87BC8777
:100F700089859A85AB85BC858A3F9105A105B10518
:100F800098F297CFCF93DF93CDB7DEB704D00000B0
:100F9000DF91CF910895CF93DF93CDB7DEB741E0D6
:100FA00062E080E0A5DD41E061E080E0A1DD0000DD
:100FB000DF91CF910895CF93DF93CDB7DEB7299717
:100FC0000FB6F894DEBF0FBECDBF89878985882311
:100FD00011F082E001C081E041E0682F80E073DE23
:100FE00019821A821B821C8224C01D821E821F82CB
:100FF00018860BC08D819E81AF81B8850196A11D99
:10100000B11D8D839E83AF83B8878D819E81AF8113
:10101000B8858F3F9105A105B10560F389819A815B
:10102000AB81BC810196A11DB11D89839A83AB83DD
:10103000BC8389819A81AB81BC818A3F9105A105DE
:10104000B10598F28985882311F082E001C081E022
:1010500040E0682F80E037DE000029960FB6F89454
:10106000DEBF0FBECDBFDF91CF910895F894FFCFC3
:00000001FF
