:020000040800F2
:10000000FF270020451500088D1500088D150008F4
:100010008D1500088D1500088D15000800000000E2
:100020000000000000000000000000008D15000826
:100030008D150008000000008D1500088D150008C2
:100040008D1500088D1500088D1500088D15000808
:100050008D1500088D1500088D1500088D150008F8
:100060008D1500088D1500088D1500088D150008E8
:100070008D1500088D1500088D1500088D150008D8
:100080008D1500088D1500088D1500088D150008C8
:100090008D1500088D1500088D1500088D150008B8
:1000A0008D1500088D1500088D1500088D150008A8
:1000B0008D1500088D150008000000008D15000842
:1000C0008D15000800000000000000008D150008DC
:1000D000000000008D1500088D15000800000000CC
:1000E0008D1500088D1500088D1500080000000012
:1000F0000000000000000000000000000000000000
:0C01000000000000000000005FF808F1A3
:10010C000348044B834202D0034B03B1184770479A
:10011C00600400206004002000000000054806492F
:10012C000B1AD90F01EBA301491002D0034B03B1F9
:10013C001847704760040020600400200000000095
:10014C0010B5064C237843B9FFF7DAFF044B13B113
:10015C000448AFF300800123237010BD600400201D
:10016C0000000000A415000808B5044B1BB104499D
:10017C000448AFF30080BDE80840CFE70000000062
:10018C0064040020A4150008A3F5803A704700BF52
:10019C00154B002B08BF114B9D46FFF7F5FF0021B7
:1001AC008B460F461148124A121A01F0E7F80C4B15
:1001BC00002B00D098470B4B002B00D09847002009
:1001CC00002104000D000B4801F088F801F0B2F892
:1001DC002000290000F09CF901F086F800000800CE
:1001EC00000000000000000000000000600400207F
:1001FC007C0400201513000880B483B000AF786035
:10020C000B46FB70FB78012202FA03F343F48032B5
:10021C007B689A617A68936943F4803393617A6856
:10022C0093696FF3104393617A68936943F4803355
:10023C0093617B689B69C3F300437B689B69C3F341
:10024C00004300BF0C37BD4680BC704780B485B0FE
:10025C0000AF786039600023FB603B78072B02D835
:10026C007B68FB6006E03B78083BDBB23B707B684D
:10027C000433FB607B780F2B0CD17B68DB683A78FE
:10028C00114601228A40D2431A407B68DA60082367
:10029C007B700BE07B78082B08D17B68DB683A78A5
:1002AC00114601228A401A437B68DA60FB681A689F
:1002BC003B789B000F2101FA03F3DB431A40FB68E8
:1002CC001A60FB681A68B9787B780B43DBB2194665
:1002DC003B789B0001FA03F31A43FB681A6000BFDA
:1002EC001437BD4680BC704780B483B000AF7860D3
:1002FC000B46FB707B689A68FB7822FA03F3DBB23F
:10030C0003F00103DBB218460C37BD4680BC7047C6
:10031C0080B483B000AF78600B46FB701346BB70A3
:10032C00BB78012B05D1FB78012202FA03F31A46A4
:10033C0005E0FB781033012202FA03F31A467B68BE
:10034C001A6100BF0C37BD4680BC704780B483B0C7
:10035C0000AF78600B46FB707B68DB68FA78012194
:10036C0001FA02F25A407B68DA6000BF0C37BD46D6
:10037C0080BC704780B483B000AF78607B689B68AA
:10038C009BB218460C37BD4680BC704780B483B016
:10039C0000AF78600B467B807A887B68DA6000BFA0
:1003AC000C37BD4680BC704780B483B000AF78601A
:1003BC007B68DB68DA437B68DA6000BF0C37BD46CC
:1003CC0080BC704780B400AF154B1B68144A43F0D7
:1003DC0001031360124B5A681149124B13404B60C6
:1003EC000F4B1B680E4A23F0847323F48033136085
:1003FC000B4B1B680A4A23F480231360084B5B6881
:10040C00074A23F4FE035360054B4FF41F029A6016
:10041C00054B4FF000629A6000BFBD4680BC704730
:10042C00001002400000FFF800ED00E080B485B041
:10043C0000AF0023FB600023BB6000237B602F4BCD
:10044C005B6803F00C03FB60FB68082B11D0FB68A6
:10045C00082B3AD8FB68002B03D0FB68042B04D084
:10046C0033E0274B274A1A6033E0254B254A1A60A4
:10047C002FE0224B5B6803F47013BB601F4B5B686F
:10048C0003F480337B60BB689B0C0233BB607B68DE
:10049C00002B06D1BB681C4A02FB03F3184A1360FD
:1004AC0017E0164B5B6803F40033002B06D0BB68D7
:1004BC00154A02FB03F3124A13600AE0BB68114AA7
:1004CC0002FB03F30E4A136003E00D4B0D4A1A6056
:1004DC0000BF0A4B5B681B0903F00F030B4AD35C8C
:1004EC00FB60074B1A68FB6822FA03F3044A13609B
:1004FC0000BF1437BD4680BC704700BF00100240DF
:10050C000400002000127A0000093D00E4150008E8
:10051C0090B589B000AF254B9B69244A43F0040386
:10052C009361224B9B69214A43F008039361204B52
:10053C003C1D0FCB07C4238000F032F900F006FC01
:10054C003B1D0FCB00F038F80023FB7719E0FB7F45
:10055C00184600F04CFB0023BB610BE000237B61D1
:10056C0002E07B6901337B617B69FE2BF9D9BB69A6
:10057C000133BB61BB69B3F5FA7FEFD3FB7F01336A
:10058C00FB77FB7F092BE2D900F077FB094800F0E1
:10059C0041FB0021012000F056FB00F075FB0346E7
:1005AC00FB77FB7F184600F055F9F6E70010024088
:1005BC0010160008FC15000890B587B000AF3C463B
:1005CC0084E80F0000237B750123BB757B7B3B7597
:1005DC003B6879691846FFF739FE0023FB750DE07F
:1005EC00FB7D18333B4413F8133C3B753B6879692E
:1005FC001846FFF72BFEFB7D0133FB75FB7D072BAC
:10060C00EED900BF00BF1C37BD4690BD90B587B07A
:10061C0000AF3C4684E80F003B79002B24D03B68AC
:10062C00797B00221846FFF773FE0023FB7517E059
:10063C003868FB7D18333B4413F8131C97F82830AB
:10064C001F4AD35C1A46FB7D42FA03F3DBB203F07C
:10065C000103DBB21A46FFF75BFEFB7D0133FB7532
:10066C00FB7D072BE4D926E03B68797B01221846F9
:10067C00FFF74EFE0023FB751AE03868FB7D18333C
:10068C003B4413F8131C97F828300D4AD35C1A46D8
:10069C00FB7D42FA03F303F00103002B0CBF012393
:1006AC000023DBB21A46FFF733FEFB7D0133FB75EB
:1006BC00FB7D072BE1D900BF1C37BD4690BD00BFA9
:1006CC000800002080B58AB000AF0346FB71324AA7
:1006DC0007F10C0392E8030083E8030000220B21CE
:1006EC002E48FFF715FE00220A212C48FFF710FEBA
:1006FC00002387F8273017E097F8273028333B443E
:10070C0013F81C1CFA7997F8273042FA03F3DBB282
:10071C0003F00103DBB21A462048FFF7F9FD97F806
:10072C002730013387F8273097F82730072BE3D988
:10073C0001220C211948FFF7EBFD00233B620BE073
:10074C000023FB6102E0FB690133FB61FB69FE2BBB
:10075C00F9D93B6A01333B623B6A042BF0D9002286
:10076C000C210E48FFF7D4FD0023BB610BE00023E6
:10077C007B6102E07B6901337B617B69FE2BF9D9DC
:10078C00BB690133BB61BB69012BF0D900BF00BF52
:10079C002837BD4680BD00BF201600080008014068
:1007AC0080B586B000AF294A3B1D92E8030083E870
:1007BC00030000237B700123BB700A233B70396854
:1007CC002348FFF743FD0B233B7039682048FFF7A4
:1007DC003DFD0C233B7039681D48FFF737FD0022A7
:1007EC000C211B48FFF794FD0023FB750CE0FB7DEF
:1007FC0018333B4413F8143C3B7039681448FFF72A
:10080C0025FDFB7D0133FB75FB7D072BEFD9002309
:10081C003B610BE00023FB6002E0FB680133FB60F3
:10082C00FB68FE2BF9D93B6901333B613B69272BF4
:10083C00F0D93C20FFF746FF0C20FFF743FF0120C7
:10084C00FFF740FF00BF1837BD4680BD20160008DB
:10085C000008014080B58CB000AF0346FB713B4AE9
:10086C0007F10C0392E8030083E803000023BB624A
:10087C000BE000237B6202E07B6A01337B627B6AC4
:10088C00FE2BF9D9BB6A0133BB62BB6A312BF0D9A1
:10089C0000220B212E48FFF73BFD01220A212C4898
:1008AC00FFF736FD002387F82F3017E097F82F302D
:1008BC0030333B4413F8241CFA7997F82F3042FA62
:1008CC0003F3DBB203F00103DBB21A462048FFF757
:1008DC001FFD97F82F30013387F82F3097F82F3002
:1008EC00072BE3D901220C211948FFF711FD002336
:1008FC003B620BE00023FB6102E0FB690133FB610F
:10090C00FB69FE2BF9D93B6A01333B623B6A042B32
:10091C00F0D900220C210E48FFF7FAFC0023BB6132
:10092C000BE000237B6102E07B6901337B617B6917
:10093C00FE2BF9D9BB690133BB61BB69012BF0D923
:10094C0000BF00BF3037BD4680BD00BF2016000879
:10095C000008014080B485B000AF78603960002396
:10096C00FB737B68002B22D1FB7B5A1CFA731A4653
:10097C003B68134430221A701CE07968344BA3FB9B
:10098C000123DA0813469B0013445B00CA1AD2B247
:10099C00FB7B39680B443032D2B21A70FB7B0133CB
:1009AC00FB737B682A4AA2FB0323DB087B607B6812
:1009BC00002BE2D1FB7B3A68134400221A7000230F
:1009CC00BB7338E0BB7B3A6813441978FA7BBB7B6A
:1009DC00D31A013B3A6813441A78BB7B386803443A
:1009EC004A40D2B21A70FA7BBB7BD31A013B3A68ED
:1009FC0013441978BB7B3A6813441A78F87BBB7B99
:100A0C00C31A013B386803444A40D2B21A70BB7B0C
:100A1C003A6813441978FA7BBB7BD31A013B3A68CA
:100A2C0013441A78BB7B386803444A40D2B21A701C
:100A3C00BB7B0133BB73FB7B5B08DBB2BA7B9A429B
:100A4C00C0D300BF00BF1437BD4680BC704700BF89
:100A5C00CDCCCCCC80B584B000AF786039607868F0
:100A6C0000F01CFC03469BB2184600F073FA0346D8
:100A7C001946786800F0B8F90346184600F00EFCE9
:100A8C0003469BB21A46920013441A4691001A462A
:100A9C000B4613449B00BB810023FB731AE0BA89FD
:100AAC00474BA3FB0213D9080B469B000B445B007E
:100ABC00D31A9BB2DAB2FB7B39680B443032D2B218
:100ACC001A70FB7B0133FB73BB893D4AA2FB0323EA
:100ADC00DB08BB81BB89002BE1D1FB7B5A1CFA7371
:100AEC001A463B6813442E221A701CE0786800F0FA
:100AFC00D5FB0146324BA3FB0123DA0813469B00BE
:100B0C0013445B00CA1AD2B2FB7B39680B443032F7
:100B1C00D2B21A70FB7B0133FB732A49786800F060
:100B2C0021FB03467B60786800F0B8FB0346002B82
:100B3C00DCD10023BB7338E0BB7B3A6813441978D3
:100B4C00FA7BBB7BD31A013B3A6813441A78BB7B04
:100B5C00386803444A40D2B21A70FA7BBB7BD31A72
:100B6C00013B3A6813441978BB7B3A6813441A78F2
:100B7C00F87BBB7BC31A013B386803444A40D2B2B2
:100B8C001A70BB7B3A6813441978FA7BBB7BD31A77
:100B9C00013B3A6813441A78BB7B386803444A40DB
:100BAC00D2B21A70BB7B0133BB73FB7B5B08DBB22D
:100BBC00BA7B9A42C0D300BF00BF1037BD4680BD80
:100BCC00CDCCCCCC0000204180B584B000AF786097
:100BDC0007F1080319467868FFF73CFF07F1080393
:100BEC00184600F017F800BF1037BD4680BD80B521
:100BFC0084B000AF786007F1080319467868FFF7F6
:100C0C00A9FE07F10803184600F004F800BF1037DE
:100C1C00BD4680BD80B582B000AF786009E07B68CE
:100C2C0093F90030DBB21846FFF714FE7B680133F2
:100C3C007B607B6893F90030002BF0D100BF00BFC4
:100C4C000837BD4680BD80B584B000AF03460A4668
:100C5C00FB711346BB71FB79002B01D0C02300E064
:100C6C008023FB73FA7BBB791344DBB21846FFF786
:100C7C0029FD00BF1037BD4680BD80B500AF0120F7
:100C8C00FFF720FD00BF80BD80B582B000AF00F043
:100C9C000AF80346FB71FB79582BF8D0FB79184600
:100CAC000837BD4680BD80B582B000AF58237B713C
:100CBC000023FB7139E0FB79204AD35C00221946F2
:100CCC001F48FFF725FB0023BB7120E0BB791D4AB1
:100CDC00D35C19461A48FFF707FB0346002B13D1C8
:100CEC00BA79FB79184992000A4413441B787B713A
:100CFC0000BFBB79134AD35C19461148FFF7F4FACD
:100D0C000346002BF5D005E0BB790133BB71BB79F1
:100D1C00032BDBD9FB79094AD35C0122194608481D
:100D2C00FFF7F6FAFB790133FB71FB79032BC2D980
:100D3C007B7918460837BD4680BD00BF24000020D3
:100D4C00000C0140280000201400002080B582B067
:100D5C0000AF08237B710023BB710023FB710AE0F9
:100D6C00FB79174AD35C3B7179681648FFF76EFA2A
:100D7C00FB790133FB71FB79032BF1D900237B71D8
:100D8C000123BB710023FB7112E0FB790E4AD35C8B
:100D9C003B7179680B48FFF759FAFB790A4AD35C27
:100DAC00012219460748FFF7B3FAFB790133FB71AF
:100DBC00FB79032BE9D900BF00BF0837BD4680BDC6
:100DCC0028000020000C01402400002064160008BC
:100DDC000000002060040020600400207C0400203F
:100DEC0080F0004002E000BF81F0004142001FBFD4
:100DFC005FEA410392EA030F7FEA226C7FEA236CDD
:100E0C006AD04FEA1262D2EB1363C1BFD2184140D1
:100E1C0048404140B8BF5B42192B88BF704710F067
:100E2C00004F40F4000020F07F4018BF404211F00A
:100E3C00004F41F4000121F07F4118BF494292EA72
:100E4C00030F3FD0A2F1010241FA03FC10EB0C009E
:100E5C00C3F1200301FA03F100F0004302D549422B
:100E6C0060EB4000B0F5000F13D3B0F1807F06D3D8
:100E7C0040084FEA310102F10102FE2A51D2B1F1D0
:100E8C00004F40EBC25008BF20F0010040EA0300C5
:100E9C007047490040EB0000013A28BFB0F5000F45
:100EAC00EDD2B0FA80FCACF1080CB2EB0C0200FAFB
:100EBC000CF0AABF00EBC25052421843BCBFD0404A
:100ECC001843704792F0000F81F4000106BF80F4C4
:100EDC0000000132013BB5E74FEA41037FEA226C87
:100EEC0018BF7FEA236C21D092EA030F04D092F052
:100EFC00000F08BF0846704790EA010F1CBF002086
:100F0C00704712F07F4F04D1400028BF40F00040E2
:100F1C00704712F100723CBF00F50000704700F002
:100F2C00004343F0FE4040F4000070477FEA226229
:100F3C0016BF08467FEA23630146420206BF5FEAFA
:100F4C00412390EA010F40F4800070474FF00003FA
:100F5C0004E000BF10F0004348BF40425FEA000CC1
:100F6C0008BF704743F0964301464FF000001CE069
:100F7C0050EA010208BF70474FF000030AE000BFBF
:100F8C0050EA010208BF704711F0004302D54042FD
:100F9C0061EB41015FEA010C02BF8446014600206F
:100FAC0043F0B64308BFA3F18053A3F50003BCFA8A
:100FBC008CF2083AA3EBC25310DB01FA02FC634437
:100FCC0000FA02FCC2F12002BCF1004F20FA02F23E
:100FDC0043EB020008BF20F00100704702F1200231
:100FEC0001FA02FCC2F1200250EA4C0021FA02F292
:100FFC0043EB020008BF20EADC7070474FF0FF0C97
:10100C001CEAD0521EBF1CEAD15392EA0C0F93EA91
:10101C000C0F6FD01A4480EA010C400218BF5FEA33
:10102C0041211ED04FF0006343EA501043EA5111A6
:10103C00A0FB01310CF00040B1F5000F3EBF4900A0
:10104C0041EAD3715B0040EA010062F17F02FD2AA4
:10105C001DD8B3F1004F40EBC25008BF20F0010087
:10106C00704790F0000F0CF0004C08BF49024CEA9E
:10107C00502040EA51207F3AC2BFD2F1FF0340EA30
:10108C00C250704740F400004FF00003013A5DDCA1
:10109C0012F1190FDCBF00F000407047C2F10002E2
:1010AC00410021FA02F1C2F1200200FA02FC5FEACF
:1010BC00310040F1000053EA4C0308BF20EADC7019
:1010CC00704792F0000F00F0004C02BF400010F48B
:1010DC00000F013AF9D040EA0C0093F0000F01F038
:1010EC00004C02BF490011F4000F013BF9D041EA5A
:1010FC000C018FE70CEAD15392EA0C0F18BF93EA5C
:10110C000C0F0AD030F0004C18BF31F0004CD8D185
:10111C0080EA010000F00040704790F0000F17BF0C
:10112C0090F0004F084691F0000F91F0004F14D052
:10113C0092EA0C0F01D142020FD193EA0C0F03D1AA
:10114C004B0218BF084608D180EA010000F00040AD
:10115C0040F0FE4040F40000704740F0FE4040F488
:10116C00400070474FF0FF0C1CEAD0521EBF1CEA27
:10117C00D15392EA0C0F93EA0C0F69D0A2EB030245
:10118C0080EA010C49024FEA402037D04FF08053DF
:10119C0043EA111143EA10130CF000408B4238BFA4
:1011AC005B0042F17D024FF4000C8B4224BF5B1AB2
:1011BC0040EA0C00B3EB510F24BFA3EB510340EA00
:1011CC005C00B3EB910F24BFA3EB910340EA9C00AE
:1011DC00B3EBD10F24BFA3EBD10340EADC001B011E
:1011EC0018BF5FEA1C1CE0D1FD2A3FF650AF8B42C2
:1011FC0040EBC25008BF20F0010070470CF0004CCF
:10120C004CEA50207F32C2BFD2F1FF0340EAC250F9
:10121C00704740F400004FF00003013A37E792F0BA
:10122C00000F00F0004C02BF400010F4000F013A18
:10123C00F9D040EA0C0093F0000F01F0004C02BF13
:10124C00490011F4000F013BF9D041EA0C0195E77C
:10125C000CEAD15392EA0C0F08D142027FF47DAF15
:10126C0093EA0C0F7FF470AF084676E793EA0C0F05
:10127C0004D14B023FF44CAF08466EE730F0004C03
:10128C0018BF31F0004CCAD130F000427FF45CAF93
:10129C0031F000437FF43CAF5FE700BF42000ED259
:1012AC00B2F1FE4F0BD34FF09E03B3EB126209D495
:1012BC004FEA002343F0004323FA02F070474FF04B
:1012CC000000704712F1610F01D1420202D14FF0C0
:1012DC00FF3070474FF00000704700BF00230146FD
:1012EC001A46184600F09CB808B50021044600F0D8
:1012FC00C9F8044B1868C36B03B19847204600F03B
:10130C0019F900BF2816000838B5084B084D5B1BAF
:10131C009C1007D0043B1D44013C55F804399847F8
:10132C00002CF9D1BDE8384000F03EB96416000835
:10133C006016000870B50D4E0D4D761BB61006D01C
:10134C00002455F8043B01349847A642F9D1094EC4
:10135C00094D00F023F9761BB61006D0002455F881
:10136C00043B01349847A642F9D170BD58160008C9
:10137C00581600086016000858160008830730B588
:10138C0048D0541E002A3FD00346CAB201E0013CAB
:10139C003AD303F8012B9D07F9D1032C2DD9CDB2EB
:1013AC0045EA05250F2C45EA054536D9A4F110026E
:1013BC0022F00F0C03F1200EE6444FEA121C03F14D
:1013CC00100242E9045542E9025510327245F8D137
:1013DC000CF1010214F00C0F03EB021204F00F0CD1
:1013EC0013D0ACF1040323F003030433134442F889
:1013FC00045B9342FBD10CF003042CB1CAB21C4425
:10140C0003F8012B9C42FBD130BD64461346002CE3
:10141C00F4D1F9E703461446BFE71A46A446E0E7C1
:10142C0070B5174C2568D5F84841DCB165681F2D9F
:10143C0023DC80B14FF0010C04EB850ECEF8882034
:10144C00D4F888610CFA05F216430228C4F88861B6
:10145C00CEF808310BD06B1C02356360002044F8C9
:10146C00251070BD05F5A674C5F84841DEE7D4F823
:10147C008C311343C4F88C31EDE74FF0FF3070BD65
:10148C00281600082DE9F04F294B83B01F680190F6
:10149C00D7F84861B6B18B464FF001084FF0000900
:1014AC007468651E0ED4013406EB8404BBF1000F86
:1014BC000BD0D4F800315B4507D0013D6B1CA4F177
:1014CC000404F3D103B0BDE8F08F73682268013BCC
:1014DC00AB420CBF7560C4F80090002AEDD0D6F872
:1014EC00880108FA05F10142D6F804A00BD1904707
:1014FC007268524512D1D7F84831B342DDD01E463E
:10150C00002ECDD1DEE7D6F88C0101420BD1D4F8F8
:10151C0080100198904772685245ECD0D7F848611A
:10152C00002EBDD1CEE7D4F880009047E0E700BF95
:10153C0028160008FEE700BF002103E00B4B5B58A8
:10154C00435004310A480B4B42189A42F6D30A4ACC
:10155C0002E0002342F8043B084B9A42F9D3FEF711
:10156C0031FFFFF7E7FEFEF7D3FF70476416000864
:10157C000000002060040020600400207C04002097
:10158C00FEE70000024B13B10248FFF7A7BE7047FD
:10159C00000000001513000800000000F8B500BFA3
:1015AC00F8BC08BC9E467047F8B500BFF8BC08BC38
:0415BC009E46704790
:1015C0003A3D0A3D0F3D243D323D023D053D133D70
:1015D0000D3D0C3D233D113D263D013D173D083D90
:1015E000093D0000000000000000000001020304AB
:1015F000060708090000000001020304456E746537
:101600007220416E79204469676974203A000000B5
:10161000000C01400108090A0B0C0D0E0F00000020
:101620000001020304050607380000203A3D0A3D88
:101630000F3D243D323D023D053D133D0D3D0C3D2A
:10164000233D113D263D013D173D083D093D00006C
:0816500044EBFF7F01000000E4
:0816580091150008750100085E
:041660004D01000830
:101664000000000000A24A043F065B4F666D7D0740
:101674007F6F00003738392F3435362A3132332D15
:101684004F303D2B04050607000102030000000053
:1016940038000020000000000000000024030020A7
:1016A4008C030020F4030020000000000000000070
:1016B4000000000000000000000000000000000026
:1016C4000000000000000000000000000000000016
:1016D4000000000000000000000000000000000006
:1016E40000000000000000000000000000000000F6
:1016F40000000000000000000000000000000000E6
:1017040000000000000000000000000000000000D5
:1017140000000000000000000000000000000000C5
:1017240000000000000000000000000000000000B5
:1017340000000000000000000000000000000000A5
:1017440001000000000000000E33CDAB34126DE642
:10175400ECDE05000B0000000000000000000000AB
:101764000000000000000000000000000000000075
:101774000000000000000000000000000000000065
:101784000000000000000000000000000000000055
:101794000000000000000000000000000000000045
:040000050800154595
:00000001FF
