:1000000029C000000C94C6080C9403090C94400904
:10001000F6C400009CC400002FC000002DC00000EA
:100020002BC0000029C0000053C40000F3C300002F
:1000300025C5000045C600001FC000001DC000000F
:100040007FC6000019C0000017C0000015C00000E6
:1000500013C0000011241FBECFE5D8E0DEBFCDBF26
:1000600020E0A0E6B0E001C01D92AC37B207E1F796
:100070000E947D090C940B0AC3CF0F93CF93DF939B
:1000800000D000D01F92CDB7DEB789836A834B833F
:100090002C830D838981882F90E082309105E9F1CE
:1000A000833091051CF4019741F05DC083309105C8
:1000B000E1F0049709F444C056C083E590E023E5DD
:1000C00030E0F90120812F7BFC01208383E590E063
:1000D00023E530E0F9012081277FFC0120838CE5B6
:1000E00090E02A81FC01208350C083E590E023E565
:1000F00030E0F90120812F7BFC01208383E590E033
:1001000023E530E0F90120812860FC0120838CE5A3
:1001100090E02A81FC01208338C083E590E023E54C
:1001200030E0F90120812064FC01208383E590E028
:1001300023E530E0F9012081277FFC01208325C0E1
:1001400083E590E023E530E0F90120812064FC01A3
:10015000208383E590E023E530E0F90120812860E9
:10016000FC01208312C083E590E023E530E0F90133
:1001700020812F7BFC01208383E590E023E530E0A4
:10018000F9012081277FFC0120838B81882F90E05B
:100190008230910519F0039759F014C089E590E079
:1001A00029E530E0F90120812260FC01208313C0A1
:1001B00089E590E029E530E0F90120812D7FFC01FF
:1001C000208309C089E590E029E530E0F90120812C
:1001D0002260FC0120838C81882F90E0009719F029
:1001E000019759F014C089E590E029E530E0F90164
:1001F00020812160FC01208313C089E590E029E57E
:1002000030E0F90120812E7FFC01208309C089E5BF
:1002100090E029E530E0F90120812160FC01208394
:100220008981823019F08981843091F483E590E0EE
:1002300023E530E0F90120812F7EFC01208383E556
:1002400090E023E530E0F90120812062FC01208369
:100250008D81882F90E08330910509F448C0843067
:1002600091052CF4009759F0019729F194C085303D
:10027000910509F458C0069709F471C08CC083E554
:1002800090E023E530E0F90120812160FC0120832A
:1002900083E590E023E530E0F90120812D7FFC012A
:1002A000208383E590E023E530E0F90120812B7F76
:1002B000FC0120838BC083E590E023E530E0F90169
:1002C00020812E7FFC01208383E590E023E530E050
:1002D000F90120812260FC01208383E590E023E581
:1002E00030E0F90120812B7FFC0120836FC083E582
:1002F00090E023E530E0F90120812160FC012083BA
:1003000083E590E023E530E0F90120812260FC01E3
:10031000208383E590E023E530E0F90120812B7F05
:10032000FC01208353C083E590E023E530E0F90130
:1003300020812E7FFC01208383E590E023E530E0DF
:10034000F90120812D7FFC01208383E590E023E5E6
:1003500030E0F90120812460FC01208337C083E56F
:1003600090E023E530E0F90120812160FC01208349
:1003700083E590E023E530E0F90120812D7FFC0149
:10038000208383E590E023E530E0F90120812460BB
:10039000FC0120831BC083E590E023E530E0F901F8
:1003A00020812E7FFC01208383E590E023E530E06F
:1003B000F90120812D7FFC01208383E590E023E576
:1003C00030E0F90120812B7FFC01208300000F9099
:1003D0000F900F900F900F90DF91CF910F91089594
:1003E0000F93CF93DF9300D000D01F92CDB7DEB72D
:1003F00089836A834B832C830D838981882F90E0C6
:1004000082309105E9F1833091051CF4019741F0A8
:100410005DC083309105E1F0049709F444C056C0F3
:1004200085E490E025E430E0F9012081277FFC019C
:10043000208385E490E025E430E0F90120812F7BE2
:10044000FC01208383E490E02A81FC01208350C0DA
:1004500085E490E025E430E0F9012081277FFC016C
:10046000208385E490E025E430E0F90120812064D8
:10047000FC01208383E490E02A81FC01208338C0C2
:1004800085E490E025E430E0F90120812860FC015A
:10049000208385E490E025E430E0F90120812F7B82
:1004A000FC01208325C085E490E025E430E0F901DB
:1004B00020812860FC01208385E490E025E430E081
:1004C000F90120812064FC01208312C085E490E0C2
:1004D00025E430E0F9012081277FFC01208385E4B9
:1004E00090E025E430E0F90120812F7BFC0120839E
:1004F0008B81882F90E08230910519F0039759F095
:1005000014C089E590E029E530E0F90120812068F8
:10051000FC01208313C089E590E029E530E0F90172
:1005200020812F77FC01208309C089E590E029E52F
:1005300030E0F90120812F77FC0120838C81882F06
:1005400090E0009719F0019759F014C089E590E008
:1005500029E530E0F90120812064FC01208313C0EB
:1005600089E590E029E530E0F90120812F7BFC014D
:10057000208309C089E590E029E530E0F901208178
:100580002F7BFC0120838981823019F0898184309E
:1005900091F483E590E023E530E0F90120812F7E9E
:1005A000FC01208383E590E023E530E0F901208120
:1005B0002062FC0120838D81882F90E0823091059C
:1005C00009F44CC0833091052CF4009779F0019721
:1005D00049F1B4C08530910509F478C086309105A1
:1005E00009F490C0039709F455C0A8C085E490E0D1
:1005F00025E430E0F90120812B7FFC01208385E494
:1006000090E025E430E0F90120812D7FFC0120837A
:1006100085E490E025E430E0F90120812160FC01CF
:100620002083A7C085E490E025E430E0F901208133
:100630002B7FFC01208385E490E025E430E0F90184
:1006400020812260FC01208385E490E025E430E0F5
:10065000F90120812E7FFC0120838BC085E490E08E
:1006600025E430E0F90120812B7FFC01208385E423
:1006700090E025E430E0F90120812260FC01208334
:1006800085E490E025E430E0F90120812160FC015F
:1006900020836FC085E490E025E430E0F9012081FB
:1006A0002460FC01208385E490E025E430E0F9013A
:1006B00020812D7FFC01208385E490E025E430E05B
:1006C000F90120812E7FFC01208353C085E490E056
:1006D00025E430E0F90120812460FC01208385E4D9
:1006E00090E025E430E0F90120812260FC012083C4
:1006F00085E490E025E430E0F90120812E7FFC01C3
:10070000208337C085E490E025E430E0F9012081C2
:100710002460FC01208385E490E025E430E0F901C9
:1007200020812260FC01208385E490E025E430E014
:10073000F90120812160FC0120831BC085E490E049
:1007400025E430E0F90120812B7FFC01208385E442
:1007500090E025E430E0F90120812D7FFC01208329
:1007600085E490E025E430E0F90120812E7FFC0152
:10077000208300000F900F900F900F900F90DF914B
:10078000CF910F910895CF93DF9300D01F92CDB7F3
:10079000DEB78A836B838B81282F30E040E050E006
:1007A0008FEF90E0DC011ED6DC01CB0124E630E0C7
:1007B00040E050E0BC01CD01F3D5DA01C9018983E5
:1007C0008A81882F90E08130910561F08230910517
:1007D000A1F0892B09F017C08CE590E02981FC017C
:1007E000208311C08AE490E02981FC01208388E401
:1007F00090E02981FC01208306C083E490E02981F8
:10080000FC012083000000000F900F900F90DF91FB
:10081000CF9108951F920F9200905F000F921124C4
:100820000F932F933F934F935F936F937F938F9388
:100830009F93AF93BF93EF93FF93CF93DF93CDB786
:10084000DEB78091740090917500A0917600B09110
:1008500077000197A109B109809374009093750006
:10086000A0937600B0937700809160009091610032
:10087000892BC1F08091740090917500A091760051
:10088000B0917700892B8A2B8B2B61F400E021E05B
:1008900043E060E081E0F1DB8091600090916100D5
:1008A000FC0109950000DF91CF91FF91EF91BF917D
:1008B000AF919F918F917F916F915F914F913F91F8
:1008C0002F910F910F9000925F000F901F9018953D
:1008D0001F920F9200905F000F9211240F932F939D
:1008E0003F934F935F936F937F938F939F93AF93B8
:1008F000BF93EF93FF93CF93DF93CDB7DEB7809194
:10090000620090916300892B61F000E021E043E0F8
:1009100060E081E0B2DB8091620090916300FC01B5
:1009200009950000DF91CF91FF91EF91BF91AF91B9
:100930009F918F917F916F915F914F913F912F91F7
:100940000F910F9000925F000F901F9018951F92CB
:100950000F9200905F000F9211240F932F933F93FB
:100960004F935F936F937F938F939F93AF93BF93B7
:10097000EF93FF93CF93DF93CDB7DEB780917800ED
:1009800090917900A0917A00B0917B000197A10924
:10099000B1098093780090937900A0937A00B09386
:1009A0007B008091640090916500892B91F080918B
:1009B000780090917900A0917A00B0917B00892B0A
:1009C0008A2B8B2B31F400E021E043E060E081E0F2
:1009D00007DD0000DF91CF91FF91EF91BF91AF91C3
:1009E0009F918F917F916F915F914F913F912F9147
:1009F0000F910F9000925F000F901F9018951F921B
:100A00000F9200905F000F9211240F932F933F934A
:100A10004F935F936F937F938F939F93AF93BF9306
:100A2000EF93FF93CF93DF93CDB7DEB7809166004E
:100A300090916700892B61F080916600909167002A
:100A4000FC01099500E021E043E060E081E0C8DCC2
:100A50000000DF91CF91FF91EF91BF91AF919F91F6
:100A60008F917F916F915F914F913F912F910F9156
:100A70000F9000925F000F901F9018951F920F9299
:100A800000905F000F9211242F933F934F935F9339
:100A90006F937F938F939F93AF93BF93EF93FF9346
:100AA000CF93DF93CDB7DEB7809168009091690056
:100AB000892B31F08091680090916900FC010995C3
:100AC0000000DF91CF91FF91EF91BF91AF919F9186
:100AD0008F917F916F915F914F913F912F910F90E7
:100AE00000925F000F901F901895CF93DF9300D076
:100AF0001F92CDB7DEB789836A834B838B818823AE
:100B000009F06CC08981882F90E08130910519F13E
:100B1000823091051CF4892B41F0CBC082309105C5
:100B200081F1039709F443C0C4C08AE390E02AE34B
:100B300030E0F9012081622F2A81422F50E021E02C
:100B400030E002C0220F331F4A95E2F7209526239A
:100B5000FC012083AEC087E390E027E330E0F90199
:100B60002081622F2A81422F50E021E030E002C034
:100B7000220F331F4A95E2F720952623FC0120839C
:100B800098C084E390E024E330E0F9012081622FF3
:100B90002A81422F50E021E030E002C0220F331FB3
:100BA0004A95E2F720952623FC01208382C081E349
:100BB00090E021E330E0F9012081622F2A81422F69
:100BC00050E021E030E002C0220F331F4A95E2F7E7
:100BD00020952623FC01208300006BC08B8181308F
:100BE00009F067C08981882F90E08130910511F16B
:100BF000823091051CF4892B41F05BC08230910555
:100C000071F1039709F440C054C08AE390E02AE3ED
:100C100030E0F9012081622F2A81422F50E021E04B
:100C200030E002C0220F331F4A95E2F7262BFC0169
:100C300020833FC087E390E027E330E0F901208183
:100C4000622F2A81422F50E021E030E002C0220FC3
:100C5000331F4A95E2F7262BFC0120832AC084E348
:100C600090E024E330E0F9012081622F2A81422FB5
:100C700050E021E030E002C0220F331F4A95E2F736
:100C8000262BFC01208315C081E390E021E330E0B6
:100C9000F9012081622F2A81422F50E021E030E0CB
:100CA00002C0220F331F4A95E2F7262BFC01208356
:100CB000000000000F900F900F90DF91CF910895EA
:100CC0001F920F9200905F000F9211242F933F9379
:100CD0004F935F936F937F938F939F93AF93BF9344
:100CE000EF93FF93CF93DF931F92CDB7DEB78CE2E4
:100CF00090E0FC018081898380916A0090916B0073
:100D0000892B41F020916A0030916B00CE01019651
:100D1000F901099500000F90DF91CF91FF91EF91BC
:100D2000BF91AF919F918F917F916F915F914F9103
:100D30003F912F910F9000925F000F901F90189598
:100D40001F920F9200905F000F9211242F933F93F8
:100D50004F935F936F937F938F939F93AF93BF93C3
:100D6000EF93FF93CF93DF9300D0CDB7DEB785E24B
:100D700090E0FC018081882F90E09A8389838091A4
:100D80006C0090916D00892B41F020916C003091A6
:100D90006D0089819A81F901099500000F900F90EB
:100DA000DF91CF91FF91EF91BF91AF919F918F9183
:100DB0007F916F915F914F913F912F910F90009292
:100DC0005F000F901F901895CF93DF9300D0CDB7A1
:100DD000DEB789836A838981882F90E0813091050D
:100DE00009F4B1C08230910509F457C1892B09F08B
:100DF000ABC18A81882F90E08A309105A9F08B30B1
:100E000091053CF4009709F47FC0019709F486C06E
:100E10008FC08C30910509F43FC08C30910504F1EE
:100E20000D9709F455C084C085E590E025E530E0D4
:100E3000F90120812D7FFC01208385E590E025E5E7
:100E400030E0F90120812E7FFC0120838BE590E0CA
:100E50002BE530E0F90120812064FC01208372C081
:100E600085E590E025E530E0F90120812160FC0175
:100E7000208385E590E025E530E0F90120812D7F94
:100E8000FC0120838BE590E02BE530E0F901208127
:100E90002064FC01208356C085E590E025E530E024
:100EA000F90120812E7FFC01208385E590E025E576
:100EB00030E0F90120812260FC0120838BE590E085
:100EC0002BE530E0F90120812064FC0120833AC049
:100ED00085E590E025E530E0F90120812260FC0104
:100EE000208385E590E025E530E0F901208121604F
:100EF000FC0120838BE590E02BE530E0F9012081B7
:100F00002064FC0120831EC08BE590E02BE530E0DF
:100F1000F90120812F7BFC01208314C08BE590E038
:100F20002BE530E0F90120812064FC0120830AC018
:100F30008BE590E02BE530E0F90120812F7BFC016F
:100F4000208300001DC18A81882F90E08A3091059E
:100F5000A9F08B3091053CF4009709F47FC001970C
:100F600009F486C08FC08C30910509F43FC08C30E5
:100F7000910504F10D9709F455C084C085E590E012
:100F800025E530E0F9012081277FFC01208385E5FC
:100F900090E025E530E0F90120812B7FFC012083E2
:100FA0008BE590E02BE530E0F90120812068FC0121
:100FB000208372C085E590E025E530E0F9012081CD
:100FC0002460FC01208385E590E025E530E0F9010F
:100FD0002081277FFC0120838BE590E02BE530E02A
:100FE000F90120812068FC01208356C085E590E04E
:100FF00025E530E0F90120812B7FFC01208385E588
:1010000090E025E530E0F90120812860FC01208393
:101010008BE590E02BE530E0F90120812068FC01B0
:1010200020833AC085E590E025E530E0F901208194
:101030002460FC01208385E590E025E530E0F9019E
:1010400020812860FC0120838BE590E02BE530E0D7
:10105000F90120812068FC0120831EC08BE590E00F
:101060002BE530E0F90120812F77FC01208314C0AB
:101070008BE590E02BE530E0F90120812068FC0150
:1010800020830AC08BE590E02BE530E0F901208158
:101090002F77FC012083000073C08A81882F90E0A5
:1010A00081309105E1F1823091051CF4892B69F1C1
:1010B00040C08C30910519F00D97A1F03AC084E53D
:1010C00090E024E530E0F90120812F7BFC012083B2
:1010D0008BE590E02BE530E0F90120812062FC01F6
:1010E000208331C084E590E024E530E0F9012081DF
:1010F0002160FC0120838BE590E02BE530E0F901D5
:1011000020812062FC0120831EC08BE590E02BE54E
:1011100030E0F90120812F7DFC01208314C08BE594
:1011200090E02BE530E0F90120812062FC01208372
:101130000AC08BE590E02BE530E0F90120812F7D9E
:10114000FC01208300001CC08BE590E02BE530E023
:10115000F90120812F7BFC0120838BE590E02BE5BA
:1011600030E0F90120812F77FC0120838BE590E0AE
:101170002BE530E0F90120812F7DFC012083000068
:1011800000000F900F90DF91CF9108951F920F9262
:1011900000905F000F9211242F933F934F935F9322
:1011A0006F937F938F939F93AF93BF93EF93FF932F
:1011B000CF93DF93CDB7DEB780916E0090916F0033
:1011C000892B61F060E080E0FFDD80916E009091FE
:1011D0006F00FC01099561E080E0F6DD0000DF9121
:1011E000CF91FF91EF91BF91AF919F918F917F919F
:1011F0006F915F914F913F912F910F9000925F00FF
:101200000F901F9018951F920F9200905F000F9201
:1012100011242F933F934F935F936F937F938F93FB
:101220009F93AF93BF93EF93FF93CF93DF93CDB78C
:10123000DEB78091700090917100892B61F060E0C1
:1012400081E0C2DD8091700090917100FC010995F0
:1012500061E081E0B9DD0000DF91CF91FF91EF9176
:10126000BF91AF919F918F917F916F915F914F91BE
:101270003F912F910F9000925F000F901F90189553
:101280001F920F9200905F000F9211242F933F93B3
:101290004F935F936F937F938F939F93AF93BF937E
:1012A000EF93FF93CF93DF93CDB7DEB780917200BA
:1012B00090917300892B61F060E082E085DD809180
:1012C000720090917300FC01099561E082E07CDD81
:1012D0000000DF91CF91FF91EF91BF91AF919F916E
:1012E0008F917F916F915F914F913F912F910F90CF
:1012F00000925F000F901F9018950F93CF93DF938C
:10130000CDB7DEB729970FB6F894DEBF0FBECDBFBD
:1013100041E063E081E0E9DB00E021E043E06FEFE2
:1013200084E00E943D00198237C0698180E02BDA99
:101330001A821B821C821D8224C01E821F82188674
:1013400019860BC08E819F81A885B9850196A11D44
:10135000B11D8E839F83A887B9878E819F81A885C1
:10136000B9858F3F9105A105B10560F38A819B8105
:10137000AC81BD810196A11DB11D8A839B83AC8385
:10138000BD838A819B81AC81BD81C297A105B105D6
:10139000A0F289818F5F89838981843630F2C3CF3F
:1013A000A1E21A2EAA1BBB1BFD010DC0AA1FBB1F69
:1013B000EE1FFF1FA217B307E407F50720F0A21BDB
:1013C000B30BE40BF50B661F771F881F991F1A9448
:1013D00069F760957095809590959B01AC01BD0172
:1013E000CF01089509D0A59F900DB49F900DA49FA3
:1013F000800D911D11240895A29FB001B39FC001DB
:10140000A39F700D811D1124911DB29F700D811D30
:0A1410001124911D0895F894FFCFF8
:00000001FF
