:1000000029C0000037C0000035C0000033C0000028
:1000100031C000002FC000002DC000002BC0000028
:1000200029C0000027C0000025C0000023C0000038
:100030000EC100009DC300001DC000001BC00000D9
:1000400019C0000017C0000015C0000013C0000058
:1000500011C0000011241FBECFE5D8E0DEBFCDBF28
:1000600020E0A0E6B0E001C01D92A436B207E1F79F
:10007000DED395C4C5CFCF93DF9300D0CDB7DEB725
:1000800089836A838981882F90E0009719F001970E
:10009000B9F028C041E065E081E010D140E066E0C1
:1000A00081E00CD141E067E081E008D18DE290E091
:1000B0002DE230E0F90120812061FC0120831CC089
:1000C00040E065E081E0FAD041E066E081E0F6D012
:1000D0008DE290E02DE230E0F90120812F7EFC01DD
:1000E00020830AC08DE290E02DE230E0F90120810A
:1000F0002F7EFC01208300008A81823051F48DE242
:1001000090E02DE230E0F90120812068FC0120839D
:1001100009C08DE290E02DE230E0F90120812F77D7
:10012000FC0120838DE290E02DE230E0F901208196
:100130002F7DFC0120838DE290E02DE230E0F9017B
:100140002081277FFC0120838DE290E02DE230E0CA
:10015000F9012081277FFC0120838EE290E02EE2CE
:1001600030E0F90120812E7FFC0120838DE290E0B8
:100170002DE230E0F90120812E7FFC0120838DE209
:1001800090E02DE230E0F90120812D7FFC012083F9
:100190008DE290E02DE230E0F90120812064FC0145
:1001A000208300000F900F90DF91CF910895CF939F
:1001B000DF9300D000D0CDB7DEB78A837C836B831A
:1001C00081E189838A818A30E1F48FE290E02B819A
:1001D0003C81F9012081FC01208300008EE290E047
:1001E000FC018081881F8827881F882F90E08170FC
:1001F0009927892B99F38FE290E0FC018081898314
:100200001EC08A818A30D9F48FE290E02981FC01F6
:10021000208300008EE290E0FC018081881F882707
:10022000881F882F90E081709927892B99F38FE29E
:1002300090E0FC0120818B819C81FC0120830000E7
:100240000F900F900F900F90DF91CF9108951F9214
:100250000F9200905F000F9211242F933F934F93C2
:100260005F936F937F938F939F93AF93BF93EF931E
:10027000FF93CF93DF93CDB7DEB78091600090916D
:100280006100892B31F08091600090916100FC0148
:1002900009950000DF91CF91FF91EF91BF91AF9150
:1002A0009F918F917F916F915F914F913F912F918E
:1002B0000F9000925F000F901F901895CF93DF93DF
:1002C00000D01F92CDB7DEB789836A834B838B81C1
:1002D000882309F06CC08981882F90E081309105D6
:1002E00019F1823091051CF4892B41F0CBC082308A
:1002F000910581F1039709F443C0C4C08AE390E0FB
:100300002AE330E0F9012081622F2A81422F50E058
:1003100021E030E002C0220F331F4A95E2F720951A
:100320002623FC012083AEC087E390E027E330E082
:10033000F9012081622F2A81422F50E021E030E034
:1003400002C0220F331F4A95E2F720952623FC01B5
:10035000208398C084E390E024E330E0F901208119
:10036000622F2A81422F50E021E030E002C0220FAC
:10037000331F4A95E2F720952623FC01208382C093
:1003800081E390E021E330E0F9012081622F2A81AE
:10039000422F50E021E030E002C0220F331F4A9587
:1003A000E2F720952623FC01208300006BC08B819F
:1003B000813009F067C08981882F90E081309105F4
:1003C00011F1823091051CF4892B41F05BC0823021
:1003D000910571F1039709F440C054C08AE390E09D
:1003E0002AE330E0F9012081622F2A81422F50E078
:1003F00021E030E002C0220F331F4A95E2F7262B9E
:10040000FC0120833FC087E390E027E330E0F9015F
:100410002081622F2A81422F50E021E030E002C08B
:10042000220F331F4A95E2F7262BFC0120832AC0B6
:1004300084E390E024E330E0F9012081622F2A81F7
:10044000422F50E021E030E002C0220F331F4A95D6
:10045000E2F7262BFC01208315C081E390E021E325
:1004600030E0F9012081622F2A81422F50E021E003
:1004700030E002C0220F331F4A95E2F7262BFC0121
:100480002083000000000F900F900F90DF91CF911C
:100490000895CF93DF9300D01F92CDB7DEB7898345
:1004A0006A834B838B81813009F068C08981882FF2
:1004B00090E08130910511F1823091051CF4892B77
:1004C00041F0CBC08230910571F1039709F440C02F
:1004D000C4C08BE390E02BE330E0F9012081622F70
:1004E0002A81422F50E021E030E002C0220F331F6A
:1004F0004A95E2F7262BFC012083AFC088E390E009
:1005000028E330E0F9012081622F2A81422F50E058
:1005100021E030E002C0220F331F4A95E2F7262B7C
:10052000FC0120839AC085E390E025E330E0F901E7
:100530002081622F2A81422F50E021E030E002C06A
:10054000220F331F4A95E2F7262BFC01208385C03A
:1005500082E390E022E330E0F9012081622F2A81DA
:10056000422F50E021E030E002C0220F331F4A95B5
:10057000E2F7262BFC01208300006FC08B818823CB
:1005800009F06BC08981882F90E08130910519F1C5
:10059000823091051CF4892B41F05FC082309105B7
:1005A00081F1039709F443C058C08BE390E02BE33B
:1005B00030E0F9012081622F2A81422F50E021E0B2
:1005C00030E002C0220F331F4A95E2F72095262320
:1005D000FC01208342C088E390E028E330E0F90189
:1005E0002081622F2A81422F50E021E030E002C0BA
:1005F000220F331F4A95E2F720952623FC01208322
:100600002CC085E390E025E330E0F9012081622FE2
:100610002A81422F50E021E030E002C0220F331F38
:100620004A95E2F720952623FC01208316C082E339
:1006300090E022E330E0F9012081622F2A81422FED
:1006400050E021E030E002C0220F331F4A95E2F76C
:1006500020952623FC012083000000000F900F90BE
:100660000F90DF91CF910895CF93DF9300D0CDB756
:10067000DEB789836A838A818823B9F58981882FC7
:1006800090E081309105A9F0823091051CF4892B0E
:1006900039F068C082309105A9F00397E1F062C09B
:1006A0008AE390E0FC0180818AE390E0FC01108203
:1006B00059C087E390E0FC01808187E390E0FC0172
:1006C000108250C084E390E0FC01808184E390E0DC
:1006D000FC01108247C081E390E0FC01808181E34E
:1006E00090E0FC01108200003DC08A818130D1F58C
:1006F0008981882F90E081309105B1F08230910599
:100700001CF4892B39F02EC082309105B9F0039783
:10071000F9F028C08AE390E0FC0180818AE390E050
:100720002FEFFC0120831EC087E390E0FC01808155
:1007300087E390E02FEFFC01208314C084E390E076
:10074000FC01808184E390E02FEFFC0120830AC04C
:1007500081E390E0FC01808181E390E02FEFFC01D8
:100760002083000000000F900F90DF91CF9108953B
:100770001F920F9200905F000F9211242F933F93CE
:100780004F935F936F937F938F939F93AF93BF9399
:10079000EF93FF93CF93DF931F92CDB7DEB78CE239
:1007A00090E0FC01808189838091620090916300D8
:1007B000892B41F02091620030916300CE010196B7
:1007C000F901099500000F90DF91CF91FF91EF9112
:1007D000BF91AF919F918F917F916F915F914F9159
:1007E0003F912F910F9000925F000F901F901895EE
:1007F000CF93DF9300D0CDB7DEB789836A8340E023
:1008000064E081E046DECE010196BC018AE0CFDCE7
:10081000CE010296BC018AE0CADC41E064E081E0DE
:1008200038DE00000F900F90DF91CF910895CF93A5
:10083000DF93CDB7DEB761970FB6F894DEBF0FBE7A
:10084000CDBF63E080E017DC41E064E081E036DDAD
:1008500041E064E081E01DDE61E082E005DF61E00F
:100860008CE0C6DF6FEF89E0C3DF6FE08AE0C0DFB6
:1008700067E08BE0BDDF19821A821B821C8270C088
:1008800089819A81AB81BC818D839E83AF83B88738
:1008900081E0898730C08D819E81AF81B8858F705E
:1008A0009927AA27BB270A97A105B10560F089817E
:1008B0009A81AB81BC810596A11DB11D89839A8364
:1008C000AB83BC831BC08D818F70682F898590DFBF
:1008D0008D819E81AF81B885689413F8B695A795F0
:1008E000979587951694D1F78D839E83AF83B887AC
:1008F00089858F5F89878985893068F21A861B868A
:100900001C861D8624C01E861F86188A198A0BC065
:100910008E859F85A889B9890196A11DB11D8E87F5
:100920009F87A88BB98B8E859F85A889B9898F3FB2
:100930009105A105B10560F38A859B85AC85BD85D0
:100940000196A11DB11D8A879B87AC87BD878A85CB
:100950009B85AC85BD85843F9140A105B10598F28A
:1009600089819A81AB81BC810196A11DB11D8983CA
:100970009A83AB83BC8389819A81AB81BC81892BAB
:100980008A2B8B2B09F07CCF80E090E061960FB62C
:10099000F894DEBF0FBECDBFDF91CF910895F894DC
:0209A000FFCF87
:00000001FF
