:020000040800F2
:10000000EC030020C1010008C1010008C101000883
:10001000C1010008C1010008C10100080000000082
:10002000000000000000000000000000C101000806
:10003000C101000800000000C1010008C101000862
:10004000C1010008C1010008C1010008C101000888
:10005000C1010008C10100089D0100080000000066
:100060000000000000000000000000000000000090
:100070000000000000000000000000000000000080
:100080000000000000000000000000000000000070
:100090000000000000000000000000000000000060
:1000A0000000000000000000000000000000000050
:1000B0000000000000000000000000000000000040
:1000C000000000000000000080B483B000AF0346D1
:1000D000FB71FB79032B12D0032B16DC002B02D013
:1000E000012B06D011E00C4A136843F0040313609F
:1000F0000CE0094A136843F00803136006E0064A5F
:10010000136843F00103136000E000BF00BF0C3729
:10011000BD4680BC704700BF1810024080B483B059
:1001200000AF0346FB71114B1B68FA79012101FAFC
:1001300002F211460D4A0B4313600D4B1B68FA790E
:10014000012101FA02F21146094A0B431360094BDF
:100150001B68FA79012101FA02F21146054A0B43A4
:10016000136000BF0C37BD4680BC704700040140DF
:10017000080401400C04014080B483B000AF7860F3
:100180007B68002B02D0044A7B68136000BF0C37E9
:10019000BD4680BC704700BF0000002080B500AFA6
:1001A000054B1B689847054B1B68044A43F0010345
:1001B000136000BF80BD00BF000000201404014098
:1001C00080B584B000AF154A154BD31AFB60154BB0
:1001D000BB60134B7B6007E0BA68531CBB607B6855
:1001E000591C796012781A70FB685A1EFA60002B4D
:1001F000F2D10D4A0D4BD31AFB600C4B7B6004E02F
:100200007B685A1C7A60FF221A70FB685A1EFA60DB
:10021000002BF5D100F00CF8FCE700BF0000002037
:10022000000000204C030008040000200000002013
:1002300080B584B000AF0020FFF746FF0120FFF734
:1002400043FF3B4A1368042161F307131360394AE3
:100250001368042161F317531360374A13680121AF
:1002600061F307131360354A1368012161F31753D3
:100270001360334A136843F002031360304A136873
:1002800043F4005313602F4B1B685B0803F001031A
:10029000002B44D12A4A13686FF3410313600023F3
:1002A000FB6002E0FB680133FB60FB68264A934277
:1002B000F8DD234A136843F0020313600023BB6098
:1002C00002E0BB680133BB60BB681F4A9342F8DDA4
:1002D00000BF1C4B1B685B0803F00103002BF8D028
:1002E0001DE0174A13686FF34D33136000237B60E2
:1002F00002E07B6801337B607B68134A9342F8DD40
:100300000F4A136843F40053136000233B6002E07C
:100310003B6801333B603B680B4A9342F8DD094B75
:100320001B685B0B03F00103002BDAD1ABE700BFC6
:100330000008014004080140000C0140040C014089
:0C0340000C0C0140080801409F860100E1
:04000005080001C12D
:00000001FF
