:020000040800F2
:10000000EC030020A9010008A9010008A9010008CB
:10001000A9010008A9010008A901000800000000CA
:10002000000000000000000000000000A90100081E
:10003000A901000800000000A9010008A9010008AA
:10004000A9010008A9010008A9010008A9010008E8
:10005000A9010008A90100088501000800000000AE
:100060000000000000000000000000000000000090
:100070000000000000000000000000000000000080
:100080000000000000000000000000000000000070
:100090000000000000000000000000000000000060
:1000A0000000000000000000000000000000000050
:1000B0000000000000000000000000000000000040
:1000C000000000000000000080B483B000AF0346D1
:1000D000FB71FB79002B02D0032B06D00BE0084A02
:1000E000136843F00403136005E0054A136843F006
:1000F0000103136000BF00BF0C37BD4680BC7047D2
:100100001810024080B483B000AF0346FB71114B5E
:100110001B68FA79012101FA02F211460D4A0B43DC
:1001200013600D4B1B68FA79012101FA02F21146A6
:10013000094A0B431360094B1B68FA79012101FA44
:1001400002F21146054A0B43136000BF0C37BD464F
:1001500080BC704700040140080401400C040140C9
:1001600080B483B000AF78607B68002B02D0044A73
:100170007B68136000BF0C37BD4680BC704700BF72
:100180000000002080B500AF054B1B689847054B69
:100190001B68044A43F00103136000BF80BD00BF29
:1001A000000000201404014080B584B000AF154A5F
:1001B000154BD31AFB60154BBB60134B7B6007E0FC
:1001C000BA68531CBB607B68591C796012781A703E
:1001D000FB685A1EFA60002BF2D10D4A0D4BD31A60
:1001E000FB600C4B7B6004E07B685A1C7A60FF224A
:1001F0001A70FB685A1EFA60002BF5D100F01AF84D
:10020000FCE700BF00000020000000209C02000866
:10021000040000200000002080B400AF044B1B68E5
:10022000034A83F40053136000BFBD4680BC70478F
:100230000C08014080B500AF0320FFF745FF002008
:10024000FFF742FF104B1B680F4A23F47003136043
:100250000D4B1B680C4A43F4001313600B4B1B68D7
:100260000A4A43F004031360094B00221A60094B49
:100270001B68084A43F0400313600020FFF742FF69
:100280000548FFF76DFFFEE7040801400008014044
:0C0290000808014000E100E0190200082D
:04000005080001A945
:00000001FF
