:020000040800F2
:1000000000500020FD440008F52D0008FB2D0008DD
:10001000012E0008072E00080D2E00080000000029
:10002000000000000000000000000000132E000887
:100030004545000800000000752A0008312A000824
:100040004545000845450008454500084545000868
:100050004545000845450008F91100081912000837
:1000600039120008591200087912000845450008A5
:100070004545000845450008454500084545000838
:100080004545000845450008454500084545000828
:1000900045450008454500084545000899120008F7
:1000A0004545000845450008454500084545000808
:1000B00045450008454500084545000845450008F8
:1000C0004545000845450008454500082918000831
:1000D0003D180008F11C0008E91D0008E11E000899
:1000E0004113000845450008454500080000000090
:1000F0000000000000000000000000000000000000
:0C01000000000000000000005FF808F1A3
:10010C000348044B834202D0034B03B1184770479A
:10011C00680400206804002000000000054806491F
:10012C000B1AD90F01EBA301491002D0034B03B1F9
:10013C001847704768040020680400200000000085
:10014C0010B5064C237843B9FFF7DAFF044B13B113
:10015C000448AFF300800123237010BD6804002015
:10016C00000000005C45000808B5044B1BB10449B5
:10017C000448AFF30080BDE80840CFE70000000062
:10018C006C0400205C450008A3F5803A704700BF62
:10019C00154B002B08BF114B9D46FFF7F5FF0021B7
:1001AC008B460F461148124A121A04F0C3F80C4B36
:1001BC00002B00D098470B4B002B00D09847002009
:1001CC00002104000D000B4804F064F804F08EF8D4
:1001DC002000290002F08AFE04F062F800000800FA
:1001EC000000000000000000000000006804002077
:1001FC00E8050020CD42000890B482B000AF034661
:10020C000A46FB711346BB71BB79012B13D1164AFD
:10021C00FB795B09D8B2034652F82330FA7902F025
:10022C001F02012101FA02F214460F4A0146234330
:10023C0042F8213013E00C4AFB795B09D8B2034633
:10024C00203352F82330FA7902F01F02012101FA0F
:10025C0002F205491A4300F1200341F8232000BFA4
:10026C000837BD4690BC704700E100E02DE9F04F27
:10027C0099B000AF964A4FF00003C7E91623954B8F
:10028C00DB6A1B0903F00F030133002218461146E9
:10029C0002460B46D7E9160103F078FE02460B46E0
:1002AC00C7E916238B4BDB6A1B0A03F00F03073BD2
:1002BC00082B00F2048101A252F823F0ED02000891
:1002CC001B0300085B030008A5030008E9030008F2
:1002DC002B040008CB040008650400087F04000808
:1002EC00D7E9164522462B464FF000004FF000018F
:1002FC00D90041EA5271D00002460B4611193965FA
:10030C006B417B65D7E91434C7E91634D8E0D7E9DB
:10031C00164522462B464FF000004FF00001990085
:10032C0041EA9271900002460B461119B9646B4177
:10033C00FB64D7E912120B46DB183B64134642EB05
:10034C0003037B64D7E91034C7E91634B8E0D7E966
:10035C00160102460B469418BC635B41FB63D7E95C
:10036C000E2312EB000A43EB010B4FF000024FF08F
:10037C0000034FEA8B0343EA9A734FEA8A029246D0
:10038C009B46BAEB00033B636BEB01037B63D7E942
:10039C000C34C7E9163493E0D7E9160102460B4634
:1003AC009418BC625B41FB62D7E90A2314183C62C7
:1003BC004B417B624FF000024FF00003D7E9084538
:1003CC0029468B0020462946044643EA947301468D
:1003DC008A001C461346C7E9163471E0D7E91601AA
:1003EC0002460B469618BE615B41FB61D7E90623BA
:1003FC00141843EB01054FF000024FF00003AB0063
:10040C0043EA9473A20014461D4623183B6145EB46
:10041C0001037B61D7E90434C7E9163450E0D7E90E
:10042C00164522462B464FF000004FF00001D90034
:10043C0041EA5271D00002460B46B2EB040863EB62
:10044C00050918EB0803BB6049EB0903FB60D7E90E
:10045C000289C7E9168933E0D7E916014FF000028B
:10046C004FF000030B0143EA10730201C7E9162396
:10047C0026E0D7E9164522462B464FF000004FF0F8
:10048C000001990041EA9271900002460B46111945
:10049C0039606B417B604FF000024FF00003D7E9ED
:1004AC00004529468B0020462946044643EA9473AE
:1004BC0001468A001C461346C7E9163400E000BF0B
:1004CC00D7E91623104619466437BD46BDE8F08FB0
:1004DC00001BB700001002402DE9F04F8DB000AFAB
:1004EC004FF000024FF00003C7E90A23794B5B6819
:1004FC00C3F30043DBB2002B23D0764BDB6AC3F390
:10050C000043DBB2002B04D0FFF7B0FEC7E90A01B1
:10051C0004E0714A4FF00003C7E90A236D4BDB6A14
:10052C0003F00F03013300223B627A62D7E9082300
:10053C00D7E90A0103F02AFD02460B46C7E90A2354
:10054C0004E0664A4FF00003C7E90A23614B5B687D
:10055C009B0C03F00F03023B0B2B00F2B18001A2AA
:10056C0052F823F0A1050008BB050008E9050008B6
:10057C00170600084706000861060008CD060008AB
:10058C00CD060008CD060008CD060008CD060008F3
:10059C008B060008D7E90A014FF000024FF0000368
:1005AC008B0043EA90738200C7E90A2389E0D7E9FC
:1005BC000A4522462B464FF000004FF000019900EF
:1005CC0041EA9271900002460B461119B9616B41D8
:1005DC00FB61D7E90634C7E90A3472E0D7E90A01AE
:1005EC0002460B4696183E615B417B61D7E90423BA
:1005FC00141843EB01052319BB6045EB0503FB60A5
:10060C00D7E90245C7E90A455BE0D7E90A45224626
:10061C002B464FF000004FF00001D90041EA527117
:10062C00D00002460B46111B396063EB05037B605F
:10063C00D7E90034C7E90A3443E0D7E90A014FF09F
:10064C0000024FF00003CB0043EA5073C200C7E92D
:10065C000A2336E0D7E90A4522462B464FF0000024
:10066C004FF00001D90041EA5271D00002460B460E
:10067C0012EB040A43EB050BC7E90AAB21E0D7E9FF
:10068C000A4522462B464FF000004FF0000199011D
:10069C0041EA9261900102460B4612EB040843EBCF
:1006AC000509C7E90A89D7E90A014FF00A024FF098
:1006BC00000303F06BFC02460B46C7E90A2300E07B
:1006CC0000BFD7E90A23104619463437BD46BDE8AA
:1006DC00F08F00BF00100240001BB70000093D0066
:1006EC0080B483B000AF03460A46FB711346BB715E
:1006FC00BB79012B32D1FB795B09DBB2022B20D009
:10070C00022B61DC002B02D0012B0DD05CE0324BB4
:10071C005B69FA7902F01F02012101FA02F211461B
:10072C002D4A0B43536152E02B4B9B69FA7902F033
:10073C001F02012101FA02F21146274A0B43936171
:10074C0045E0254BDB69FA7902F01F02012101FA21
:10075C0002F21146204A0B43D36138E0FB795B0966
:10076C00DBB2022B22D0022B30DC002B02D0012B6F
:10077C000ED02BE0184B5B69FA7902F01F020121B5
:10078C0001FA02F2D2431146134A0B4053611EE0A8
:10079C00114B9B69FA7902F01F02012101FA02F256
:1007AC00D24311460C4A0B40936110E00A4BDB69B3
:1007BC00FA7902F01F02012101FA02F2D24311462A
:1007CC00054A0B40D36102E000BF00E000BF00BF50
:1007DC000C37BD4680BC70470010024080B582B01B
:1007EC0000AF4FF000024FF00003C7E90023134B9A
:1007FC005B6803F00303022B12D0022B15D8002BDD
:10080C0002D0012B06D010E00D4A4FF00003C7E9CF
:10081C0000230BE00B4A4FF00003C7E9002305E06F
:10082C00FFF75AFEC7E9000100E000BFD7E900233B
:10083C00104619460837BD4680BD00BF0010024067
:10084C0000127A00001BB700F0B583B000AFFFF7C1
:10085C00C5FFC7E90001134B5B68C3F3C013DBB2E0
:10086C00002B17D00F4B5B681B0903F00703591CB7
:10087C00D7E90023C1F12006A1F1200022FA01F4EE
:10088C0003FA06F6344323FA00F0044323FA01F585
:10089C00C7E90045D7E90023104619460C37BD4679
:1008AC00F0BD00BF00100240F0B583B000AFFFF701
:1008BC00CBFFC7E90001134B5B68C3F38023DBB2AA
:1008CC00002B17D00F4B5B681B0A03F00303591C5A
:1008DC00D7E90023C1F12006A1F1200022FA01F48E
:1008EC0003FA06F6344323FA00F0044323FA01F525
:1008FC00C7E90045D7E90023104619460C37BD4619
:10090C00F0BD00BF00100240F0B583B000AFFFF7A0
:10091C009BFFC7E90001134B5B68C3F34033DBB2A9
:10092C00002B17D00F4B5B68DB0A03F00303591C39
:10093C00D7E90023C1F12006A1F1200022FA01F42D
:10094C0003FA06F6344323FA00F0044323FA01F5C4
:10095C00C7E90045D7E90023104619460C37BD46B8
:10096C00F0BD00BF001002402DE9904389B000AFEC
:10097C0078604C4A07F10C03126811461980023357
:10098C00120C1A700623FB760723BB76FFF78CFF3D
:10099C00454A4FF0000303F0F9FA02460B46C7E94B
:1009AC0004237B681B79002B0AD1404BFB61062387
:1009BC00FB760723BB7601215520FFF791FE09E05A
:1009CC003B4BFB610A23FB760B23BB7601215620A4
:1009DC00FFF786FEFB7E3B73F968012000F04EF9B1
:1009EC00BB7E3B73F968012000F048F9FB695B683A
:1009FC0023F03F023B691A43FB695A60FB69DB69D0
:100A0C0023F47F6424F00F047B68B3F805309BB2A9
:100A1C009BB2002298469146D7E904234FF47A7092
:100A2C004FF0000103F0B2FA02460B46404649462D
:100A3C0003F0ACFA02460B46134644EA0302FB6988
:100A4C00DA61FA69D3696FF3CF33D361FB691B6A3F
:100A5C0023F03F023B6901331A43FB691A62FA69BE
:100A6C0093686FF3CF339360FB699B6823F0FE02AE
:100A7C007B685B7A5B001A43FB699A60FA691368BE
:100A8C0043F480631360FA6913686FF3C713136040
:100A9C00FA69136843F00103136000BF2437BD46A5
:100AAC00BDE890839C45000840420F000054004074
:100ABC000058004080B487B000AFF8607A601A46E6
:100ACC000B46FB721346BB72FB681B79002B01D1E2
:100ADC003B4B00E03B4B7B6197F82030022B03D063
:100AEC0097F82030032B30D1374B1B78012B0ED0CD
:100AFC0097F82030022B07D100BF7B699B69C3F3A9
:100B0C004003DBB2002BF8D12F4B01221A707A690B
:100B1C00136843F48073136000BF7B695B69C3F394
:100B2C000003DBB2002BF8D0FB7A5B001A46BB7AD1
:100B3C001A437B691A6100BF7B695B69C3F340038D
:100B4C00DBB2002BF8D07B699B69BB7A002B15D1EB
:100B5C0000BF7B695B69C3F3C013DBB2002BF8D019
:100B6C007B681B781A467B691A6100BF7B695B69DD
:100B7C00C3F3C013DBB2002BF8D00CE000BF7B69D1
:100B8C005B69C3F38013DBB2002BF8D07B691B6964
:100B9C00DAB27B681A7097F82030012B03D097F8E3
:100BAC002030032B07D1084B00221A707A69136886
:100BBC0043F40073136000BF1C37BD4680BC704704
:100BCC0000540040005800408404002080B485B0DC
:100BDC0000AF03460A46FB711346BB710023FB6052
:100BEC00214AD36943F00103D361FB79032B17D856
:100BFC0001A252F823F000BF150C00081B0C0008D2
:100C0C00210C0008270C0008184BFB6008E0184B5F
:100C1C00FB6005E0174BFB6002E0174BFB6000BF6D
:100C2C00BB79012202FA03F343F48032FB689A6128
:100C3C00FA68936943F480339361FA6893696FF3AC
:100C4C0010439361FA68936943F480339361FB68B2
:100C5C009B69C3F30043FB689B69C3F3004300BF6C
:100C6C001437BD4680BC704700100240000801409C
:100C7C00000C0140001001400014014080B584B00C
:100C8C0000AF03463960FB710023FB600023BB609F
:100C9C00FB79032B26D801A252F823F0B90C0008DB
:100CAC00C70C0008D50C0008E30C00080121222019
:100CBC00FFF716FD2E4BFB6014E001212320FFF7FC
:100CCC000FFD2C4BFB600DE001212420FFF708FDEC
:100CDC00294BFB6006E001212520FFF701FD274B86
:100CEC00FB6000BF3B78072B02D8FB68BB6006E0BB
:100CFC003B78083BDBB23B70FB680433BB607B7812
:100D0C000F2B0CD1FB68DB683A78114601228A4024
:100D1C00D2431A40FB68DA6008237B700BE07B78C7
:100D2C00082B08D1FB68DB683A78114601228A400F
:100D3C001A43FB68DA60BB681A683B789B000F218A
:100D4C0001FA03F3DB431A40BB681A60BB681A68EC
:100D5C00B9787B780B43DBB219463B789B0001FAE0
:100D6C0003F31A43BB681A6000BF1037BD4680BD41
:100D7C0000080140000C014000100140001401402B
:100D8C0080B485B000AF03460A46FB711346BB71B5
:100D9C000023FB60FB79032B16D801A252F823F039
:100DAC00BD0D0008C30D0008C90D0008CF0D0008CB
:100DBC000C4BFB6008E00C4BFB6005E00B4BFB6045
:100DCC0002E00B4BFB6000BFFB689A68BB7922FA10
:100DDC0003F3DBB203F00103DBB218461437BD4654
:100DEC0080BC704700080140000C0140001001401D
:100DFC000014014080B485B000AF0346FB710B4674
:100E0C00BB7113467B710023FB60FB79032B17D856
:100E1C0001A252F823F000BF350E00083B0E00086B
:100E2C00410E0008470E0008104BFB6008E0104B09
:100E3C00FB6005E00F4BFB6002E00F4BFB6000BF5B
:100E4C007B79012B05D1BB79012202FA03F31A46F7
:100E5C0005E0BB791033012202FA03F31A46FB6852
:100E6C001A6100BF1437BD4680BC704700080140B2
:100E7C00000C0140001001400014014080B485B00A
:100E8C0000AF03460A46FB711346BB710023FB609F
:100E9C00FB79032B16D801A252F823F0B90E0008E7
:100EAC00BF0E0008C50E0008CB0E00080C4BFB60F3
:100EBC0008E00C4BFB6005E00B4BFB6002E00B4BBE
:100ECC00FB6000BFFB68DB68BA79012101FA02F212
:100EDC005A40FB68DA6000BF1437BD4680BC7047CF
:100EEC0000080140000C01400010014000140140BA
:100EFC0080B485B000AF0346FB710023FB60FB7927
:100F0C00032B17D801A252F823F000BF290F0008B9
:100F1C002F0F0008350F00083B0F0008094BFB6032
:100F2C0008E0094BFB6005E0084BFB6002E0084B56
:100F3C00FB6000BFFB689B689BB218461437BD462C
:100F4C0080BC704700080140000C014000100140BB
:100F5C000014014080B485B000AF03460A46FB7113
:100F6C001346BB800023FB60FB79032B16D801A230
:100F7C0052F823F0910F0008970F00089D0F0008FE
:100F8C00A30F0008094BFB6008E0094BFB6005E070
:100F9C00084BFB6002E0084BFB6000BFBA88FB68A3
:100FAC00DA6000BF1437BD4680BC704700080140B2
:100FBC00000C0140001001400014014080B485B0C9
:100FCC0000AF0346FB710023FB60FB79032B17D8A2
:100FDC0001A252F823F000BFF50F0008FB0F000828
:100FEC0001100008071000080A4BFB6008E00A4BD0
:100FFC00FB6005E0094BFB6002E0094BFB6000BFA6
:10100C00FB68DB68DA43FB68DA6000BF1437BD4667
:10101C0080BC704700080140000C014000100140EA
:10102C000014014090B58BB000AF3B1D83E8070066
:10103C00002387F82430042387F82530002387F811
:10104C002630664B07F114040FCB84E80F00012106
:10105C002020FFF745FB7B7987F824303B79796AB0
:10106C001846FFF70BFE5E4A7B799B08D8B2034605
:10107C00023352F823307A7902F0030292000F21E6
:10108C0001FA02F2D24356491A40831C41F823203C
:10109C00534A7B799B08D8B20346023352F823306B
:1010AC003A7911467A7902F00302920001FA02F2BF
:1010BC004B491A43831C41F82320BB79032B32D0B4
:1010CC00032B45DC012B02D0022B16D040E0454B04
:1010DC00DB687A79114601228A401146414A0B435A
:1010EC00D360404B9B687A79114601228A40D243E7
:1010FC0011463C4A0B4093602AE03A4B9B687A7944
:10110C00114601228A401146364A0B439360354BF7
:10111C00DB687A79114601228A40D2431146314A62
:10112C000B40D36014E02F4B9B687A791146012257
:10113C008A4011462B4A0B4393602A4BDB687A7921
:10114C00114601228A401146264A0B43D36000BF48
:10115C00FB79012B0AD1234B1B687A7911460122AA
:10116C008A4011461F4A0B4313600AE01D4B1B6853
:10117C007A79114601228A40D2431146194A0B4012
:10118C0013603B7A012B0AD1164B5B687A791146B6
:10119C0001228A401146134A0B4353600AE0114B5B
:1011AC005B687A79114601228A40D24311460D4A76
:1011BC000B4053607B791946D7F809300A4A42F83C
:1011CC0021307B7928333B4413F8143C0121184619
:1011DC00FFF712F800BF2C37BD4690BDA0450008A4
:1011EC0000000140000401408804002080B500AFDD
:1011FC00044B1B689847044A536943F0010353613D
:10120C0000BF80BD880400200004014080B500AF01
:10121C00044B5B689847044A536943F002035361DB
:10122C0000BF80BD880400200004014080B500AFE1
:10123C00044B9B689847044A536943F00403536179
:10124C0000BF80BD880400200004014080B500AFC1
:10125C00044BDB689847044A536943F00803536115
:10126C0000BF80BD880400200004014080B500AFA1
:10127C00044B1B699847044A536943F010035361AC
:10128C0000BF80BD880400200004014080B500AF81
:10129C00264B5B69C3F34013DBB2002B07D0244B06
:1012AC005B699847214A536943F0200353611F4BF4
:1012BC005B69C3F38013DBB2002B07D01C4B9B691B
:1012CC0098471A4A536943F040035361174B5B69C3
:1012DC00C3F3C013DBB2002B07D0154BDB69984767
:1012EC00124A536943F080035361104B5B69C3F39B
:1012FC000023DBB2002B07D00D4B1B6A98470B4A1F
:10130C00536943F480735361084B5B69C3F3402307
:10131C00DBB2002B07D0064B5B6A9847034A536934
:10132C0043F40073536100BF80BD00BF0004014053
:10133C008804002080B500AF264B5B69C3F3802383
:10134C00DBB2002B07D0244B5B699847214A5369C9
:10135C0043F4806353611F4B5B69C3F30033DBB20F
:10136C00002B07D01C4B9B6998471A4A536943F4CE
:10137C0080535361174B5B69C3F34033DBB2002BD3
:10138C0007D0154BDB699847124A536943F4005355
:10139C005361104B5B69C3F38033DBB2002B07D076
:1013AC000D4B1B6A98470B4A536943F480435361B6
:1013BC00084B5B69C3F3C033DBB2002B07D0064B81
:1013CC005B6A9847034A536943F40043536100BF77
:1013DC0080BD00BF000401408804002080B485B0AB
:1013EC0000AF786039607B681B79332B0CD0332BC2
:1013FC000DDC232B02D0242B03D008E0174BFB6011
:10140C0005E0174BFB6002E0164BFB6000BF7B68EE
:10141C00DB7A002B07D100BFFB689B68C3F340034A
:10142C00DBB2002BF8D03B681B881A46FB68DA60ED
:10143C007B68DB7A002B07D100BFFB689B68C3F38A
:10144C000003DBB2002BF8D0FB68DB689AB23B6878
:10145C001A8000BF1437BD4680BC70470030014075
:10146C0000380040003C004080B485B000AF78608C
:10147C000B467B807B681B79332B0CD0332B0DDC1C
:10148C00232B02D0242B03D008E00C4BFB6005E08F
:10149C000B4BFB6002E00B4BFB6000BF00BFFB681B
:1014AC009B68C3F34003DBB2002BF8D07A88FB684F
:1014BC00DA6000BF1437BD4680BC70470030014075
:1014CC0000380040003C004080B485B000AF78602C
:1014DC0039607B681B79332B0CD0332B0DDC232B21
:1014EC0002D0242B03D008E00D4BFB6005E00D4B24
:1014FC00FB6002E00C4BFB6000BF00BFFB689B680D
:10150C00C3F30003DBB2002BF8D0FB68DB689AB2A4
:10151C003B681A8000BF1437BD4680BC704700BFC3
:10152C000030014000380040003C004080B588B0DD
:10153C0000AF786000233B610023FB607B681B7964
:10154C00332B30D0332B43DC232B02D0242B15D060
:10155C003EE00023FB750423FB760523BB760623B4
:10156C007B7607233B767B681B68A84A1360A84BE5
:10157C00FB6101212C20FFF7B3F829E00123FB7557
:10158C000C23FB760D23BB760E237B760F233B7649
:10159C007B681B689D4A53609E4BFB6101214E206A
:1015AC00FFF79EF814E00123FB750C23FB76032355
:1015BC00BB7604237B7605233B767B681B68934ABA
:1015CC009360954BFB6101214F20FFF789F800BF19
:1015DC007B681B7B002B0BD10023BB7504237B7515
:1015EC00FB7E3B75FB7D79691846FFF747FB0EE0E8
:1015FC007B681B7B012B0AD10123BB7500237B75F8
:10160C00FB7E3B75FB7D79691846FFF737FB7B68E2
:10161C005B79012B0BD10123BB7508237B75BB7E3A
:10162C003B75FB7D79691846FFF728FB0AE0002320
:10163C00BB7504237B75BB7E3B75FB7D79691846B6
:10164C00FFF71CFB7B685B79012B0BD10023BB756F
:10165C0004237B757B7E3B75FB7D79691846FFF710
:10166C000DFB0AE00123BB7508237B757B7E3B7564
:10167C00FB7D79691846FFF701FB7B685B79012BD1
:10168C000BD10123BB7508237B753B7E3B75FB7D22
:10169C0079691846FFF7F2FA0AE00023BB750423B8
:1016AC007B753B7E3B75FB7D79691846FFF7E6FA47
:1016BC003B6943F040033B617B685B7903F00103BA
:1016CC00DAB23B6962F382033B617B689B7903F07E
:1016DC000103DAB23B6962F38A233B617B689B7935
:1016EC005B08DBB203F00103DAB23B6962F38E33C1
:1016FC003B617B689B799B08DBB203F00103DAB298
:10170C003B6962F3CF333B617B68DB7903F0010308
:10171C00DAB23B6962F3C7133B617B681B7A03F057
:10172C000103DAB23B6962F3CB233B617B685B7AE2
:10173C0003F00103DAB23B6962F300033B617B689F
:10174C005B7A5B08DBB203F00103DAB23B6962F34C
:10175C0041033B617B681B7B03F00103DAB2FB683E
:10176C0062F38203FB607B681B7B5B08DBB203F0DC
:10177C000103DAB23B6962F308233B617B681B7B94
:10178C009B08DBB203F00103DAB23B6962F3492335
:10179C003B613B6923F038027B689B7ADB00134387
:1017AC003B617B681B7901211846FEF725FD7B68A0
:1017BC00DB7A022B1AD0022B1DDC002B02D0012B62
:1017CC000FD018E0FB686FF3C713FB60FB686FF377
:1017DC008613FB607B681B7900211846FEF70CFD15
:1017EC0009E0FB6843F04003FB6004E0FB6843F056
:1017FC008003FB6000BFFB693A691A60FB69FA68F9
:10180C005A6000BF2037BD4680BD00BFC404002015
:10181C000030014000380040003C004080B500AF73
:10182C00024B1B68984700BF80BD00BFC40400205A
:10183C0080B500AF024B5B68984700BF80BD00BF0E
:10184C00C404002080B500AF024B9B68984700BFD2
:10185C0080BD00BFC404002080B582B000AF7860AA
:10186C0039603B681B789BB21946786800F090F998
:10187C003B6801333B603B681B78002BF1D100BF08
:10188C0000BF0837BD4680BD2DE9F04F8FB000AFCB
:10189C007861002387F83730B84A07F11C031268C7
:1018AC00114619800233120C1A70092387F836304E
:1018BC000A2387F835300B2387F834300C2387F84C
:1018CC0033300023FB624FF000024FF00003C7E9F6
:1018DC0008237B691B79272B3AD0272B52DC252B2D
:1018EC0002D0262B1AD04DE0002387F8373009237D
:1018FC0087F836300A2387F835300B2387F83430D5
:10190C000C2387F83330FEF7FFFFC7E908010121EC
:10191C002E20FEF7E5FE9A4BFB6233E0002387F89E
:10192C003730022387F83630032387F8353000230D
:10193C0087F83430012387F83330FEF7B5FFC7E959
:10194C00080101215120FEF7CBFE8E4BFB6219E002
:10195C00012387F837300A2387F836300B2387F8B2
:10196C0035300D2387F834300E2387F83330FEF7EB
:10197C009BFFC7E9080101215220FEF7B1FE824B03
:10198C00FB6200BF97F836303B7797F83730F96930
:10199C001846FFF773F97B69DB79002B15D097F8A4
:1019AC0033303B7797F83730F9691846FFF766F90B
:1019BC000023BB7704237B7797F834303B7797F879
:1019CC003730F9691846FFF759F997F835303B77F6
:1019DC000023BB7704237B7797F83730F9691846D7
:1019EC00FFF74CF9FA6AD36843F40053D3607B6970
:1019FC001B7A03F00103D9B2FA6AD36861F30C3392
:101A0C00D360FB6A1B6923F440527B695B7A1B032E
:101A1C001A43FB6A1A61FB6ADB6823F00C027B69D0
:101A2C009B799B001A43FB6ADA60FB6ADB6823F440
:101A3C00C0627B695B795B021A43FB6ADA607B6983
:101A4C00DB7903F00103D9B2FA6AD36861F3082396
:101A5C00D3607B69DB7903F00103D9B2FA6AD368EE
:101A6C0061F34923D360D7E9080102460B46961867
:101A7C003E605B417B60D7E90023141843EB010502
:101A8C004FF000024FF00003EB0043EA5473E20006
:101A9C0014461D4614EB000A45EB010B7B69D3F889
:101AAC000A309B000022BB60FA60D7E90223504643
:101ABC00594602F06BFA02460B46C7E90823D7E9F0
:101ACC0008014FF064024FF0000302F05FFA024687
:101ADC000B464FF000044FF000051D0145EA12754E
:101AEC001401D7E908014FF064024FF0000302F033
:101AFC004DFA4FF000004FF00001990041EA92714D
:101B0C0090004FF019024FF0000302F03FFA02462A
:101B1C000B4644EA020845EA0309C7E90889FB6A4F
:101B2C009B681B0C1B043A8C1A43FB6A9A607B69FA
:101B3C001B79253B7A691268144941F82320FA6A0B
:101B4C0013686FF3861313607B699B7B002B09D0A2
:101B5C00FB6ADB687A69927B114601228A401A4340
:101B6C00FB6ADA607B691B7901211846FEF744FB9E
:101B7C0000BF3C37BD46BDE8F08F00BFB045000844
:101B8C00003801400044004000480040D0040020D0
:101B9C0080B485B000AF78600B467B800023FB607F
:101BAC007B681B79272B0CD0272B0DDC252B02D027
:101BBC00262B03D008E0134BFB6005E0124BFB60B7
:101BCC0002E0124BFB6000BF00BFFB681B68C3F355
:101BDC00C013DBB2002BF8D07B681B7A002B02D031
:101BEC0040F2FF1200E0FF22B7F9023013401BB2A3
:101BFC007B807A88FB685A6000BF1437BD4680BC76
:101C0C00704700BF003801400044004000480040CD
:101C1C0080B485B000AF78600023FB6000237B812B
:101C2C007B681B79272B0CD0272B0DDC252B02D0A6
:101C3C00262B03D008E0284BFB6005E0274BFB600C
:101C4C0002E0274BFB6000BF00BFFB681B68C3F3BF
:101C5C004013DBB2002BF8D07B681B7A012B0AD126
:101C6C007B685B79002B06D1FB685B689BB2C3F386
:101C7C0008037B8129E07B681B7A012B09D17B68E7
:101C8C005B79002B05D0FB685B689BB2DBB27B8178
:101C9C001BE07B681B7A002B09D17B685B79002BDE
:101CAC0005D1FB685B689BB2DBB27B810DE07B6886
:101CBC001B7A002B09D17B685B79002B05D0FB6864
:101CCC005B689BB203F07F037B817B8918461437DA
:101CDC00BD4680BC704700BF003801400044004046
:101CEC000048004080B582B000AF0023FB80394B28
:101CFC00DB68C3F34013DBB2002B5AD0354BDB68E7
:101D0C00C3F30033DBB2012B0ED1324BDB685B0A21
:101D1C0003F00303002B07D12E4B5B689BB2C3F37C
:101D2C0008039BB2FB803EE02A4BDB68C3F3003315
:101D3C00DBB2012B0DD1274BDB685B0A03F00303ED
:101D4C00002B06D0234B5B689BB2DBB29BB2FB80B3
:101D5C0029E0204BDB68C3F30033DBB2002B0DD141
:101D6C001C4BDB685B0A03F00303002B06D1194BF9
:101D7C005B689BB2DBB29BB2FB8014E0154BDB685B
:101D8C00C3F30033DBB2002B0DD1124BDB685B0AC3
:101D9C0003F00303002B06D00E4B5B689BB203F0E1
:101DAC007F039BB2FB800C4B1B68BA1D10469847F7
:101DBC000BE0084BDB68C3F38013DBB2002B04D0C1
:101DCC00054B1B68BA1D1046984700BF0837BD4627
:101DDC0080BD00BF00380140D004002080B582B027
:101DEC0000AF0023FB80394BDB68C3F34013DBB23D
:101DFC00002B5AD0354BDB68C3F30033DBB2012B1D
:101E0C000ED1324BDB685B0A03F00303002B07D1C6
:101E1C002E4B5B689BB2C3F308039BB2FB803EE086
:101E2C002A4BDB68C3F30033DBB2012B0DD1274BFC
:101E3C00DB685B0A03F00303002B06D0234B5B68C3
:101E4C009BB2DBB29BB2FB8029E0204BDB68C3F377
:101E5C000033DBB2002B0DD11C4BDB685B0A03F0AB
:101E6C000303002B06D1194B5B689BB2DBB29BB210
:101E7C00FB8014E0154BDB68C3F30033DBB2002BA3
:101E8C000DD1124BDB685B0A03F00303002B06D069
:101E9C000E4B5B689BB203F07F039BB2FB800C4B39
:101EAC001B68BA1D104698470BE0084BDB68C3F360
:101EBC008013DBB2002B04D0054B1B68BA1D1046F7
:101ECC00984700BF0837BD4680BD00BF00440040A6
:101EDC00D004002080B582B000AF0023FB80394BCA
:101EEC00DB68C3F34013DBB2002B5AD0354BDB68F5
:101EFC00C3F30033DBB2012B0ED1324BDB685B0A30
:101F0C0003F00303002B07D12E4B5B689BB2C3F38A
:101F1C0008039BB2FB803EE02A4BDB68C3F3003323
:101F2C00DBB2012B0DD1274BDB685B0A03F00303FB
:101F3C00002B06D0234B5B689BB2DBB29BB2FB80C1
:101F4C0029E0204BDB68C3F30033DBB2002B0DD14F
:101F5C001C4BDB685B0A03F00303002B06D1194B07
:101F6C005B689BB2DBB29BB2FB8014E0154BDB6869
:101F7C00C3F30033DBB2002B0DD1124BDB685B0AD1
:101F8C0003F00303002B06D00E4B5B689BB203F0EF
:101F9C007F039BB2FB800C4B1B68BA1D1046984705
:101FAC000BE0084BDB68C3F38013DBB2002B04D0CF
:101FBC00054B1B68BA1D1046984700BF0837BD4635
:101FCC0080BD00BF00480040D004002080B400AFAA
:101FDC00154B1B68144A43F001031360124B5A68EB
:101FEC001149124B13404B600F4B1B680E4A23F0E8
:101FFC00847323F4803313600B4B1B680A4A23F45D
:10200C0080231360084B5B68074A23F4FE0353607C
:10201C00054B4FF41F029A60054B4FF000629A601B
:10202C0000BFBD4680BC7047001002400000FFF8A6
:10203C0000ED00E080B485B000AF0023FB6000230E
:10204C00BB6000237B602F4B5B6803F00C03FB60D1
:10205C00FB68082B11D0FB68082B3AD8FB68002BC7
:10206C0003D0FB68042B04D033E0274B274A1A60BB
:10207C0033E0254B254A1A602FE0224B5B6803F4B2
:10208C007013BB601F4B5B6803F480337B60BB68D1
:10209C009B0C0233BB607B68002B06D1BB681C4ACF
:1020AC0002FB03F3184A136017E0164B5B6803F44A
:1020BC000033002B06D0BB68154A02FB03F3124A0F
:1020CC0013600AE0BB68114A02FB03F30E4A13606B
:1020DC0003E00D4B0D4A1A6000BF0A4B5B681B09ED
:1020EC0003F00F030B4AD35CFB60074B1A68FB68C9
:1020FC0022FA03F3044A136000BF1437BD4680BCB8
:10210C00704700BF001002400400002000127A004B
:10211C0000093D00B445000880B485B000AF78607C
:10212C000023FB730023FB730DE0FB7B0F4A2A217A
:10213C0001FB03F3134420331B687A689A4209D0DD
:10214C00FB7B0133FB73094B93F8E830FA7B9A4223
:10215C00EBD300E000BFFB7B2A2202FB03F3034A14
:10216C00134418461437BD4680BC7047DC0400206D
:10217C0080B485B000AF78607B685B681A467B687A
:10218C001A607B681B681A1F7B681A607B681B6867
:10219C004FF080721A607B681B681A1F7B681A608C
:1021AC007B681A6A7B681B681A607B681B681A1F3D
:1021BC007B681A607B681B686FF002021A60002350
:1021CC00FB730BE07B681B681A1F7B681A607B68CB
:1021DC001B6800221A60FB7B0133FB73FB7B0C2B0F
:1021EC00F0D900BF00BF1437BD4680BC704780B427
:1021FC0000AF0C4A0C4BC3F8E0200B4BD3F8E0308B
:10220C00A3F58063084AC2F8E430074BD3F8E430F6
:10221C00083B1A46044BC3F8DC2000BFBD4680BC0B
:10222C00704700BF00500020DC04002080B500AFD8
:10223C00044B1B68002B02D0024B1B68984720BF35
:10224C00F6E700BFE005002080B483B000AF7860F3
:10225C007B68002B02D0044A7B68136000BF0C37EC
:10226C00BD4680BC704700BFE005002080B582B041
:10227C0000AF00237B601348FFF74EFF7860124AD3
:10228C007B68C2F8D430786800F09CFB0E4B0122BE
:10229C0083F8EB204FF4FA5000F0E6FD0A4BD3F82C
:1022AC00D4301B6883F30988EFF3148040F00200EC
:1022BC0080F31488EFF3148040F0010080F314884D
:1022CC00FFF7B4FF39220008DC04002084B0B0B55D
:1022DC0000AF07F1100484E80F00364B93F8E83098
:1022EC001946344A2A2301FB03F3134408331D46D1
:1022FC0007F110040FCC28606960AA60EB6007CC72
:10230C0028616961AA612B4BD3F8DC20294B93F827
:10231C00E83018461146274A2A2300FB03F31344DE
:10232C0004331960234BD3F8DC20224B93F8E830AC
:10233C00184620492A2300FB03F30B441C3319686D
:10234C001D4B5B1A9B0013441A4AC2F8DC30194B24
:10235C0093F8E8301A462A2302FB03F3154A134478
:10236C001846FFF705FF134B93F8E8301946114A4E
:10237C002A2301FB03F31344243300221A700D4B60
:10238C0093F8E83019460B4A2A2301FB03F3134454
:10239C00253300221A70074B93F8E8300133DAB278
:1023AC00044B83F8E82000BFBD46BDE8B04004B044
:1023BC00704700BFDC040020F8FFFF3FB0B58CB0C5
:1023CC0004AF134B3C1D1D460FCD0FC495E8070001
:1023DC0084E807000F4B002283F8E8200D4B002205
:1023EC0083F8EB2000F05AFDFFF701FF0A4800F0DC
:1023FC00C3FC6C4607F1140393E8070084E807005C
:10240C003B1D0FCBFFF762FF00BF2037BD46B0BDB1
:10241C00CC450008DC040020C805002080B582B043
:10242C0000AF78607B681B69002B06D10E4BD3F88C
:10243C00D4301A6A7B681A6112E07B685B69002BE6
:10244C000ED1094BD3F8D4301A6A7B685A61064B0B
:10245C00D3F8D430002283F82420012000F098FA1D
:10246C0000BF0837BD4680BDDC04002080B582B0BB
:10247C0000AF78607B685B69002B20D07B681A69A1
:10248C00114BD3F8D4301B6A9A4218D17B685A6925
:10249C007B681A617B6800225A617B681B6918464D
:1024AC00FFF73AFE0346022283F82420064BD3F8AA
:1024BC00D430022283F82420002000F069FA00BFF7
:1024CC000837BD4680BD00BFDC04002084B080B559
:1024DC0082B000AF07F1100C8CE80F0000237B607A
:1024EC00BB6A1846FFF718FE7860084BD3F8D43057
:1024FC00022283F82420786800F064FA00BF0837C1
:10250C00BD46BDE8804004B0704700BFDC0400202D
:10251C0084B080B500AF07F1080C8CE80F000A4BB3
:10252C00D3F8D430022283F824203B6A1846FFF7F4
:10253C00F3FD0346184600F054FA00BFBD46BDE853
:10254C00804004B0704700BFDC04002080B582B02E
:10255C0000AF78600C4BD3F8D430012283F82520DF
:10256C00094BD3F8D4307A68013AC3F82620064BCD
:10257C00D3F8D430002283F82420012000F008FA8C
:10258C0000BF0837BD4680BDDC04002080B582B09A
:10259C0000AF0023FB7145E0FB79284A2A2101FB9F
:1025AC0003F3134425331B78012B38D1FB79234AD1
:1025BC002A2101FB03F313442033D3F80630012BFB
:1025CC001BD1FB791D4A2A2101FB03F3134424334D
:1025DC0002221A70FB79194A2A2101FB03F31344D6
:1025EC00253300221A70154BD3F8D430022283F80D
:1025FC002420022000F0CCF911E0FB790F492A22AB
:10260C0003FB02F20A442032D2F80620013A0B49AD
:10261C002A2000FB03F30B442033C3F80620FB797C
:10262C000133FB71054B93F8E830FA799A42B3D336
:10263C0000BF00BF0837BD4680BD00BFDC040020D2
:10264C00F0B58DB000AF574B93F8E830013BDBB2DF
:10265C0087F82E309BE0012387F82F30002387F872
:10266C002D3082E097F92D304E4A2A2101FB03F3DD
:10267C00134408331A7897F92D30013349492A202D
:10268C0000FB03F30B4408331B789A4266D997F985
:10269C002D30444A2A2101FB03F313441C463E46C9
:1026AC0004F1200C35462346186859689A68DB6893
:1026BC000FC5103410366445F4D1334622461068E9
:1026CC00516803C312891A8097F92D30013397F999
:1026DC002D2034492A2000FB02F28818314A2A2185
:1026EC0001FB03F3134403F1200402461946D1F80D
:1026FC0000C04E688D68C968C2F800C0566095600D
:10270C00D16010331030A342EFD1024618685968DB
:10271C00106051601B89138197F92D300133214AC8
:10272C002A2101FB03F313443C469C4604F1200E82
:10273C00654626460FCE28606960AA60EB601034AF
:10274C000CF1100C7445F3D16246234603CB106098
:10275C0051601B881381002387F82F3097F92D3097
:10276C00DBB20133DBB287F82D3097F92D2097F9C6
:10277C002E309A42FFF676AF97F92F30002B0CD102
:10278C0097F92E30DBB2013BDBB287F82E3097F98C
:10279C002E30002BBFF65FAF00E000BF00BF343718
:1027AC00BD46F0BDDC04002080B500AF294BD3F84A
:1027BC00D43093F82430002B17D0274B1B78002BE8
:1027CC0013D1244BD3F8D430012283F82420214B8D
:1027DC00D3F8D4301946204800F060FA1D4BD3F8DA
:1027EC00D4301C4AC2F8D83031E01C491A4800F0E9
:1027FC008BFA184BD3F8D830012283F82420154BD0
:10280C00D3F8D4301A7A134BD3F8D8301B7A9A42B7
:10281C001DD1104BD3F8D43093F82430002B16D0A4
:10282C000C4BD3F8D4301A6A0A4BD3F8D8301B6A45
:10283C009A420CD0074BD3F8D4301946064800F016
:10284C002DFA044BD3F8D430032283F8242000BF94
:10285C0080BD00BFDC040020C8050020B4050020AA
:10286C0080B582B000AF78607B6818331B68023B80
:10287C001B78012B02DC002B03DA18E0022B12D0A0
:10288C0015E000F01FF80C4B93F8EB30012B0DD139
:10289C000A4B1B689847FFF787FF094A536843F0B8
:1028AC008053536002E000F00DF800E000BF00BF61
:1028BC000837BD4680BD00BFDC040020E4050020C5
:1028CC0000ED00E080B582B000AF00233B60002338
:1028DC00FB71FF23BB71FFF7B3FE00BF3B461946EC
:1028EC00294800F011FA0346012BF7D00023FB71A5
:1028FC003DE0FB79254A2A2101FB03F313442433E1
:10290C001B78002B30D0FB79204A2A2101FB03F3E2
:10291C00134424331B78012B26D0FB791B4A2A2124
:10292C0001FB03F3134408331B78BA799A4225D37D
:10293C00FB79164A2A2101FB03F3134408331B7855
:10294C00BB71FB792A2202FB03F3104A134419468C
:10295C000D4800F0A3F9FB790C4A2A2101FB03F383
:10296C001344243303221A70FB790133FB71074B98
:10297C0093F8E830FA799A42BBD300E000BF00BF6D
:10298C000837BD4680BD00BFC8050020DC04002010
:10299C0080B483B000AF0346FB71FB79022B0AD0E5
:1029AC00022B0ADC002B02D0012B02D005E000DF49
:1029BC0003E001DF01E002DF00BF00BF0C37BD46C2
:1029CC0080BC704780B582B000AF78607B68022213
:1029DC0083F824200020FFF7DBFF00BF0837BD463B
:1029EC0080BD80B582B000AF78607B68002283F830
:1029FC0024200120FFF7CCFF00BF0837BD4680BD67
:102A0C0080B483B000AF78607B68002B02D0044A9E
:102A1C007B68136000BF0C37BD4680BC704700BF9D
:102A2C00E405002080B500AFFFF7B0FDFFF7BCFE5A
:102A3C000A4BD3F8D420094BD3F8D8309A420BD098
:102A4C00074B1B68002B02D0054B1B689847054AA7
:102A5C00536843F08053536000BF80BDDC040020FA
:102A6C00E405002000ED00E06F4BD3F8D430EFF319
:102A7C0009821A606C4BD3F8D4301868A0F10400AA
:102A8C001860694BD3F8D4301B681C60664BD3F8C4
:102A9C00D4301868A0F104001860634BD3F8D4301C
:102AAC001B681D60604BD3F8D4301868A0F104008B
:102ABC0018605D4BD3F8D4301B681E605A4BD3F8AA
:102ACC00D4301868A0F104001860574BD3F8D430F8
:102ADC001B681F60544BD3F8D4301868A0F1040065
:102AEC001860514BD3F8D4301B68C3F800804E4BA0
:102AFC00D3F8D4301868A0F1040018604A4BD3F80E
:102B0C00D4301B68C3F80090474BD3F8D430186806
:102B1C00A0F104001860444BD3F8D4301B68C3F800
:102B2C0000A0414BD3F8D4301868A0F10400186011
:102B3C003D4BD3F8D4301B68C3F800B03B4B3C4A38
:102B4C001868002803D010604FF000011960364B54
:102B5C00D3F8D4301B68D3F800B0334BD3F8D4304F
:102B6C00186800F1040018602F4BD3F8D4301B68A0
:102B7C00D3F800A02C4BD3F8D430186800F1040023
:102B8C001860294BD3F8D4301B68D3F80090264B2F
:102B9C00D3F8D430186800F104001860224BD3F835
:102BAC00D4301B68D3F800801F4BD3F8D43018688E
:102BBC0000F1040018601C4BD3F8D4301B681F685C
:102BCC00194BD3F8D430186800F104001860164B78
:102BDC00D3F8D4301B681E68134BD3F8D430186864
:102BEC0000F104001860104BD3F8D4301B681D683A
:102BFC000D4BD3F8D430186800F1040018600A4B60
:102C0C00D3F8D4301B681C68074BD3F8D430186841
:102C1C0000F104001860044BD3F8D4301B6883F324
:102C2C000988704700BF00BFDC040020B4050020F9
:102C3C00B005002080B485B000AF78600B46FB7007
:102C4C000123FB737B681B78002B1FD0FB78013BA7
:102C5C00BB730FE0BB7B0133B87B7A689B001344DA
:102C6C00D3F80320796883000B44C3F80320BB7BA3
:102C7C000133BB737B681B78BA7B9A42EAD37B68BF
:102C8C001B78013BDAB27B681A7001E00223FB73FC
:102C9C00FB7B18461437BD4680BC704780B485B0AA
:102CAC0000AF786039600123FB737B681B78042BC1
:102CBC0020D87B6893F902305A1C124B83FB021309
:102CCC005910D317C91A0B469B000B44D11A4AB2A0
:102CDC007B689A707B6893F902307A689B00134486
:102CEC003A68C3F803207B681B780133DAB27B683F
:102CFC001A7001E00023FB73FB7B18461437BD46AA
:102D0C0080BC70476766666680B485B000AF78603B
:102D1C0039600123FB737B681B78002B21D07B6807
:102D2C0093F901307A689B001344D3F803203B6875
:102D3C001A607B6893F901305A1C0E4B83FB02130B
:102D4C005910D317C91A0B469B000B44D11A4AB21F
:102D5C007B685A707B681B78013BDAB27B681A700F
:102D6C0001E00223FB73FB7B18461437BD4680BC85
:102D7C00704700BF6766666680B485B000AF786048
:102D8C000123FB737B6800221A707B6800225A7047
:102D9C007B68FF229A70FB7B18461437BD4680BCBB
:102DAC00704780B483B000AF78607B681B78002BD1
:102DBC000CBF01230023DBB25BB218460C37BD46B7
:102DCC0080BC704780B483B000AF78607B681B78A0
:102DDC00052B0CBF01230023DBB25BB218460C376A
:102DEC00BD4680BC704700BF80B400AFFEE780B426
:102DFC0000AFFEE780B400AFFEE780B400AFFEE7A3
:102E0C0080B400AFFEE71EF0040F0CBFEFF3088098
:102E1C00EFF30980FFF724BD00BF80B483B000AF8F
:102E2C00786039607B68B3F1FF3F09D10D4B1B6AA9
:102E3C0023F07F423B681B070A4913430B620CE0EB
:102E4C007B6813F1020F08D1064B1B6A23F47F0237
:102E5C003B681B05034913430B6200BF0C37BD468F
:102E6C0080BC704700ED00E080B582B000AF7860A8
:102E7C00094A7B68013B5360074B00229A600F2183
:102E8C004FF0FF30FFF7C9FF034B07221A6000BF5A
:102E9C000837BD4680BD00BF10E000E080B500AF34
:102EAC000F216FF00100FFF7B8FF0E4B1B680D4AA6
:102EBC0043F0010313600B4B1B680A4A23F0847325
:102ECC0023F480331360074B5A680649064B1340B2
:102EDC004B60044B00221A61024B0022DA6000BFE7
:102EEC0080BD00BF001002400000FFF880B582B02A
:102EFC0000AF174A3B1D1268114619800233120CA1
:102F0C001A7079680020FDF7B9FE02233B717968CD
:102F1C000020FDF7B3FE07233B7179680120FDF714
:102F2C00ADFE06233B7179680120FDF7A7FE012158
:102F3C000020FDF7A3FF02210020FDF79FFF0621D3
:102F4C000120FDF79BFF07210120FDF797FFEEE71E
:102F5C00E845000880B500AF0248FDF705FD00BF4D
:102F6C0080BD00BF0800002080B586B002AF0346CC
:102F7C003960FB8013467B71BB1DBB607B79013BC9
:102F8C007B71BB685A1C0223009300232A2116482C
:102F9C00FDF790FD002300930023BA682A21124804
:102FAC00FDF788FD0023FB730CE0FB7B3A681A44A9
:102FBC000023009300232A210B48FDF77BFDFB7BAC
:102FCC000133FB73FA7B7B799A42EED3FB7B3A6835
:102FDC001A440123009300232A210348FDF76AFDBC
:102FEC0000BF1037BD4680BD0800002080B586B0FC
:102FFC0002AF03463960FB8013467B71BB1DBB607F
:10300C007B79013B7B71BB685A1C02230093002324
:10301C002A211A48FDF74EFD002300930023BA68BD
:10302C002A211648FDF746FD0223009301233A6836
:10303C002A211248FDF73EFD0123FB730CE0FB7BBC
:10304C003A681A440023009301232A210B48FDF708
:10305C0031FDFB7B0133FB73FA7B7B799A42EED318
:10306C00FB7B3A681A440123009301232A2103486D
:10307C00FDF720FD00BF1037BD4680BD08000020C5
:10308C0080B584B000AF786000237B730123BB73E1
:10309C007B689B7A3B737B681B78F9681846FDF755
:1030AC00EDFD0023FB730DE0FB7B7A6813449B78EA
:1030BC003B737B681B78F9681846FDF7DFFDFB7BDB
:1030CC000133FB73FB7B072BEED900BF00BF10371E
:1030DC00BD4680BD80B584B000AFF860B9601346C2
:1030EC00FB71FB689A78BB689B789A423BD1FB6872
:1030FC001A78BB681B789A4235D1FA79294BA3FB15
:10310C000213D9080B469B000B445B00D31ADBB2AD
:10311C001946F86800F048F8FB681878FB68997A4B
:10312C00FB685B78012B0CBF01230023DBB21A4632
:10313C00FDF760FEFB791B4AA2FB0323DB08DBB225
:10314C001946B86800F030F8BB681878BB68997AF3
:10315C00BB685B78012B0CBF01230023DBB21A4642
:10316C00FDF748FE19E0FA790E4BA3FB0213D908C0
:10317C000B469B000B445B00D31ADBB21946F86874
:10318C0000F012F8FB79074AA2FB0323DB08DBB241
:10319C001946B86800F008F800BF00BF1037BD46EC
:1031AC0080BD00BFCDCCCCCC80B584B000AF7860F6
:1031BC000B46FB707B685B78002B25D07B681878FE
:1031CC007B689B7A00221946FDF714FE0023FB73E3
:1031DC0016E07B681878FB7B7A6813449978FB7847
:1031EC001F4AD35C1A46FB7B42FA03F3DBB203F0B3
:1031FC000103DBB21A46FDF7FDFDFB7B0133FB73CC
:10320C00FB7B072BE5D927E07B6818787B689B7ADA
:10321C0001221946FDF7EEFD0023FB7319E07B68D4
:10322C001878FB7B7A6813449978FB780C4AD35C4A
:10323C001A46FB7B42FA03F303F00103002B0CBF8D
:10324C0001230023DBB21A46FDF7D4FDFB7B0133CF
:10325C00FB73FB7B072BE2D900BF1037BD4680BD4B
:10326C001400002080B582B000AF00F00AF80346CD
:10327C00FB71FB79582BF8D0FB7918460837BD4603
:10328C0080BD80B582B000AF58237B710023FB71E9
:10329C0039E0FB79204AD35C002219460120FDF766
:1032AC00A9FD0023BB7120E0BB791C4AD35C1946F5
:1032BC000120FDF765FD0346002B13D1BA79FB798C
:1032CC00174992000A4413441B787B7100BFBB79E9
:1032DC00124AD35C19460120FDF752FD0346002B20
:1032EC00F5D005E0BB790133BB71BB79032BDBD97E
:1032FC00FB79094AD35C012219460120FDF77AFDBE
:10330C00FB790133FB71FB79032BC2D97B7918460E
:10331C000837BD4680BD00BF3000002034000020BF
:10332C002000002080B582B000AF08237B71002301
:10333C00BB710023FB710AE0FB79174AD35C3B712C
:10334C0079680120FDF79AFCFB790133FB71FB795D
:10335C00032BF1D900237B710123BB710023FB717B
:10336C0012E0FB790D4AD35C3B7179680120FDF7C3
:10337C0085FCFB79094AD35C012219460120FDF733
:10338C0039FDFB790133FB71FB79032BE9D900BFC4
:10339C0000BF0837BD4680BD34000020300000203F
:1033AC0080B58CB000AF0346FB71574B1B68BB60FC
:1033BC0000220B210020FDF71DFD00220A21002018
:1033CC00FDF718FD002387F82F3018E097F82F3001
:1033DC0030333B4413F8281CFA7997F82F30043318
:1033EC0042FA03F3DBB203F00103DBB21A4600200E
:1033FC00FDF700FD97F82F30013387F82F3097F841
:10340C002F30032BE2D901220C210020FDF7F2FC16
:10341C000023BB620BE000237B6202E07B6A01337A
:10342C007B627B6AFE2BF9D9BB6A0133BB62BB6A38
:10343C00042BF0D900220C210020FDF7DBFC00232B
:10344C003B620BE00023FB6102E0FB690133FB6193
:10345C00FB69FE2BF9D93B6A01333B623B6A012BBA
:10346C00F0D9002387F82F3017E097F82F3030333E
:10347C003B4413F8281CFA7997F82F3042FA03F3DF
:10348C00DBB203F00103DBB21A460020FDF7B2FCFD
:10349C0097F82F30013387F82F3097F82F30032B04
:1034AC00E3D901220C210020FDF7A4FC0023BB6111
:1034BC000BE000237B6102E07B6901337B617B695C
:1034CC00FE2BF9D9BB690133BB61BB69042BF0D965
:1034DC0000220C210020FDF78DFC00233B610BE04A
:1034EC000023FB6002E0FB680133FB60FB68FE2BF2
:1034FC00F9D93B6901333B613B69012BF0D900BF22
:10350C0000BF3037BD4680BDEC45000880B586B0A5
:10351C0000AF294B1B68BB6000237B710123BB717F
:10352C000A233B7179680020FDF7A8FB0B233B7144
:10353C0079680020FDF7A2FB0C233B717968002011
:10354C00FDF79CFB00220C210020FDF753FC00230F
:10355C00FB750CE0FB7D18333B4413F8103C3B71BE
:10356C0079680020FDF78AFBFB7D0133FB75FB7D41
:10357C00032BEFD900233B610BE00023FB6002E03F
:10358C00FB680133FB60FB68FE2BF9D93B69013307
:10359C003B613B69272BF0D90220FFF701FF282064
:1035AC00FFF7FEFE0C20FFF7FBFE0620FFF7F8FEF0
:1035BC0000BF1837BD4680BDEC45000880B58EB005
:1035CC0000AF0346FB71604B1B68BB6000233B6381
:1035DC000BE00023FB6202E0FB6A0133FB62FB6A37
:1035EC00FE2BF9D93B6B01333B633B6B312BF0D991
:1035FC0000220B210020FDF7FDFB01220A210020F7
:10360C00FDF7F8FB002387F8373018E097F83730D0
:10361C0038333B4413F8301CFA7997F837300433BD
:10362C0042FA03F3DBB203F00103DBB21A460020CB
:10363C00FDF7E0FB97F83730013387F8373097F810
:10364C003730032BE2D901220C210020FDF7D2FBED
:10365C000023BB620BE000237B6202E07B6A013338
:10366C007B627B6AFE2BF9D9BB6A0133BB62BB6AF6
:10367C00042BF0D900220C210020FDF7BBFB00230A
:10368C003B620BE00023FB6102E0FB690133FB6151
:10369C00FB69FE2BF9D93B6A01333B623B6A012B78
:1036AC00F0D9002387F8373017E097F837303833E4
:1036BC003B4413F8301CFA7997F8373042FA03F38D
:1036CC00DBB203F00103DBB21A460020FDF792FBDC
:1036DC0097F83730013387F8373097F83730032BAA
:1036EC00E3D901220C210020FDF784FB0023BB61F0
:1036FC000BE000237B6102E07B6901337B617B691A
:10370C00FE2BF9D9BB690133BB61BB69042BF0D922
:10371C0000220C210020FDF76DFB00233B610BE028
:10372C000023FB6002E0FB680133FB60FB68FE2BAF
:10373C00F9D93B6901333B613B69012BF0D900BFDF
:10374C0000BF3837BD4680BDEC45000880B485B05D
:10375C0000AF786039600023FB737B68002B22D1AB
:10376C00FB7B5A1CFA731A463B68134430221A70BE
:10377C001CE07968344BA3FB0123DA0813469B0049
:10378C0013445B00CA1AD2B2FB7B39680B4430324B
:10379C00D2B21A70FB7B0133FB737B682A4AA2FB03
:1037AC000323DB087B607B68002BE2D1FB7B3A6850
:1037BC00134400221A700023BB7338E0BB7B3A68B9
:1037CC0013441978FA7BBB7BD31A013B3A68134438
:1037DC001A78BB7B386803444A40D2B21A70FA7B21
:1037EC00BB7BD31A013B3A6813441978BB7B3A680C
:1037FC0013441A78F87BBB7BC31A013B386803442B
:10380C004A40D2B21A70BB7B3A6813441978FA7BDF
:10381C00BB7BD31A013B3A6813441A78BB7B3868DC
:10382C0003444A40D2B21A70BB7B0133BB73FB7B9F
:10383C005B08DBB2BA7B9A42C0D300BF00BF14371F
:10384C00BD4680BC704700BFCDCCCCCC80B584B01D
:10385C0000AF78603960786800F078FB03469BB263
:10386C00184600F0CFF903461946786800F014F9B1
:10387C000346184600F06AFB03469BB21A469200B8
:10388C0013441A4691001A460B4613449B00BB8105
:10389C000023FB731AE0BA89474BA3FB0213D90828
:1038AC000B469B000B445B00D31A9BB2DAB2FB7B3A
:1038BC0039680B443032D2B21A70FB7B0133FB7384
:1038CC00BB893D4AA2FB0323DB08BB81BB89002BD0
:1038DC00E1D1FB7B5A1CFA731A463B6813442E2227
:1038EC001A701CE0786800F031FB0146324BA3FBE8
:1038FC000123DA0813469B0013445B00CA1AD2B2A8
:10390C00FB7B39680B443032D2B21A70FB7B01332B
:10391C00FB732A49786800F07DFA03467B6078686F
:10392C0000F014FB0346002BDCD10023BB7338E002
:10393C00BB7B3A6813441978FA7BBB7BD31A013BE7
:10394C003A6813441A78BB7B386803444A40D2B2B5
:10395C001A70FA7BBB7BD31A013B3A681344197873
:10396C00BB7B3A6813441A78F87BBB7BC31A013BC8
:10397C00386803444A40D2B21A70BB7B3A6813448D
:10398C001978FA7BBB7BD31A013B3A6813441A783B
:10399C00BB7B386803444A40D2B21A70BB7B0133FC
:1039AC00BB73FB7B5B08DBB2BA7B9A42C0D300BF14
:1039BC0000BF1037BD4680BDCDCCCCCC0000204123
:1039CC0080B584B000AF786007F1080319467868B9
:1039DC00FFF73CFF07F10803184600F017F800BF8B
:1039EC001037BD4680BD80B584B000AF786007F15C
:1039FC00080319467868FFF7A9FE07F10803184673
:103A0C0000F004F800BF1037BD4680BD80B582B011
:103A1C0000AF786007E07B681B781846FFF7CEFD97
:103A2C007B6801337B607B681B78002BF3D100BF74
:103A3C0000BF0837BD4680BD80B584B000AF0346DB
:103A4C000A46FB711346BB71FB79002B01D0C023D6
:103A5C0000E08023FB73FA7BBB791344DBB218467E
:103A6C00FFF79EFC00BF1037BD4680BD80B500AF90
:103A7C000120FFF795FC00BF80BD00BF2C4600085D
:103A8C00000000206804002068040020E8050020E5
:103A9C0080F0004002E000BF81F0004142001FBFF7
:103AAC005FEA410392EA030F7FEA226C7FEA236C00
:103ABC006AD04FEA1262D2EB1363C1BFD2184140F5
:103ACC0048404140B8BF5B42192B88BF704710F08B
:103ADC00004F40F4000020F07F4018BF404211F02E
:103AEC00004F41F4000121F07F4118BF494292EA96
:103AFC00030F3FD0A2F1010241FA03FC10EB0C00C2
:103B0C00C3F1200301FA03F100F0004302D549424E
:103B1C0060EB4000B0F5000F13D3B0F1807F06D3FB
:103B2C0040084FEA310102F10102FE2A51D2B1F1F3
:103B3C00004F40EBC25008BF20F0010040EA0300E8
:103B4C007047490040EB0000013A28BFB0F5000F68
:103B5C00EDD2B0FA80FCACF1080CB2EB0C0200FA1E
:103B6C000CF0AABF00EBC25052421843BCBFD0406D
:103B7C001843704792F0000F81F4000106BF80F4E7
:103B8C0000000132013BB5E74FEA41037FEA226CAA
:103B9C0018BF7FEA236C21D092EA030F04D092F075
:103BAC00000F08BF0846704790EA010F1CBF0020A9
:103BBC00704712F07F4F04D1400028BF40F0004006
:103BCC00704712F100723CBF00F50000704700F026
:103BDC00004343F0FE4040F4000070477FEA22624D
:103BEC0016BF08467FEA23630146420206BF5FEA1E
:103BFC00412390EA010F40F4800070474FF000031E
:103C0C0004E000BF10F0004348BF40425FEA000CE4
:103C1C0008BF704743F0964301464FF000001CE08C
:103C2C0050EA010208BF70474FF000030AE000BFE2
:103C3C0050EA010208BF704711F0004302D5404220
:103C4C0061EB41015FEA010C02BF84460146002092
:103C5C0043F0B64308BFA3F18053A3F50003BCFAAD
:103C6C008CF2083AA3EBC25310DB01FA02FC63445A
:103C7C0000FA02FCC2F12002BCF1004F20FA02F261
:103C8C0043EB020008BF20F00100704702F1200254
:103C9C0001FA02FCC2F1200250EA4C0021FA02F2B5
:103CAC0043EB020008BF20EADC7070474FF0FF0CBA
:103CBC001CEAD0521EBF1CEAD15392EA0C0F93EAB5
:103CCC000C0F6FD01A4480EA010C400218BF5FEA57
:103CDC0041211ED04FF0006343EA501043EA5111CA
:103CEC00A0FB01310CF00040B1F5000F3EBF4900C4
:103CFC0041EAD3715B0040EA010062F17F02FD2AC8
:103D0C001DD8B3F1004F40EBC25008BF20F00100AA
:103D1C00704790F0000F0CF0004C08BF49024CEAC1
:103D2C00502040EA51207F3AC2BFD2F1FF0340EA53
:103D3C00C250704740F400004FF00003013A5DDCC4
:103D4C0012F1190FDCBF00F000407047C2F1000205
:103D5C00410021FA02F1C2F1200200FA02FC5FEAF2
:103D6C00310040F1000053EA4C0308BF20EADC703C
:103D7C00704792F0000F00F0004C02BF400010F4AE
:103D8C00000F013AF9D040EA0C0093F0000F01F05B
:103D9C00004C02BF490011F4000F013BF9D041EA7D
:103DAC000C018FE70CEAD15392EA0C0F18BF93EA7F
:103DBC000C0F0AD030F0004C18BF31F0004CD8D1A9
:103DCC0080EA010000F00040704790F0000F17BF30
:103DDC0090F0004F084691F0000F91F0004F14D076
:103DEC0092EA0C0F01D142020FD193EA0C0F03D1CE
:103DFC004B0218BF084608D180EA010000F00040D1
:103E0C0040F0FE4040F40000704740F0FE4040F4AB
:103E1C00400070474FF0FF0C1CEAD0521EBF1CEA4A
:103E2C00D15392EA0C0F93EA0C0F69D0A2EB030268
:103E3C0080EA010C49024FEA402037D04FF0805302
:103E4C0043EA111143EA10130CF000408B4238BFC7
:103E5C005B0042F17D024FF4000C8B4224BF5B1AD5
:103E6C0040EA0C00B3EB510F24BFA3EB510340EA23
:103E7C005C00B3EB910F24BFA3EB910340EA9C00D1
:103E8C00B3EBD10F24BFA3EBD10340EADC001B0141
:103E9C0018BF5FEA1C1CE0D1FD2A3FF650AF8B42E5
:103EAC0040EBC25008BF20F0010070470CF0004CF2
:103EBC004CEA50207F32C2BFD2F1FF0340EAC2501D
:103ECC00704740F400004FF00003013A37E792F0DE
:103EDC00000F00F0004C02BF400010F4000F013A3C
:103EEC00F9D040EA0C0093F0000F01F0004C02BF37
:103EFC00490011F4000F013BF9D041EA0C0195E7A0
:103F0C000CEAD15392EA0C0F08D142027FF47DAF38
:103F1C0093EA0C0F7FF470AF084676E793EA0C0F28
:103F2C0004D14B023FF44CAF08466EE730F0004C26
:103F3C0018BF31F0004CCAD130F000427FF45CAFB6
:103F4C0031F000437FF43CAF5FE700BF42000ED27C
:103F5C00B2F1FE4F0BD34FF09E03B3EB126209D4B8
:103F6C004FEA002343F0004323FA02F070474FF06E
:103F7C000000704712F1610F01D1420202D14FF0E3
:103F8C00FF3070474FF00000704700BF53B94AB97B
:103F9C00002908BF00281CBF4FF0FF314FF0FF3045
:103FAC0000F076B9ADF1080C6DE904CE00F006F81E
:103FBC00DDF804E0DDE9022304B070472DE9F04799
:103FCC00089E0D4604468846002B4DD18A429446E5
:103FDC0068D9B2FA82F252B101FA02F3C2F12001AD
:103FEC0020FA01F10CFA02FC41EA030894404FEA72
:103FFC001C41B8FBF1F71FFA8CFE01FB178807FB7D
:10400C000EF0230C43EA084398420AD91CEB030335
:10401C0007F1FF3580F01E81984240F21B81023F70
:10402C0063441B1AB3FBF1F001FB103300FB0EFED3
:10403C00A4B244EA0344A6450AD91CEB040400F1DB
:10404C00FF3380F00981A64540F2068164440238B2
:10405C000021A4EB0E0440EA07401EB10023D4401B
:10406C00C6E90043BDE8F0878B4208D9002E00F06A
:10407C00EE800021C6E900050846BDE8F087B3FADA
:10408C0083F100294AD1AB4202D3824200F2FC8078
:10409C00841A65EB030301209846002EE2D0C6E992
:1040AC000048DFE702B9FFDEB2FA82F2002A40F0E4
:1040BC009180A1EB0C0001214FEA1C471FFA8CFEEA
:1040CC00B0FBF7F307FB1300250C45EA00450EFB8C
:1040DC0003F0A84208D91CEB050503F1FF3802D206
:1040EC00A84200F2CE8043462D1AB5FBF7F007FB31
:1040FC0010550EFB00FEA4B244EA0544A64508D9AF
:10410C001CEB040400F1FF3502D2A64500F2B68088
:10411C002846A4EB0E0440EA03409EE7C1F12007B9
:10412C008B4022FA07FC4CEA030C25FA07FA4FEAFB
:10413C001C49BAFBF9F820FA07F309FB18AA8D40C1
:10414C001FFA8CFE1D4300FA01F308FB0EF02C0C39
:10415C0044EA0A44A04202FA01F20BD91CEB040413
:10416C0008F1FF3A80F08880A04240F28580A8F1E7
:10417C0002086444241AB4FBF9F009FB104400FB58
:10418C000EFEADB245EA0444A64508D91CEB040466
:10419C0000F1FF356CD2A6456AD90238644440EA76
:1041AC000840A0FB0295A4EB0E04AC42C846AE46F8
:1041BC0056D353D0002E69D0B3EB080264EB0E0437
:1041CC0022FA01F304FA07F71F43CC40C6E9007446
:1041DC00002147E70CFA02FCC2F1200125FA01F399
:1041EC004FEA1C4720FA01F195400D43B3FBF7F160
:1041FC0007FB11331FFA8CFE280C40EA034001FB2D
:10420C000EF3834204FA02F408D91CEB000001F10E
:10421C00FF382FD283422DD902396044C01AB0FB2B
:10422C00F7F307FB1300ADB245EA004503FB0EF0B4
:10423C00A84208D91CEB050503F1FF3816D2A84299
:10424C0014D9023B6544281A43EA014138E7314648
:10425C00304607E72F46E4E61846F9E64B45A9D267
:10426C00B9EB020865EB0C0E0138A3E74346EAE70D
:10427C00284694E74146D1E7D0467BE764440238B0
:10428C0047E7023B65442FE7084606E73146E9E677
:10429C00704700BF002301461A46184600F09CB830
:1042AC0008B50021044600F0C9F8044B1868C36B2C
:1042BC0003B19847204600F019F900BFF0450008FB
:1042CC0038B5084B084D5B1B9C1007D0043B1D44B4
:1042DC00013C55F804399847002CF9D1BDE8384019
:1042EC0000F03EB92C4600082846000870B50D4E6B
:1042FC000D4D761BB61006D0002455F8043B013446
:10430C009847A642F9D1094E094D00F023F9761BC6
:10431C00B61006D0002455F8043B01349847A64249
:10432C00F9D170BD20460008204600082846000838
:10433C0020460008830730B548D0541E002A3FD0D1
:10434C000346CAB201E0013C3AD303F8012B9D07A6
:10435C00F9D1032C2DD9CDB245EA05250F2C45EA10
:10436C00054536D9A4F1100222F00F0C03F1200EF2
:10437C00E6444FEA121C03F1100242E9045542E9EB
:10438C00025510327245F8D10CF1010214F00C0FE9
:10439C0003EB021204F00F0C13D0ACF1040323F066
:1043AC0003030433134442F8045B9342FBD10CF037
:1043BC0003042CB1CAB21C4403F8012B9C42FBD160
:1043CC0030BD64461346002CF4D1F9E7034614467D
:1043DC00BFE71A46A446E0E770B5174C2568D5F838
:1043EC004841DCB165681F2D23DC80B14FF0010C16
:1043FC0004EB850ECEF88820D4F888610CFA05F20F
:10440C0016430228C4F88861CEF808310BD06B1C17
:10441C0002356360002044F8251070BD05F5A674C4
:10442C00C5F84841DEE7D4F88C311343C4F88C311D
:10443C00EDE74FF0FF3070BDF04500082DE9F04F6F
:10444C00294B83B01F680190D7F84861B6B18B46F1
:10445C004FF001084FF000097468651E0ED401344A
:10446C0006EB8404BBF1000F0BD0D4F800315B4594
:10447C0007D0013D6B1CA4F10404F3D103B0BDE8DB
:10448C00F08F73682268013BAB420CBF7560C4F8B7
:10449C000090002AEDD0D6F8880108FA05F1014207
:1044AC00D6F804A00BD190477268524512D1D7F8B8
:1044BC004831B342DDD01E46002ECDD1DEE7D6F812
:1044CC008C0101420BD1D4F880100198904772688E
:1044DC005245ECD0D7F84861002EBDD1CEE7D4F8C8
:1044EC0080009047E0E700BFF0450008FEE700BF02
:1044FC00002103E00B4B5B58435004310A480B4B33
:10450C0042189A42F6D30A4A02E0002342F8043BCE
:10451C00084B9A42F9D3FDF759FDFFF7E7FEFEF77A
:10452C00E5FC70472C4600080000002068040020C1
:10453C0068040020E8050020FEE70000024B13B1E0
:10454C000248FFF7A7BE704700000000CD420008EC
:10455C0000000000F8B500BFF8BC08BC9E467047D0
:0C456C00F8B500BFF8BC08BC9E467047C4
:104578003A3D0A3D0F3D243D323D023D053D133D88
:104588000D3D0C3D233D113D263D013D173D083DA8
:10459800093D0000060C0100060708090A1717174D
:1045A80017172828282828280908010000000000D3
:1045B80000000000010203040607080900000000CB
:1045C80001020304FF49646C655F5461736B00006A
:1045D800000000000000000000010000392200086F
:1045E8000100010004050607400000203A3D0A3D8D
:1045F8000F3D243D323D023D053D133D0D3D0C3D33
:10460800233D113D263D013D173D083D093D000074
:084618007CBBFF7F01000000E4
:0846200049450008750100087E
:044628004D01000838
:10462C000000000000A24A040000000000881300F3
:10463C00001100003F065B4F666D7D077F6F000029
:10464C003738392F3435362A3132332D4F303D2B14
:10465C0004050607000102034000002000000000D2
:10466C00000000002C03002094030020FC03002019
:10467C00000000000000000000000000000000002E
:10468C00000000000000000000000000000000001E
:10469C00000000000000000000000000000000000E
:1046AC0000000000000000000000000000000000FE
:1046BC0000000000000000000000000000000000EE
:1046CC0000000000000000000000000000000000DE
:1046DC0000000000000000000000000000000000CE
:1046EC0000000000000000000000000000000000BE
:1046FC0000000000000000000000000000000000AE
:10470C00000000000000000001000000000000009C
:10471C000E33CDAB34126DE6ECDE05000B00000061
:10472C00000000000000000000000000000000007D
:10473C00000000000000000000000000000000006D
:10474C00000000000000000000000000000000005D
:10475C00000000000000000000000000000000004D
:04000005080044FDAE
:00000001FF
