:020000040800F2
:10000000E8030020F9010008F9010008F9010008DF
:1000100000000000000000000000000000000000E0
:1000200000000000000000000000000000000000D0
:1000300000000000000000000000000000000000C0
:1000400000000000000000000000000000000000B0
:1000500000000000000000000000000000000000A0
:100060000000000000000000000000000000000090
:100070000000000000000000000000000000000080
:100080000000000000000000000000000000000070
:100090000000000000000000000000000000000060
:1000A0000000000000000000000000000000000050
:1000B0000000000000000000000000000000000040
:1000C000000000000000000080B500AF012000F03B
:1000D00025F83C2000F006F8002000F01FF800BFD3
:1000E00080BD000080B483B000AF786002E07B6820
:1000F000013B7B607B68002BF9D100BF00BF0C3750
:10010000BD4680BC704780B400AF034B1B68DBB2B8
:100110001846BD4680BC70470808014080B483B0D3
:1001200000AF78607B68012B06D10A4B1B68094A37
:1001300043F40053136008E07B68002B05D1054BA6
:100140001B68044A23F40053136000BF0C37BD46FC
:1001500080BC70470C08014080B400AF0F4B1B6897
:100160000E4A43F0040313600D4B1B680C4A23F442
:10017000700313600A4B0A4A1B681360094B1B6823
:10018000084A23F470031360064B1B68054A43F0CA
:100190002233136000BFBD4680BC70471810024078
:1001A000000801400408014080B500AFFFF7D4FF0C
:1001B0000120FFF7B3FF42F21070FFF793FF00201A
:1001C000FFF7ACFF42F21070FFF78CFFF0E780B54D
:1001D00082B000AF00237B6000F007F878607B6896
:1001E000142BF9DDFFF770FFF6E780B500AFFFF7DE
:1001F0008AFF0346184680BD80B584B000AF154A1B
:10020000154BD31AFB60154BBB60134B7B6007E0AB
:10021000BA68531CBB607B68591C796012781A70ED
:10022000FB685A1EFA60002BF2D10D4A0D4BD31A0F
:10023000FB600C4B7B6004E07B685A1C7A60FF22F9
:100240001A70FB685A1EFA60002BF5D1FFF7ACFF5D
:10025000FCE700BF0000002000000020680200084A
:08026000000000200000002056
:04000005080001F9F5
:00000001FF
