:020000040800F2
:10000000001000207D010008710100087101000846
:1000100071010008710100087101000871010008F8
:1000200071010008710100087101000871010008E8
:1000300071010008710100087101000871010008D8
:1000400071010008710100087101000871010008C8
:10005000710100087101000880B500AF012000F0B7
:1000600025F83C2000F006F8002000F01FF800BF43
:1000700080BD000080B483B000AF786002E07B6890
:10008000013B7B607B68002BF9D100BF00BF0C37C0
:10009000BD4680BC704780B400AF034B1B68DBB229
:1000A0001846BD4680BC70470808014080B483B044
:1000B00000AF78607B68012B06D10A4B1B68094AA8
:1000C00043F40053136008E07B68002B05D1054B17
:1000D0001B68044A23F40053136000BF0C37BD466D
:1000E00080BC70470C08014080B400AF0F4B1B6808
:1000F0000E4A43F0040313600D4B1B680C4A23F4B3
:10010000700313600A4B0A4A1B681360094B1B6893
:10011000084A23F470031360064B1B68054A43F03A
:100120002233136000BFBD4680BC704718100240E8
:10013000000801400408014080B500AFFFF7D4FF7C
:1001400000F001F8FCE780B582B000AF00237B60CF
:1001500000F007F878607B68142BF9DDFFF77CFF6F
:10016000F6E780B500AFFFF796FF0346184680BD5F
:1001700080B500AF00F002F800BF80BD80B586B04A
:1001800000AF1C4A1C4BD31ABB601C4A1C4BD31A31
:100190007B601C4B7B61184B3B610023FB730DE0C4
:1001A0007B691B78DAB23B691A703B6901333B61AA
:1001B0007B6901337B61FB7B0133FB73FB7BBA689B
:1001C0009A42EDD80E4B3B610023FB7308E03B697C
:1001D00000221A703B6901333B61FB7B0133FB73E7
:1001E000FB7B7A689A42F2D8FFF7A6FF00BF183768
:1001F000BD4680BD0000002000000020000000205F
:080200000000002008020008C4
:0400000508000000EF
:00000001FF
