:020000040800F2
:10000000E8030020510200085102000851020008D4
:1000100000000000000000000000000000000000E0
:1000200000000000000000000000000000000000D0
:1000300000000000000000000000000000000000C0
:1000400000000000000000000000000000000000B0
:1000500000000000000000000000000000000000A0
:100060000000000000000000000000000000000090
:100070000000000000000000000000000000000080
:100080000000000000000000000000000000000070
:100090000000000000000000000000000000000060
:1000A0000000000000000000000000000000000050
:1000B0000000000000000000000000000000000040
:1000C000000000000000000080B500AF012000F03B
:1000D00029F8054800F00AF8002000F023F802484B
:1000E00000F004F8F2E700BFA086010080B483B0FE
:1000F00000AF786002E07B68013B7B607B68002B8F
:10010000F9D100BF00BF0C37BD4680BC704780B43A
:1001100000AF034B1B68DBB21846BD4680BC70477E
:100120000808014080B483B000AF78607B68012B81
:1001300006D10A4B1B68094A43F40053136008E0D8
:100140007B68002B05D1054B1B68044A23F4005340
:10015000136000BF0C37BD4680BC70470C080140DF
:1001600080B400AF0F4B1B680E4A43F004031360CA
:100170000D4B1B680C4A23F4700313600A4B0A4AA8
:100180001B681360094B1B68084A23F47003136053
:10019000064B1B68054A43F02233136000BFBD467F
:1001A00080BC70471810024000080140040801405C
:1001B00080B500AFFFF7D4FF00F002F8FCE70000C5
:1001C00080B582B000AF194B1B68184A43F0080392
:1001D0001360174B4FF033321A60164B43F2333231
:1001E0001A60134B1B68124A43F0CC331360114B57
:1001F0001B68104A43F44C4343F0CC0313600023C4
:100200007B600D4B1B68DBB27B600C4B1A687B6814
:100210000A4953400B607B68132B03DD0120FFF775
:1002200081FFEEE70020FFF77DFFEAE718100240AC
:10023000000C0140040C0140080801400C0C014076
:1002400080B500AFFFF763FF0346184680BD00008E
:1002500080B584B000AF154A154BD31AFB60154B1F
:10026000BB60134B7B6007E0BA68531CBB607B68C4
:10027000591C796012781A70FB685A1EFA60002BBC
:10028000F2D10D4A0D4BD31AFB600C4B7B6004E09E
:100290007B685A1C7A60FF221A70FB685A1EFA604B
:1002A000002BF5D1FFF784FFFCE700BF0000002022
:1002B00000000020C0020008000000200000002014
:04000005080002519C
:00000001FF
