:1000000029C000000C94790A0C94B60A0C94F30AE7
:10001000BEC4000064C400003AC0000038C0000044
:1000200036C0000034C000001BC40000BBC3000089
:10003000EDC40000F8C600002AC0000028C000007F
:1000400082C7000024C0000022C0000020C00000C1
:100050001EC0000011241FBECFE5D8E0DEBFCDBF1B
:1000600010E0A0E6B0E0E6E5F0E202C005900D92F7
:10007000A836B107D9F720E0A8E6B0E001C01D928C
:10008000A438B207E1F70E94300B0C942910B8CFC6
:100090000F93CF93DF9300D000D01F92CDB7DEB780
:1000A00089836A834B832C830D838981882F90E019
:1000B00082309105E9F1833091051CF4019741F0FC
:1000C0005DC083309105E1F0049709F444C056C047
:1000D00083E590E023E530E0F90120812F7BFC01EE
:1000E000208383E590E023E530E0F9012081277F3C
:1000F000FC0120838CE590E02A81FC01208350C024
:1001000083E590E023E530E0F90120812F7BFC01BD
:10011000208383E590E023E530E0F9012081286029
:10012000FC0120838CE590E02A81FC01208338C00B
:1001300083E590E023E530E0F90120812064FC01B3
:10014000208383E590E023E530E0F9012081277FDB
:10015000FC01208325C083E590E023E530E0F90130
:1001600020812064FC01208383E590E023E530E0DA
:10017000F90120812860FC01208312C083E590E012
:1001800023E530E0F90120812F7BFC01208383E50A
:1001900090E023E530E0F9012081277FFC012083F6
:1001A0008B81882F90E08230910519F0039759F0E8
:1001B00014C089E590E029E530E0F9012081226052
:1001C000FC01208313C089E590E029E530E0F901C6
:1001D00020812D7FFC01208309C089E590E029E57D
:1001E00030E0F90120812260FC0120838C81882F7E
:1001F00090E0009719F0019759F014C089E590E05C
:1002000029E530E0F90120812160FC01208313C041
:1002100089E590E029E530E0F90120812E7FFC019D
:10022000208309C089E590E029E530E0F9012081CB
:100230002160FC0120838981823019F0898184301A
:1002400091F483E590E023E530E0F90120812F7EF1
:10025000FC01208383E590E023E530E0F901208173
:100260002062FC0120838D81882F90E083309105EE
:1002700009F448C0843091052CF4009759F0019797
:1002800029F194C08530910509F458C0069709F406
:1002900071C08CC083E590E023E530E0F901208156
:1002A0002160FC01208383E590E023E530E0F90143
:1002B00020812D7FFC01208383E590E023E530E061
:1002C000F90120812B7FFC0120838BC083E590E026
:1002D00023E530E0F90120812E7FFC01208383E5B6
:1002E00090E023E530E0F90120812260FC012083C9
:1002F00083E590E023E530E0F90120812B7FFC01CC
:1003000020836FC083E590E023E530E0F901208190
:100310002160FC01208383E590E023E530E0F901D2
:1003200020812260FC01208383E590E023E530E01A
:10033000F90120812B7FFC01208353C083E590E0ED
:1003400023E530E0F90120812E7FFC01208383E545
:1003500090E023E530E0F90120812D7FFC0120832E
:1003600083E590E023E530E0F90120812460FC0181
:10037000208337C083E590E023E530E0F901208158
:100380002160FC01208383E590E023E530E0F90162
:1003900020812D7FFC01208383E590E023E530E080
:1003A000F90120812460FC0120831BC083E590E0DB
:1003B00023E530E0F90120812E7FFC01208383E5D5
:1003C00090E023E530E0F90120812D7FFC012083BE
:1003D00083E590E023E530E0F90120812B7FFC01EB
:1003E000208382E590E0FC01108200000F900F90C6
:1003F0000F900F900F90DF91CF910F9108950F9371
:10040000CF93DF9300D000D01F92CDB7DEB78983A2
:100410006A834B832C830D838981882F90E08230FF
:100420009105E9F1833091051CF4019741F05DC01D
:1004300083309105E1F0049709F444C056C085E487
:1004400090E025E430E0F9012081277FFC01208342
:1004500085E490E025E430E0F90120812F7BFC0168
:10046000208383E490E02A81FC01208350C085E44E
:1004700090E025E430E0F9012081277FFC01208312
:1004800085E490E025E430E0F90120812064FC015E
:10049000208383E490E02A81FC01208338C085E436
:1004A00090E025E430E0F90120812860FC01208300
:1004B00085E490E025E430E0F90120812F7BFC0108
:1004C000208325C085E490E025E430E0F901208117
:1004D0002860FC01208385E490E025E430E0F90108
:1004E00020812064FC01208312C085E490E025E493
:1004F00030E0F9012081277FFC01208385E490E032
:1005000025E430E0F90120812F7BFC0120838B81E1
:10051000882F90E08230910519F0039759F014C0AC
:1005200089E590E029E530E0F90120812068FC01AF
:10053000208313C089E590E029E530E0F9012081AE
:100540002F77FC01208309C089E590E029E530E0A0
:10055000F90120812F77FC0120838C81882F90E086
:10056000009719F0019759F014C089E590E029E54A
:1005700030E0F90120812064FC01208313C089E56B
:1005800090E029E530E0F90120812F7BFC012083F8
:1005900009C089E590E029E530E0F90120812F7B51
:1005A000FC0120838981823019F08981843091F4A3
:1005B00083E590E023E530E0F90120812F7EFC0106
:1005C000208383E590E023E530E0F901208120627B
:1005D000FC0120838D81882F90E08230910509F401
:1005E0004CC0833091052CF4009779F0019749F1C4
:1005F000B4C08530910509F478C08630910509F4BE
:1006000090C0039709F455C0A8C085E490E025E4A4
:1006100030E0F90120812B7FFC01208385E490E00C
:1006200025E430E0F90120812D7FFC01208385E461
:1006300090E025E430E0F90120812160FC01208375
:10064000A7C085E490E025E430E0F90120812B7F0C
:10065000FC01208385E490E025E430E0F90120816D
:100660002260FC01208385E490E025E430E0F9017C
:1006700020812E7FFC0120838BC085E490E025E45F
:1006800030E0F90120812B7FFC01208385E490E09C
:1006900025E430E0F90120812260FC01208385E41B
:1006A00090E025E430E0F90120812160FC01208305
:1006B0006FC085E490E025E430E0F90120812460FA
:1006C000FC01208385E490E025E430E0F9012081FD
:1006D0002D7FFC01208385E490E025E430E0F901E2
:1006E00020812E7FFC01208353C085E490E025E427
:1006F00030E0F90120812460FC01208385E490E052
:1007000025E430E0F90120812260FC01208385E4AA
:1007100090E025E430E0F90120812E7FFC01208368
:1007200037C085E490E025E430E0F90120812460C1
:10073000FC01208385E490E025E430E0F90120818C
:100740002260FC01208385E490E025E430E0F9019B
:1007500020812160FC0120831BC085E490E025E41A
:1007600030E0F90120812B7FFC01208385E490E0BB
:1007700025E430E0F90120812D7FFC01208385E410
:1007800090E025E430E0F90120812E7FFC012083F8
:1007900000000F900F900F900F900F90DF91CF916E
:1007A0000F9108951F920F9200905F000F921124F5
:1007B0000F932F933F934F935F936F937F938F93F9
:1007C0009F93AF93BF93EF93FF93CF93DF93CDB7F7
:1007D000DEB780917C0090917D00A0917E00B09169
:1007E0007F000197A109B10980937C0090937D005F
:1007F000A0937E00B0937F00809168009091690083
:10080000892BC1F080917C0090917D00A0917E00A9
:10081000B0917F00892B8A2B8B2B61F400E021E0C3
:1008200043E060E081E034DC8091680090916900F1
:10083000FC0109950000DF91CF91FF91EF91BF91ED
:10084000AF919F918F917F916F915F914F913F9168
:100850002F910F910F9000925F000F901F901895AD
:100860001F920F9200905F000F9211240F932F930D
:100870003F934F935F936F937F938F939F93AF9328
:10088000BF93EF93FF93CF93DF93CDB7DEB7809104
:100890006A0090916B00892B61F000E021E043E059
:1008A00060E081E0F5DB80916A0090916B00FC01D3
:1008B00009950000DF91CF91FF91EF91BF91AF912A
:1008C0009F918F917F916F915F914F913F912F9168
:1008D0000F910F9000925F000F901F9018951F923C
:1008E0000F9200905F000F9211240F932F933F936C
:1008F0004F935F936F937F938F939F93AF93BF9328
:10090000EF93FF93CF93DF93CDB7DEB78091800055
:1009100090918100A0918200B09183000197A1097C
:10092000B1098093800090938100A0938200B093DE
:10093000830080916C0090916D00892B91F08091E3
:10094000800090918100A0918200B0918300892B5A
:100950008A2B8B2B31F400E021E043E060E081E062
:100960004EDD0000DF91CF91FF91EF91BF91AF91EC
:100970009F918F917F916F915F914F913F912F91B7
:100980000F910F9000925F000F901F9018951F928B
:100990000F9200905F000F9211240F932F933F93BB
:1009A0004F935F936F937F938F939F93AF93BF9377
:1009B000EF93FF93CF93DF93CDB7DEB780916E00B7
:1009C00090916F00892B61F080916E0090916F0083
:1009D000FC01099500E021E043E060E081E00FDDEB
:1009E0000000DF91CF91FF91EF91BF91AF919F9167
:1009F0008F917F916F915F914F913F912F910F91C7
:100A00000F9000925F000F901F9018951F920F9209
:100A100000905F000F9211242F933F934F935F93A9
:100A20006F937F938F939F93AF93BF93EF93FF93B6
:100A3000CF93DF93CDB7DEB78091700090917100B6
:100A4000892B31F08091700090917100FC01099523
:100A50000000DF91CF91FF91EF91BF91AF919F91F6
:100A60008F917F916F915F914F913F912F910F9057
:100A700000925F000F901F901895CF93DF9300D0E6
:100A80001F92CDB7DEB789836A834B838B8188231E
:100A900009F06CC08981882F90E08130910519F1AF
:100AA000823091051CF4892B41F0CBC08230910536
:100AB00081F1039709F443C0C4C08AE390E02AE3BC
:100AC00030E0F9012081622F2A81422F50E021E09D
:100AD00030E002C0220F331F4A95E2F7209526230B
:100AE000FC012083AEC087E390E027E330E0F9010A
:100AF0002081622F2A81422F50E021E030E002C0A5
:100B0000220F331F4A95E2F720952623FC0120830C
:100B100098C084E390E024E330E0F9012081622F63
:100B20002A81422F50E021E030E002C0220F331F23
:100B30004A95E2F720952623FC01208382C081E3B9
:100B400090E021E330E0F9012081622F2A81422FD9
:100B500050E021E030E002C0220F331F4A95E2F757
:100B600020952623FC01208300006BC08B818130FF
:100B700009F067C08981882F90E08130910511F1DB
:100B8000823091051CF4892B41F05BC082309105C5
:100B900071F1039709F440C054C08AE390E02AE35E
:100BA00030E0F9012081622F2A81422F50E021E0BC
:100BB00030E002C0220F331F4A95E2F7262BFC01DA
:100BC00020833FC087E390E027E330E0F9012081F4
:100BD000622F2A81422F50E021E030E002C0220F34
:100BE000331F4A95E2F7262BFC0120832AC084E3B9
:100BF00090E024E330E0F9012081622F2A81422F26
:100C000050E021E030E002C0220F331F4A95E2F7A6
:100C1000262BFC01208315C081E390E021E330E026
:100C2000F9012081622F2A81422F50E021E030E03B
:100C300002C0220F331F4A95E2F7262BFC012083C6
:100C4000000000000F900F900F90DF91CF9108955A
:100C5000CF93DF9300D01F92CDB7DEB789836A832D
:100C60004B838B81813009F068C08981882F90E0A7
:100C70008130910511F1823091051CF4892B41F0EE
:100C8000CBC08230910571F1039709F440C0C4C014
:100C90008BE390E02BE330E0F9012081622F2A8181
:100CA000422F50E021E030E002C0220F331F4A956E
:100CB000E2F7262BFC012083AFC088E390E028E315
:100CC00030E0F9012081622F2A81422F50E021E09B
:100CD00030E002C0220F331F4A95E2F7262BFC01B9
:100CE00020839AC085E390E025E330E0F90120817C
:100CF000622F2A81422F50E021E030E002C0220F13
:100D0000331F4A95E2F7262BFC01208385C082E33E
:100D100090E022E330E0F9012081622F2A81422F06
:100D200050E021E030E002C0220F331F4A95E2F785
:100D3000262BFC01208300006FC08B81882309F0E3
:100D40006BC08981882F90E08130910519F1823044
:100D500091051CF4892B41F05FC08230910581F12F
:100D6000039709F443C058C08BE390E02BE330E0D5
:100D7000F9012081622F2A81422F50E021E030E0EA
:100D800002C0220F331F4A95E2F720952623FC016B
:100D9000208342C088E390E028E330E0F90120811D
:100DA000622F2A81422F50E021E030E002C0220F62
:100DB000331F4A95E2F720952623FC0120832CC09F
:100DC00085E390E025E330E0F9012081622F2A815C
:100DD000422F50E021E030E002C0220F331F4A953D
:100DE000E2F720952623FC01208316C082E390E0E1
:100DF00022E330E0F9012081622F2A81422F50E066
:100E000021E030E002C0220F331F4A95E2F720951F
:100E10002623FC012083000000000F900F900F900C
:100E2000DF91CF9108951F920F9200905F000F9273
:100E300011242F933F934F935F936F937F938F93DF
:100E40009F93AF93BF93EF93FF93CF93DF931F9243
:100E5000CDB7DEB78CE290E0FC0180818983809180
:100E6000720090917300892B41F0209172003091B3
:100E70007300CE010196F901099500000F90DF91F2
:100E8000CF91FF91EF91BF91AF919F918F917F9102
:100E90006F915F914F913F912F910F9000925F0062
:100EA0000F901F901895CF93DF93CDB7DEB787E2F1
:100EB00090E027E230E0F90120812F7BFC012083C4
:100EC00087E290E027E230E0F90120812F77FC01F2
:100ED000208387E290E027E230E0F9012081206260
:100EE000FC01208386E290E026E230E0F9012081D7
:100EF0002F7DFC01208386E290E026E230E0F901BC
:100F000020812160FC01208386E290E026E230E02F
:100F1000F90120812260FC01208386E290E026E234
:100F200030E0F90120812460FC01208386E290E01A
:100F300026E230E0F90120812068FC0120830000D6
:100F4000DF91CF9108951F920F9200905F000F9252
:100F500011242F933F934F935F936F937F938F93BE
:100F60009F93AF93BF93EF93FF93CF93DF9300D003
:100F7000CDB7DEB785E290E0FC018081882F90E05C
:100F80009A8389838091740090917500892B41F038
:100F9000209174003091750089819A81F901099539
:100FA00000000F900F90DF91CF91FF91EF91BF91D3
:100FB000AF919F918F917F916F915F914F913F91F1
:100FC0002F910F9000925F000F901F901895CF9374
:100FD000DF9300D01F92CDB7DEB789837B836A830E
:100FE00087E290E027E230E0F9012081207EFC01D9
:100FF000208387E290E027E230E0F9013081298107
:10100000232BFC01208386E290E026E230E0F90108
:1010100020812064FC012083000086E290E0FC0136
:10102000808182958F70882F90E081709927892B1D
:10103000A1F386E290E026E230E0F9012081206110
:10104000FC01208385E290E0FC018081282F30E0C4
:101050008A819B81FC013183208300000F900F90D7
:101060000F90DF91CF910895AF92BF92CF92DF9210
:10107000EF92FF920F931F93CF93DF93CDB7DEB71D
:101080002D970FB6F894DEBF0FBECDBF8B834C8378
:101090005D836E837F83088719872A873B87FD8658
:1010A000EC86CE010196BC018B8191DF89819A810A
:1010B0007C0100E010E0288539854A855B858C81BC
:1010C0009D81AE81BF8159016A01A81AB90ACA0A75
:1010D000DB0AD601C501A8019701BC01CD016FD77C
:1010E000DC01CB012FEF30E040E050E0BC01CD014E
:1010F00075D7DA01C9019C018C819D81280F391FA8
:101100008C859D85FC013183208300002D960FB6D0
:10111000F894DEBF0FBECDBFDF91CF911F910F912D
:10112000FF90EF90DF90CF90BF90AF900895CF9356
:10113000DF9300D0CDB7DEB789836A838981882F9A
:1011400090E08130910509F4B1C08230910509F435
:1011500057C1892B09F0ABC18A81882F90E08A3072
:101160009105A9F08B3091053CF4009709F47FC0FC
:10117000019709F486C08FC08C30910509F43FC0F7
:101180008C30910504F10D9709F455C084C085E5B4
:1011900090E025E530E0F90120812D7FFC012083DE
:1011A00085E590E025E530E0F90120812E7FFC0106
:1011B00020838BE590E02BE530E0F901208120646D
:1011C000FC01208372C085E590E025E530E0F9015F
:1011D00020812160FC01208385E590E025E530E059
:1011E000F90120812D7FFC0120838BE590E02BE528
:1011F00030E0F90120812064FC01208356C085E5A0
:1012000090E025E530E0F90120812E7FFC0120836C
:1012100085E590E025E530E0F90120812260FC01C0
:1012200020838BE590E02BE530E0F90120812064FC
:10123000FC0120833AC085E590E025E530E0F90126
:1012400020812260FC01208385E590E025E530E0E7
:10125000F90120812160FC0120838BE590E02BE5E2
:1012600030E0F90120812064FC0120831EC08BE561
:1012700090E02BE530E0F90120812F7BFC012083F9
:1012800014C08BE590E02BE530E0F901208120646B
:10129000FC0120830AC08BE590E02BE530E0F901EA
:1012A00020812F7BFC01208300001DC18A81882FB3
:1012B00090E08A309105A9F08B3091053CF40097BD
:1012C00009F47FC0019709F486C08FC08C30910566
:1012D00009F43FC08C30910504F10D9709F455C015
:1012E00084C085E590E025E530E0F9012081277F85
:1012F000FC01208385E590E025E530E0F9012081BF
:101300002B7FFC0120838BE590E02BE530E0F90199
:1013100020812068FC01208372C085E590E025E5EE
:1013200030E0F90120812460FC01208385E590E014
:1013300025E530E0F9012081277FFC0120838BE542
:1013400090E02BE530E0F90120812068FC0120834A
:1013500056C085E590E025E530E0F90120812B7F3E
:10136000FC01208385E590E025E530E0F90120814E
:101370002860FC0120838BE590E02BE530E0F9014B
:1013800020812068FC0120833AC085E590E025E5B6
:1013900030E0F90120812460FC01208385E590E0A4
:1013A00025E530E0F90120812860FC0120838BE5F0
:1013B00090E02BE530E0F90120812068FC012083DA
:1013C0001EC08BE590E02BE530E0F90120812F77FE
:1013D000FC01208314C08BE590E02BE530E0F9019F
:1013E00020812068FC0120830AC08BE590E02BE57A
:1013F00030E0F90120812F77FC012083000073C0C9
:101400008A81882F90E081309105E1F18230910549
:101410001CF4892B69F140C08C30910519F00D97AF
:10142000A1F03AC084E590E024E530E0F9012081A4
:101430002F7BFC0120838BE590E02BE530E0F90168
:1014400020812062FC01208331C084E590E024E506
:1014500030E0F90120812160FC0120838BE590E0E0
:101460002BE530E0F90120812062FC0120831EC0C1
:101470008BE590E02BE530E0F90120812F7DFC0128
:10148000208314C08BE590E02BE530E0F90120814A
:101490002062FC0120830AC08BE590E02BE530E060
:1014A000F90120812F7DFC01208300001CC08BE509
:1014B00090E02BE530E0F90120812F7BFC012083B7
:1014C0008BE590E02BE530E0F90120812F77FC01DE
:1014D00020838BE590E02BE530E0F90120812F7D22
:1014E000FC012083000000000F900F90DF91CF914E
:1014F00008951F920F9200905F000F9211242F9376
:101500003F934F935F936F937F938F939F93AF938B
:10151000BF93EF93FF93CF93DF93CDB7DEB7809167
:10152000760090917700892B61F060E080E0FFDD2C
:101530008091760090917700FC01099561E080E050
:10154000F6DD0000DF91CF91FF91EF91BF91AF9158
:101550009F918F917F916F915F914F913F912F91CB
:101560000F9000925F000F901F9018951F920F929E
:1015700000905F000F9211242F933F934F935F933E
:101580006F937F938F939F93AF93BF93EF93FF934B
:10159000CF93DF93CDB7DEB780917800909179003B
:1015A000892B61F060E081E0C2DD8091780090914C
:1015B0007900FC01099561E081E0B9DD0000DF916F
:1015C000CF91FF91EF91BF91AF919F918F917F91BB
:1015D0006F915F914F913F912F910F9000925F001B
:1015E0000F901F9018951F920F9200905F000F921E
:1015F00011242F933F934F935F936F937F938F9318
:101600009F93AF93BF93EF93FF93CF93DF93CDB7A8
:10161000DEB780917A0090917B00892B61F060E0C9
:1016200082E085DD80917A0090917B00FC01099534
:1016300061E082E07CDD0000DF91CF91FF91EF91CE
:10164000BF91AF919F918F917F916F915F914F91DA
:101650003F912F910F9000925F000F901F9018956F
:10166000EF92FF920F931F93CF93DF93CDB7DEB727
:10167000A3970FB6F894DEBF0FBECDBF88E0E0E6BB
:10168000F0E0DE011A9601900D928A95E1F75DD1A6
:101690000ADCCE010A9620E041E060E025D485D442
:1016A000CE0142967C0104E610E020E030E040E00C
:1016B00050E0BA0180E0D8DC8A899B899E012C5ECB
:1016C0003F4FB90155D071D4CE01449642D4CE01DA
:1016D00042967C0100E110E020E030E040E050E084
:1016E000BA0180E0C1DC60E081E0E7D3198205C087
:1016F00080E09ED289818F5F89838981282F30E0A5
:101700008A899B892817390798F31A821B821C82C1
:101710001D8224C01E821F82188619860BC08E81EE
:101720009F81A885B9850196A11DB11D8E839F83D8
:10173000A887B9878E819F81A885B9858F3F91053C
:10174000A105B10560F38A819B81AC81BD810196C1
:10175000A11DB11D8A839B83AC83BD838A819B813C
:10176000AC81BD818D379105A105B10598F298CF67
:10177000CF93DF9300D000D000D0CDB7DEB79C83ED
:101780008B837E836D8319828B819C81892B09F0E9
:1017900042C0898191E0980F9983882F90E02D8134
:1017A0003E81820F931F20E3FC01208338C0898192
:1017B000882F90E02D813E81F901E80FF91F4B81C0
:1017C0005C819A01ADECBCEC2BD4969587959695EF
:1017D000879596958795880F991F9C01220F331F37
:1017E000220F331F820F931F9A01281B390BC90147
:1017F000805D808389818F5F89838B819C819C013F
:10180000ADECBCEC0DD496958795969587959695FD
:1018100087959C838B838B819C81892B41F6898161
:10182000882F90E02D813E81820F931FFC01108252
:101830001A827AC08A81882F90E02D813E81820FA2
:10184000931F2A81222F30E04D815E81240F351FA6
:10185000F90160812981422F50E02A81222F30E056
:10186000FA01E21BF30B9F01215031094D815E818A
:10187000240F351FF90120812627FC01208389814F
:10188000282F30E08A81882F90E0A901481B590B4E
:10189000CA0101972D813E81820F931F2981422F1A
:1018A00050E02A81222F30E0BA01621B730B9B01AA
:1018B000215031094D815E81240F351FF90160816E
:1018C0002A81222F30E04D815E81240F351FF901DE
:1018D00020812627FC0120838A81882F90E02D819A
:1018E0003E81820F931F2A81222F30E04D815E813D
:1018F000240F351FF90160812981422F50E02A8190
:10190000222F30E0FA01E21BF30B9F012150310935
:101910004D815E81240F351FF90120812627FC01AE
:1019200020838A818F5F8A838981982F96958A8107
:10193000891708F47FCF000026960FB6F894DEBF13
:101940000FBECDBFDF91CF910895CF93DF93CDB779
:10195000DEB728970FB6F894DEBF0FBECDBF41E0CB
:1019600061E081E08AD841E062E081E086D841E030
:1019700063E081E082D840E063E081E069D941E042
:1019800064E081E07AD841E065E081E076D841E02A
:1019900066E081E072D841E067E081E06ED81982AC
:1019A0001A821B821C8224C01D821E821F821886FE
:1019B0000BC08D819E81AF81B8850196A11DB11D9F
:1019C0008D839E83AF83B8878D819E81AF81B885DB
:1019D0008F3F9105A105B10560F389819A81AB81A3
:1019E000BC810196A11DB11D89839A83AB83BC8301
:1019F00089819A81AB81BC810A97A105B105A0F2CA
:101A000082E010D088E20ED08CE00CD086E00AD0C4
:101A1000000028960FB6F894DEBF0FBECDBFDF9151
:101A2000CF910895CF93DF93CDB7DEB76D970FB603
:101A3000F894DEBF0FBECDBF8D8F40E061E081E046
:101A400007D940E062E081E003D98D8D82958F70E7
:101A50008170482F64E081E0FBD88D8D829586955A
:101A600087708170482F65E081E0F2D88D8D829576
:101A70008695869583708170482F66E081E0E8D86E
:101A80008D8D881F8827881F482F67E081E0E0D868
:101A900041E063E081E0DCD819821A821B821C825B
:101AA00024C01D821E821F8218860BC08D819E81DC
:101AB000AF81B8850196A11DB11D8D839E83AF8333
:101AC000B8878D819E81AF81B8858F3F9105A10533
:101AD000B10560F389819A81AB81BC810196A11D1A
:101AE000B11D89839A83AB83BC8389819A81AB8141
:101AF000BC81892B8A2B8B2BA1F240E063E081E033
:101B0000A7D819861A861B861C8624C01D861E86A9
:101B10001F86188A0BC08D859E85AF85B889019672
:101B2000A11DB11D8D879E87AF87B88B8D859E8542
:101B3000AF85B8898F3F9105A105B10560F389850F
:101B40009A85AB85BC850196A11DB11D89879A87B1
:101B5000AB87BC8789859A85AB85BC850C97A10529
:101B6000B105A0F28D8D8170482F64E081E070D8BE
:101B70008D8D86958170482F65E081E069D88D8DC7
:101B8000869586958170482F66E081E061D88D8DBD
:101B90008695869586958170482F67E081E058D8B4
:101BA00041E063E081E054D8198A1A8A1B8A1C8AB2
:101BB00024C01D8A1E8A1F8A188E0BC08D899E899B
:101BC000AF89B88D0196A11DB11D8D8B9E8BAF8BFA
:101BD000B88F8D899E89AF89B88D8F3F9105A105FA
:101BE000B10560F389899A89AB89BC890196A11DE9
:101BF000B11D898B9A8BAB8BBC8B89899A89AB89F8
:101C0000BC89892B8A2B8B2BA1F240E063E081E019
:101C10001FD8198E1A8E1B8E1C8E000000006D9628
:101C20000FB6F894DEBF0FBECDBFDF91CF91089500
:101C3000CF93DF93CDB7DEB7A5970FB6F894DEBF8D
:101C40000FBECDBF8DA319821A821B821C8224C0B5
:101C50001D821E821F8218860BC08D819E81AF81DE
:101C6000B8850196A11DB11D8D839E83AF83B88772
:101C70008D819E81AF81B8858F3F9105A105B1050A
:101C800060F389819A81AB81BC810196A11DB11D50
:101C900089839A83AB83BC8389819A81AB81BC8120
:101CA0000C97A105B105A0F241E061E081E00E943E
:101CB000280640E062E081E00E9428068DA182951E
:101CC0008F708170482F64E081E00E9428068DA10A
:101CD0008295869587708170482F65E081E00E942B
:101CE00028068DA182958695869583708170482FF0
:101CF00066E081E00E9428068DA1881F8827881F42
:101D0000482F67E081E00E94280641E063E081E01F
:101D10000E94280619861A861B861C8624C01D86EA
:101D20001E861F86188A0BC08D859E85AF85B88953
:101D30000196A11DB11D8D879E87AF87B88B8D85BC
:101D40009E85AF85B8898F3F9105A105B10560F3E8
:101D500089859A85AB85BC850196A11DB11D8987B2
:101D60009A87AB87BC8789859A85AB85BC85892B8B
:101D70008A2B8B2BA1F240E063E081E00E942806D1
:101D8000198A1A8A1B8A1C8A24C01D8A1E8A1F8AE5
:101D9000188E0BC08D899E89AF89B88D0196A11DC3
:101DA000B11D8D8B9E8BAF8BB88F8D899E89AF892E
:101DB000B88D8F3F9105A105B10560F389899A8996
:101DC000AB89BC890196A11DB11D898B9A8BAB8B08
:101DD000BC8B89899A89AB89BC890C97A105B1050F
:101DE000A0F28DA18170482F64E081E00E94280656
:101DF0008DA186958170482F65E081E00E942806BC
:101E00008DA1869586958170482F66E081E00E94BD
:101E100028068DA18695869586958170482F67E066
:101E200081E00E94280641E063E081E00E942806EC
:101E3000198E1A8E1B8E1C8E24C01D8E1E8E1F8E18
:101E400018A20BC08D8D9E8DAF8DB8A10196A11DDE
:101E5000B11D8D8F9E8FAF8FB8A38D8D9E8DAF8D51
:101E6000B8A18F3F9105A105B10560F3898D9A8DC9
:101E7000AB8DBC8D0196A11DB11D898F9A8FAB8F43
:101E8000BC8F898D9A8DAB8DBC8D892B8A2B8B2B2A
:101E9000A1F240E063E081E00E94280619A21AA2A4
:101EA0001BA21CA200000000A5960FB6F894DEBF8E
:101EB0000FBECDBFDF91CF910895CF93DF9300D0B8
:101EC000CDB7DEB789836A838981982F9295990F60
:101ED000990F907C8A81890F8068A4DD00000F90A3
:101EE0000F90DF91CF910895CF93DF9300D000D072
:101EF00000D0CDB7DEB79B838A836C834D832E835E
:101F00008C81882F90E00896880F880F880F8ADDD3
:101F100019820DC08981882F90E02A813B81820F30
:101F2000931FFC01808184DE89818F5F8983898191
:101F3000883080F36E818D81C0DF8C8179DE000076
:101F400026960FB6F894DEBF0FBECDBFDF91CF91BE
:101F50000895CF93DF9300D01F92CDB7DEB79B8358
:101F60008A8319820DC08981882F90E02A813B8164
:101F7000820F931FFC0180815BDE89818F5F8983E3
:101F80008981882F90E02A813B81820F931FFC0179
:101F90008081882319F08981803128F300000F9017
:101FA0000F900F90DF91CF910895CF93DF93CDB72E
:101FB000DEB781E037DD0000DF91CF910895DB01CE
:101FC0008F939F933CD0BF91AF91A29F800D911DA5
:101FD000A39F900DB29F900D11240895A1E21A2E97
:101FE000AA1BBB1BFD010DC0AA1FBB1FEE1FFF1FBD
:101FF000A217B307E407F50720F0A21BB30BE40B0D
:10200000F50B661F771F881F991F1A9469F7609553
:102010007095809590959B01AC01BD01CF0108950D
:10202000A29FB001B39FC001A39F700D811D112419
:10203000911DB29F700D811D1124911D0895F0DF37
:10204000A59F900DB49F900DA49F800D911D11240C
:062050000895F894FFCF93
:08205600000A1F1F0E04000028
:00000001FF
