:020000040800F2
:10000000FF270020B51B0008FD1B0008FD1B000892
:10001000FD1B0008FD1B0008FD1B00080000000080
:10002000000000000000000000000000FD1B0008B0
:10003000FD1B000800000000FD1B0008FD1B000860
:10004000FD1B0008FD1B0008FD1B0008FD1B000830
:10005000FD1B0008FD1B0008490400086904000896
:1000600089040008A9040008C9040008FD1B000851
:10007000FD1B0008FD1B0008FD1B0008FD1B000800
:10008000FD1B0008FD1B0008FD1B0008FD1B0008F0
:10009000FD1B0008FD1B0008FD1B0008E90400080B
:1000A000FD1B0008FD1B0008FD1B0008FD1B0008D0
:1000B000FD1B0008FD1B000800000000FD1B0008E0
:1000C000FD1B00080000000000000000FD1B0008F0
:1000D00000000000FD1B0008FD1B000800000000E0
:1000E00091050008FD1B0008FD1B00080000000032
:1000F0000000000000000000000000000000000000
:0C01000000000000000000005FF808F1A3
:10010C000348044B834202D0034B03B1184770479A
:10011C00680400206804002000000000054806491F
:10012C000B1AD90F01EBA301491002D0034B03B1F9
:10013C001847704768040020680400200000000085
:10014C0010B5064C237843B9FFF7DAFF044B13B113
:10015C000448AFF300800123237010BD6804002015
:10016C0000000000141C000808B5044B1BB1044926
:10017C000448AFF30080BDE80840CFE70000000062
:10018C006C040020141C0008A3F5803A704700BFD3
:10019C00154B002B08BF114B9D46FFF7F5FF0021B7
:1001AC008B460F461148124A121A01F01FFC0C4BD9
:1001BC00002B00D098470B4B002B00D09847002009
:1001CC00002104000D000B4801F0C0FB01F0EAFB1C
:1001DC002000290000F000FD01F0BEFB000008002B
:1001EC000000000000000000000000006804002077
:1001FC00C40400208519000890B482B000AFB88008
:10020C007B79012B13D1164A3B795B09D8B2034693
:10021C0052F823303A7902F01F02012101FA02F25E
:10022C0014460F4A0146234342F8213013E00C4A8E
:10023C003B795B09D8B20346203352F823303A7924
:10024C0002F01F02012101FA02F205491A4300F1E2
:10025C00200341F8232000BF0837BD4690BC7047EF
:10026C0000E100E090B58BB000AF3B1D83E80700C8
:10027C00002387F82030042387F82130002387F8E7
:10028C002230694B07F110040FCB84E80F00674B49
:10029C009B69664A43F0010393617B7987F82030B0
:1002AC003B79396A184600F011FA614A7B799B0850
:1002BC00D8B20346023352F823307A7902F00302A3
:1002CC0092000F2101FA02F2D24359491A40831CC1
:1002DC0041F82320564A7B799B08D8B20346023357
:1002EC0052F823303A7911467A7902F003029200DF
:1002FC0001FA02F24E491A43831C41F82320BB79C0
:10030C00032B32D0032B45DC012B02D0022B16D051
:10031C0040E0484BDB687A79114601228A4011464D
:10032C00444A0B43D360434B9B687A7911460122B4
:10033C008A40D24311463F4A0B4093602AE03D4B22
:10034C009B687A79114601228A401146394A0B433F
:10035C009360384BDB687A79114601228A40D2438C
:10036C001146344A0B40D36014E0324B9B687A79C7
:10037C00114601228A4011462E4A0B4393602D4BA5
:10038C00DB687A79114601228A401146294A0B43CF
:10039C00D36000BFFB79012B0AD1264B1B687A79FD
:1003AC00114601228A401146224A0B4313600AE08F
:1003BC00204B1B687A79114601228A40D2431146A0
:1003CC001C4A0B4013603B7A012B0AD1194B5B681A
:1003DC007A79114601228A401146164A0B43536022
:1003EC000AE0144B5B687A79114601228A40D243A9
:1003FC001146104A0B4053607B791946D7F80930E7
:10040C000D4A42F821307B7928333B4413F8183CD1
:10041C0087F82430012387F82530786AFFF7ECFE43
:10042C0000BF2C37BD4690BD541C00080010024084
:10043C0000000140000401408404002080B500AF9E
:10044C00044B1B689847044A536943F001035361FA
:10045C0000BF80BD840400200004014080B500AFC3
:10046C00044B5B689847044A536943F00203536199
:10047C0000BF80BD840400200004014080B500AFA3
:10048C00044B9B689847044A536943F00403536137
:10049C0000BF80BD840400200004014080B500AF83
:1004AC00044BDB689847044A536943F008035361D3
:1004BC0000BF80BD840400200004014080B500AF63
:1004CC00044B1B699847044A536943F0100353616A
:1004DC0000BF80BD840400200004014080B500AF43
:1004EC00264B5B69C3F34013DBB2002B07D0244BC4
:1004FC005B699847214A536943F0200353611F4BB2
:10050C005B69C3F38013DBB2002B07D01C4B9B69D8
:10051C0098471A4A536943F040035361174B5B6980
:10052C00C3F3C013DBB2002B07D0154BDB69984724
:10053C00124A536943F080035361104B5B69C3F358
:10054C000023DBB2002B07D00D4B1B6A98470B4ADC
:10055C00536943F480735361084B5B69C3F34023C5
:10056C00DBB2002B07D0064B5B6A9847034A5369F2
:10057C0043F40073536100BF80BD00BF0004014011
:10058C008404002080B500AF264B5B69C3F3802345
:10059C00DBB2002B07D0244B5B699847214A536987
:1005AC0043F4806353611F4B5B69C3F30033DBB2CD
:1005BC00002B07D01C4B9B6998471A4A536943F48C
:1005CC0080535361174B5B69C3F34033DBB2002B91
:1005DC0007D0154BDB699847124A536943F4005313
:1005EC005361104B5B69C3F38033DBB2002B07D034
:1005FC000D4B1B6A98470B4A536943F48043536174
:10060C00084B5B69C3F3C033DBB2002B07D0064B3E
:10061C005B6A9847034A536943F40043536100BF34
:10062C0080BD00BF000401408404002080B485B06C
:10063C0000AF03460A46FB711346BB710023FB60F7
:10064C00FB79032B16D801A252F823F06906000897
:10065C006F060008750600087B060008174BFB6048
:10066C0008E0174BFB6005E0164BFB6002E0164BF5
:10067C00FB6000BFBB79012202FA03F343F4803222
:10068C00FB689A61FA68936943F480339361FA6862
:10069C0093696FF310439361FA68936943F4803361
:1006AC009361FB689B69C3F30043FB689B69C3F3CD
:1006BC00004300BF1437BD4680BC704700080140A2
:1006CC00000C0140001001400014014080B485B0C2
:1006DC0000AF03463960FB710023FB600023BB6055
:1006EC00FB79032B2ED801A252F823F0090700083E
:1006FC001B0700082D0700083F070008354B9B69B6
:10070C00344A43F004039361334BFB601AE0314BE2
:10071C009B69304A43F008039361304BFB6011E056
:10072C002C4B9B692B4A43F0100393612C4BFB60C1
:10073C0008E0284B9B69274A43F020039361294B1F
:10074C00FB6000BF3B78072B02D8FB68BB6006E060
:10075C003B78083BDBB23B70FB680433BB607B78B7
:10076C000F2B0CD1FB68DB683A78114601228A40CA
:10077C00D2431A40FB68DA6008237B700BE07B786D
:10078C00082B08D1FB68DB683A78114601228A40B5
:10079C001A43FB68DA60BB681A683B789B000F2130
:1007AC0001FA03F3DB431A40BB681A60BB681A6892
:1007BC00B9787B780B43DBB219463B789B0001FA86
:1007CC0003F31A43BB681A6000BF1437BD4680BCE4
:1007DC00704700BF0010024000080140000C0140AF
:1007EC00001001400014014080B485B000AF0346F6
:1007FC000A46FB711346BB710023FB60FB79032B8C
:10080C0016D801A252F823F0250800082B0800087E
:10081C0031080008370800080C4BFB6008E00C4B53
:10082C00FB6005E00B4BFB6002E00B4BFB6000BF79
:10083C00FB689A68BB7922FA03F3DBB203F001037D
:10084C00DBB218461437BD4680BC70470008014027
:10085C00000C0140001001400014014080B485B030
:10086C0000AF0346FB710B46BB7113467B71002333
:10087C00FB60FB79032B17D801A252F823F000BFC1
:10088C009D080008A3080008A9080008AF08000884
:10089C00104BFB6008E0104BFB6005E00F4BFB605E
:1008AC0002E00F4BFB6000BF7B79012B05D1BB79BC
:1008BC00012202FA03F31A4605E0BB791033012238
:1008CC0002FA03F31A46FB681A6100BF1437BD46DF
:1008DC0080BC704700080140000C01400010014032
:1008EC000014014080B485B000AF03460A46FB718A
:1008FC001346BB710023FB60FB79032B16D801A2B6
:10090C0052F823F021090008270900082D090008D6
:10091C00330900080C4BFB6008E00C4BFB6005E056
:10092C000B4BFB6002E00B4BFB6000BFFB68DB6812
:10093C00BA79012101FA02F25A40FB68DA6000BF71
:10094C001437BD4680BC704700080140000C0140C4
:10095C00001001400014014080B485B000AF034684
:10096C00FB710023FB60FB79032B17D801A252F813
:10097C0023F000BF91090008970900089D090008A1
:10098C00A3090008094BFB6008E0094BFB6005E07C
:10099C00084BFB6002E0084BFB6000BFFB689B68E8
:1009AC009BB218461437BD4680BC70470008014006
:1009BC00000C0140001001400014014080B485B0CF
:1009CC0000AF03460A46FB711346BB800023FB6055
:1009DC00FB79032B16D801A252F823F0F909000871
:1009EC00FF090008050A00080B0A0008094BFB6008
:1009FC0008E0094BFB6005E0084BFB6002E0084B8C
:100A0C00FB6000BFBA88FB68DA6000BF1437BD46D4
:100A1C0080BC704700080140000C014000100140F0
:100A2C000014014080B485B000AF0346FB71002375
:100A3C00FB60FB79032B17D801A252F823F000BFFF
:100A4C005D0A0008630A0008690A00086F0A0008BA
:100A5C000A4BFB6008E00A4BFB6005E0094BFB60AE
:100A6C0002E0094BFB6000BFFB68DB68DA43FB6804
:100A7C00DA6000BF1437BD4680BC704700080140E7
:100A8C00000C0140001001400014014080B400AF84
:100A9C00154B1B68144A43F001031360124B5A6840
:100AAC001149124B13404B600F4B1B680E4A23F03D
:100ABC00847323F4803313600B4B1B680A4A23F4B2
:100ACC0080231360084B5B68074A23F4FE035360D2
:100ADC00054B4FF41F029A60054B4FF000629A6071
:100AEC0000BFBD4680BC7047001002400000FFF8FC
:100AFC0000ED00E080B485B000AF0023FB60002364
:100B0C00BB6000237B602F4B5B6803F00C03FB6026
:100B1C00FB68082B11D0FB68082B3AD8FB68002B1C
:100B2C0003D0FB68042B04D033E0274B274A1A6010
:100B3C0033E0254B254A1A602FE0224B5B6803F407
:100B4C007013BB601F4B5B6803F480337B60BB6826
:100B5C009B0C0233BB607B68002B06D1BB681C4A24
:100B6C0002FB03F3184A136017E0164B5B6803F49F
:100B7C000033002B06D0BB68154A02FB03F3124A64
:100B8C0013600AE0BB68114A02FB03F30E4A1360C0
:100B9C0003E00D4B0D4A1A6000BF0A4B5B681B0942
:100BAC0003F00F030B4AD35CFB60074B1A68FB681E
:100BBC0022FA03F3044A136000BF1437BD4680BC0D
:100BCC00704700BF001002400400002000127A00A1
:100BDC0000093D00641C000880B582B000AF00F035
:100BEC0021F90F4B93E80700FFF73CFB0D4B1B68FB
:100BFC00184600F03AFB00237B600BE000233B60BF
:100C0C0002E03B6801333B603B68FE2BF9D97B6803
:100C1C0001337B607B68C72BF0D900F069FBE5E7FB
:100C2C0008000020C004002080B400AF044B1B68F7
:100C3C000133034A136000BFBD4680BC704700BF40
:100C4C00C004002080B586B000AF3B1D83E80700D0
:100C5C0000237B750123BB75BB7B3B753B797969A5
:100C6C001846FFF733FD0023FB750DE0FB7D1833B1
:100C7C003B4413F8123C3B753B7979691846FFF7F6
:100C8C0025FDFB7D0133FB75FB7D072BEED900BFEA
:100C9C0000BF1837BD4680BD90B587B000AF3C1D76
:100CAC0084E80700FB707B79002B23D03B79B97B60
:100CBC0000221846FFF7D2FD0023FB7516E03879A9
:100CCC00FB7D18333B4413F8121CFB781E4AD35C93
:100CDC001A46FB7D42FA03F3DBB203F00103DBB2ED
:100CEC001A46FFF7BBFDFB7D0133FB75FB7D072B24
:100CFC00E5D925E03B79B97B01221846FFF7AEFD1B
:100D0C000023FB7519E03879FB7D18333B4413F84D
:100D1C00121CFB780C4AD35C1A46FB7D42FA03F397
:100D2C0003F00103002B0CBF01230023DBB21A4696
:100D3C00FFF794FDFB7D0133FB75FB7D072BE2D99F
:100D4C0000BF1C37BD4690BD1400002080B58AB092
:100D5C0000AF0346FB71324A07F10C0392E8030023
:100D6C0083E8030000220B210020FFF777FD00220F
:100D7C000A210020FFF772FD002387F8273017E0C7
:100D8C0097F8273028333B4413F81C1CFA7997F852
:100D9C00273042FA03F3DBB203F00103DBB21A464D
:100DAC000020FFF75BFD97F82730013387F82730D9
:100DBC0097F82730072BE3D901220C210020FFF7ED
:100DCC004DFD00233B620BE00023FB6102E0FB695D
:100DDC000133FB61FB69FE2BF9D93B6A01333B62A2
:100DEC003B6A042BF0D900220C210020FFF736FDC2
:100DFC000023BB610BE000237B6102E07B690133C4
:100E0C007B617B69FE2BF9D9BB690133BB61BB6983
:100E1C00012BF0D900BF00BF2837BD4680BD00BFF5
:100E2C007C1C000880B586B000AF294A3B1D92E8B7
:100E3C00030083E8030000237B700123BB700A23AB
:100E4C003B7039680020FFF741FC0B233B7039687D
:100E5C000020FFF73BFC0C233B7039680020FFF7A8
:100E6C0035FC00220C210020FFF7F8FC0023FB7559
:100E7C000CE0FB7D18333B4413F8143C3B70396891
:100E8C000020FFF723FCFB7D0133FB75FB7D072B5B
:100E9C00EFD900233B610BE00023FB6002E0FB6811
:100EAC000133FB60FB68FE2BF9D93B6901333B61D5
:100EBC003B69272BF0D93C20FFF748FF0C20FFF7AC
:100ECC0045FF0120FFF742FF00BF1837BD4680BD2C
:100EDC007C1C000880B58CB000AF0346FB713B4A0C
:100EEC0007F10C0392E8030083E803000023BB62C4
:100EFC000BE000237B6202E07B6A01337B627B6A3E
:100F0C00FE2BF9D9BB6A0133BB62BB6A312BF0D91A
:100F1C0000220B210020FFF7A1FC01220A21002056
:100F2C00FFF79CFC002387F82F3017E097F82F3041
:100F3C0030333B4413F8241CFA7997F82F3042FADB
:100F4C0003F3DBB203F00103DBB21A460020FFF718
:100F5C0085FC97F82F30013387F82F3097F82F3016
:100F6C00072BE3D901220C210020FFF777FC00238B
:100F7C003B620BE00023FB6102E0FB690133FB6188
:100F8C00FB69FE2BF9D93B6A01333B623B6A042BAC
:100F9C00F0D900220C210020FFF760FC0023BB617C
:100FAC000BE000237B6102E07B6901337B617B6991
:100FBC00FE2BF9D9BB690133BB61BB69012BF0D99D
:100FCC0000BF00BF3037BD4680BD00BF7C1C000891
:100FDC0080B485B000AF786039600023FB737B6808
:100FEC00002B22D1FB7B5A1CFA731A463B68134424
:100FFC0030221A701CE07968344BA3FB0123DA0809
:10100C0013469B0013445B00CA1AD2B2FB7B3968AF
:10101C000B443032D2B21A70FB7B0133FB737B680A
:10102C002A4AA2FB0323DB087B607B68002BE2D1FE
:10103C00FB7B3A68134400221A700023BB7338E020
:10104C00BB7B3A6813441978FA7BBB7BD31A013B00
:10105C003A6813441A78BB7B386803444A40D2B2CE
:10106C001A70FA7BBB7BD31A013B3A68134419788C
:10107C00BB7B3A6813441A78F87BBB7BC31A013BE1
:10108C00386803444A40D2B21A70BB7B3A681344A6
:10109C001978FA7BBB7BD31A013B3A6813441A7854
:1010AC00BB7B386803444A40D2B21A70BB7B013315
:1010BC00BB73FB7B5B08DBB2BA7B9A42C0D300BF2D
:1010CC0000BF1437BD4680BC704700BFCDCCCCCC24
:1010DC0080B584B000AF78603960786800F016FC99
:1010EC0003469BB2184600F06DFA03461946786821
:1010FC0000F0B2F90346184600F008FC03469BB218
:10110C001A46920013441A4691001A460B46134491
:10111C009B00BB810023FB731AE0BA89474BA3FBEE
:10112C000213D9080B469B000B445B00D31A9BB2ED
:10113C00DAB2FB7B39680B443032D2B21A70FB7BCB
:10114C000133FB73BB893D4AA2FB0323DB08BB8144
:10115C00BB89002BE1D1FB7B5A1CFA731A463B6806
:10116C0013442E221A701CE0786800F0CFFB014665
:10117C00324BA3FB0123DA0813469B0013445B009C
:10118C00CA1AD2B2FB7B39680B443032D2B21A7015
:10119C00FB7B0133FB732A49786800F01BFB034689
:1011AC007B60786800F0B2FB0346002BDCD1002397
:1011BC00BB7338E0BB7B3A6813441978FA7BBB7B72
:1011CC00D31A013B3A6813441A78BB7B3868034442
:1011DC004A40D2B21A70FA7BBB7BD31A013B3A68F5
:1011EC0013441978BB7B3A6813441A78F87BBB7BA1
:1011FC00C31A013B386803444A40D2B21A70BB7B15
:10120C003A6813441978FA7BBB7BD31A013B3A68D2
:10121C0013441A78BB7B386803444A40D2B21A7024
:10122C00BB7B0133BB73FB7B5B08DBB2BA7B9A42A3
:10123C00C0D300BF00BF1037BD4680BDCDCCCCCCD9
:10124C000000204180B584B000AF786007F108033E
:10125C0019467868FFF73CFF07F10803184600F0C1
:10126C0017F800BF1037BD4680BD80B584B000AF05
:10127C00786007F1080319467868FFF7A9FE07F1B3
:10128C000803184600F004F800BF1037BD4680BDB7
:10129C0080B582B000AF786007E07B681B78184699
:1012AC00FFF718FE7B6801337B607B681B78002B93
:1012BC00F3D100BF00BF0837BD4680BD80B584B0F8
:1012CC0000AF03460A46FB711346BB71FB79002B3A
:1012DC0001D0C02300E08023FB73FA7BBB7913445D
:1012EC00DBB21846FFF732FD00BF1037BD4680BD9C
:1012FC0080B500AF0120FFF729FD00BF80BD00BF06
:10130C0080B582B000AF00F00AF80346FB71FB79A0
:10131C00582BF8D0FB7918460837BD4680BD80B5F0
:10132C0082B000AF58237B710023FB7139E0FB794D
:10133C00204AD35C002219460120FFF78FFA0023C4
:10134C00BB7120E0BB791C4AD35C19460120FFF726
:10135C004BFA0346002B13D1BA79FB79174992004B
:10136C000A4413441B787B7100BFBB79124AD35CCF
:10137C0019460120FFF738FA0346002BF5D005E09B
:10138C00BB790133BB71BB79032BDBD9FB79094AE0
:10139C00D35C012219460120FFF760FAFB79013377
:1013AC00FB71FB79032BC2D97B7918460837BD46F4
:1013BC0080BD00BF30000020340000202000002041
:1013CC0080B582B000AF08237B710023BB71002372
:1013DC00FB710AE0FB79174AD35C3B7179680120F9
:1013EC00FFF774F9FB790133FB71FB79032BF1D90E
:1013FC0000237B710123BB710023FB7112E0FB798D
:10140C000D4AD35C3B7179680120FFF75FF9FB79DA
:10141C00094AD35C012219460120FFF71FFAFB7918
:10142C000133FB71FB79032BE9D900BF00BF0837EF
:10143C00BD4680BD3400002030000020C01C0008D8
:10144C00000000206804002068040020C404002070
:10145C0080F0004002E000BF81F0004142001FBF5D
:10146C005FEA410392EA030F7FEA226C7FEA236C66
:10147C006AD04FEA1262D2EB1363C1BFD21841405B
:10148C0048404140B8BF5B42192B88BF704710F0F1
:10149C00004F40F4000020F07F4018BF404211F094
:1014AC00004F41F4000121F07F4118BF494292EAFC
:1014BC00030F3FD0A2F1010241FA03FC10EB0C0028
:1014CC00C3F1200301FA03F100F0004302D54942B5
:1014DC0060EB4000B0F5000F13D3B0F1807F06D362
:1014EC0040084FEA310102F10102FE2A51D2B1F15A
:1014FC00004F40EBC25008BF20F0010040EA03004F
:10150C007047490040EB0000013A28BFB0F5000FCE
:10151C00EDD2B0FA80FCACF1080CB2EB0C0200FA84
:10152C000CF0AABF00EBC25052421843BCBFD040D3
:10153C001843704792F0000F81F4000106BF80F44D
:10154C0000000132013BB5E74FEA41037FEA226C10
:10155C0018BF7FEA236C21D092EA030F04D092F0DB
:10156C00000F08BF0846704790EA010F1CBF00200F
:10157C00704712F07F4F04D1400028BF40F000406C
:10158C00704712F100723CBF00F50000704700F08C
:10159C00004343F0FE4040F4000070477FEA2262B3
:1015AC0016BF08467FEA23630146420206BF5FEA84
:1015BC00412390EA010F40F4800070474FF0000384
:1015CC0004E000BF10F0004348BF40425FEA000C4B
:1015DC0008BF704743F0964301464FF000001CE0F3
:1015EC0050EA010208BF70474FF000030AE000BF49
:1015FC0050EA010208BF704711F0004302D5404287
:10160C0061EB41015FEA010C02BF844601460020F8
:10161C0043F0B64308BFA3F18053A3F50003BCFA13
:10162C008CF2083AA3EBC25310DB01FA02FC6344C0
:10163C0000FA02FCC2F12002BCF1004F20FA02F2C7
:10164C0043EB020008BF20F00100704702F12002BA
:10165C0001FA02FCC2F1200250EA4C0021FA02F21B
:10166C0043EB020008BF20EADC7070474FF0FF0C20
:10167C001CEAD0521EBF1CEAD15392EA0C0F93EA1B
:10168C000C0F6FD01A4480EA010C400218BF5FEABD
:10169C0041211ED04FF0006343EA501043EA511130
:1016AC00A0FB01310CF00040B1F5000F3EBF49002A
:1016BC0041EAD3715B0040EA010062F17F02FD2A2E
:1016CC001DD8B3F1004F40EBC25008BF20F0010011
:1016DC00704790F0000F0CF0004C08BF49024CEA28
:1016EC00502040EA51207F3AC2BFD2F1FF0340EABA
:1016FC00C250704740F400004FF00003013A5DDC2B
:10170C0012F1190FDCBF00F000407047C2F100026B
:10171C00410021FA02F1C2F1200200FA02FC5FEA58
:10172C00310040F1000053EA4C0308BF20EADC70A2
:10173C00704792F0000F00F0004C02BF400010F414
:10174C00000F013AF9D040EA0C0093F0000F01F0C1
:10175C00004C02BF490011F4000F013BF9D041EAE3
:10176C000C018FE70CEAD15392EA0C0F18BF93EAE5
:10177C000C0F0AD030F0004C18BF31F0004CD8D10F
:10178C0080EA010000F00040704790F0000F17BF96
:10179C0090F0004F084691F0000F91F0004F14D0DC
:1017AC0092EA0C0F01D142020FD193EA0C0F03D134
:1017BC004B0218BF084608D180EA010000F0004037
:1017CC0040F0FE4040F40000704740F0FE4040F412
:1017DC00400070474FF0FF0C1CEAD0521EBF1CEAB1
:1017EC00D15392EA0C0F93EA0C0F69D0A2EB0302CF
:1017FC0080EA010C49024FEA402037D04FF0805369
:10180C0043EA111143EA10130CF000408B4238BF2D
:10181C005B0042F17D024FF4000C8B4224BF5B1A3B
:10182C0040EA0C00B3EB510F24BFA3EB510340EA89
:10183C005C00B3EB910F24BFA3EB910340EA9C0037
:10184C00B3EBD10F24BFA3EBD10340EADC001B01A7
:10185C0018BF5FEA1C1CE0D1FD2A3FF650AF8B424B
:10186C0040EBC25008BF20F0010070470CF0004C58
:10187C004CEA50207F32C2BFD2F1FF0340EAC25083
:10188C00704740F400004FF00003013A37E792F044
:10189C00000F00F0004C02BF400010F4000F013AA2
:1018AC00F9D040EA0C0093F0000F01F0004C02BF9D
:1018BC00490011F4000F013BF9D041EA0C0195E706
:1018CC000CEAD15392EA0C0F08D142027FF47DAF9F
:1018DC0093EA0C0F7FF470AF084676E793EA0C0F8F
:1018EC0004D14B023FF44CAF08466EE730F0004C8D
:1018FC0018BF31F0004CCAD130F000427FF45CAF1D
:10190C0031F000437FF43CAF5FE700BF42000ED2E2
:10191C00B2F1FE4F0BD34FF09E03B3EB126209D41E
:10192C004FEA002343F0004323FA02F070474FF0D4
:10193C000000704712F1610F01D1420202D14FF049
:10194C00FF3070474FF00000704700BF0023014686
:10195C001A46184600F09CB808B50021044600F061
:10196C00C9F8044B1868C36B03B19847204600F0C4
:10197C0019F900BF841C000838B5084B084D5B1BD7
:10198C009C1007D0043B1D44013C55F80439984782
:10199C00002CF9D1BDE8384000F03EB9C01C00085D
:1019AC00BC1C000870B50D4E0D4D761BB61006D044
:1019BC00002455F8043B01349847A642F9D1094E4E
:1019CC00094D00F023F9761BB61006D0002455F80B
:1019DC00043B01349847A642F9D170BDB41C0008F1
:1019EC00B41C0008BC1C0008B41C0008830730B5EC
:1019FC0048D0541E002A3FD00346CAB201E0013C35
:101A0C003AD303F8012B9D07F9D1032C2DD9CDB274
:101A1C0045EA05250F2C45EA054536D9A4F11002F7
:101A2C0022F00F0C03F1200EE6444FEA121C03F1D6
:101A3C00100242E9045542E9025510327245F8D1C0
:101A4C000CF1010214F00C0F03EB021204F00F0C5A
:101A5C0013D0ACF1040323F003030433134442F812
:101A6C00045B9342FBD10CF003042CB1CAB21C44AE
:101A7C0003F8012B9C42FBD130BD64461346002C6D
:101A8C00F4D1F9E703461446BFE71A46A446E0E74B
:101A9C0070B5174C2568D5F84841DCB165681F2D29
:101AAC0023DC80B14FF0010C04EB850ECEF88820BE
:101ABC00D4F888610CFA05F216430228C4F8886140
:101ACC00CEF808310BD06B1C02356360002044F853
:101ADC00251070BD05F5A674C5F84841DEE7D4F8AD
:101AEC008C311343C4F88C31EDE74FF0FF3070BDEF
:101AFC00841C00082DE9F04F294B83B01F6801901E
:101B0C00D7F84861B6B18B464FF001084FF0000989
:101B1C007468651E0ED4013406EB8404BBF1000F0F
:101B2C000BD0D4F800315B4507D0013D6B1CA4F100
:101B3C000404F3D103B0BDE8F08F73682268013B55
:101B4C00AB420CBF7560C4F80090002AEDD0D6F8FB
:101B5C00880108FA05F10142D6F804A00BD1904790
:101B6C007268524512D1D7F84831B342DDD01E46C7
:101B7C00002ECDD1DEE7D6F88C0101420BD1D4F882
:101B8C0080100198904772685245ECD0D7F84861A4
:101B9C00002EBDD1CEE7D4F880009047E0E700BF1F
:101BAC00841C0008FEE700BF002103E00B4B5B58D0
:101BBC00435004310A480B4B42189A42F6D30A4A56
:101BCC0002E0002342F8043B084B9A42F9D3FEF79B
:101BDC005DFFFFF7E7FEFEF7FFFF7047C01C000834
:101BEC00000000206804002068040020C4040020C9
:101BFC00FEE70000024B13B10248FFF7A7BE704787
:101C0C00000000008519000800000000F8B500BFB6
:101C1C00F8BC08BC9E467047F8B500BFF8BC08BCC1
:041C2C009E46704719
:101C30003A3D0A3D0F3D243D323D023D053D133DF9
:101C40000D3D0C3D233D113D263D013D173D083D19
:101C5000093D0000060708090A1717171717282853
:101C600028282828000000000000000001020304CA
:101C70000607080900000000010203040001020336
:101C800004050607400000203A3D0A3D0F3D243D73
:101C9000323D023D053D133D0D3D0C3D233D113DC3
:0C1CA000263D013D173D083D093D0000B8
:081CAC00E8E4FF7F01000000E5
:081CB400011C00087501000885
:041CBC004D010008CE
:101CC0000000000000A24A040109020100350C00D6
:101CD000080000003F065B4F666D7D077F6F0000C8
:101CE0003738392F3435362A3132332D4F303D2BAA
:101CF0000405060700010203400000200000000068
:101D0000000000002C03002094030020FC030020AE
:101D100000000000000000000000000000000000C3
:101D200000000000000000000000000000000000B3
:101D300000000000000000000000000000000000A3
:101D40000000000000000000000000000000000093
:101D50000000000000000000000000000000000083
:101D60000000000000000000000000000000000073
:101D70000000000000000000000000000000000063
:101D80000000000000000000000000000000000053
:101D90000000000000000000000000000000000043
:101DA0000000000000000000010000000000000032
:101DB0000E33CDAB34126DE6ECDE05000B000000F7
:101DC0000000000000000000000000000000000013
:101DD0000000000000000000000000000000000003
:101DE00000000000000000000000000000000000F3
:101DF00000000000000000000000000000000000E3
:0400000508001BB51F
:00000001FF
